{
  "contractName": "ComAggNFT",
  "abi": [
    {
      "inputs": [],
      "stateMutability": "nonpayable",
      "type": "constructor"
    },
    {
      "anonymous": false,
      "inputs": [
        {
          "indexed": true,
          "internalType": "address",
          "name": "owner",
          "type": "address"
        },
        {
          "indexed": true,
          "internalType": "address",
          "name": "approved",
          "type": "address"
        },
        {
          "indexed": true,
          "internalType": "uint256",
          "name": "tokenId",
          "type": "uint256"
        }
      ],
      "name": "Approval",
      "type": "event"
    },
    {
      "anonymous": false,
      "inputs": [
        {
          "indexed": true,
          "internalType": "address",
          "name": "owner",
          "type": "address"
        },
        {
          "indexed": true,
          "internalType": "address",
          "name": "operator",
          "type": "address"
        },
        {
          "indexed": false,
          "internalType": "bool",
          "name": "approved",
          "type": "bool"
        }
      ],
      "name": "ApprovalForAll",
      "type": "event"
    },
    {
      "anonymous": false,
      "inputs": [
        {
          "indexed": true,
          "internalType": "bytes32",
          "name": "role",
          "type": "bytes32"
        },
        {
          "indexed": true,
          "internalType": "bytes32",
          "name": "previousAdminRole",
          "type": "bytes32"
        },
        {
          "indexed": true,
          "internalType": "bytes32",
          "name": "newAdminRole",
          "type": "bytes32"
        }
      ],
      "name": "RoleAdminChanged",
      "type": "event"
    },
    {
      "anonymous": false,
      "inputs": [
        {
          "indexed": true,
          "internalType": "bytes32",
          "name": "role",
          "type": "bytes32"
        },
        {
          "indexed": true,
          "internalType": "address",
          "name": "account",
          "type": "address"
        },
        {
          "indexed": true,
          "internalType": "address",
          "name": "sender",
          "type": "address"
        }
      ],
      "name": "RoleGranted",
      "type": "event"
    },
    {
      "anonymous": false,
      "inputs": [
        {
          "indexed": true,
          "internalType": "bytes32",
          "name": "role",
          "type": "bytes32"
        },
        {
          "indexed": true,
          "internalType": "address",
          "name": "account",
          "type": "address"
        },
        {
          "indexed": true,
          "internalType": "address",
          "name": "sender",
          "type": "address"
        }
      ],
      "name": "RoleRevoked",
      "type": "event"
    },
    {
      "anonymous": false,
      "inputs": [
        {
          "indexed": true,
          "internalType": "address",
          "name": "from",
          "type": "address"
        },
        {
          "indexed": true,
          "internalType": "address",
          "name": "to",
          "type": "address"
        },
        {
          "indexed": true,
          "internalType": "uint256",
          "name": "tokenId",
          "type": "uint256"
        }
      ],
      "name": "Transfer",
      "type": "event"
    },
    {
      "inputs": [],
      "name": "DEFAULT_ADMIN_ROLE",
      "outputs": [
        {
          "internalType": "bytes32",
          "name": "",
          "type": "bytes32"
        }
      ],
      "stateMutability": "view",
      "type": "function"
    },
    {
      "inputs": [],
      "name": "MINTER_ROLE",
      "outputs": [
        {
          "internalType": "bytes32",
          "name": "",
          "type": "bytes32"
        }
      ],
      "stateMutability": "view",
      "type": "function"
    },
    {
      "inputs": [
        {
          "internalType": "address",
          "name": "to",
          "type": "address"
        },
        {
          "internalType": "uint256",
          "name": "tokenId",
          "type": "uint256"
        }
      ],
      "name": "approve",
      "outputs": [],
      "stateMutability": "nonpayable",
      "type": "function"
    },
    {
      "inputs": [
        {
          "internalType": "address",
          "name": "owner",
          "type": "address"
        }
      ],
      "name": "balanceOf",
      "outputs": [
        {
          "internalType": "uint256",
          "name": "",
          "type": "uint256"
        }
      ],
      "stateMutability": "view",
      "type": "function"
    },
    {
      "inputs": [
        {
          "internalType": "uint256",
          "name": "tokenId",
          "type": "uint256"
        }
      ],
      "name": "getApproved",
      "outputs": [
        {
          "internalType": "address",
          "name": "",
          "type": "address"
        }
      ],
      "stateMutability": "view",
      "type": "function"
    },
    {
      "inputs": [
        {
          "internalType": "bytes32",
          "name": "role",
          "type": "bytes32"
        }
      ],
      "name": "getRoleAdmin",
      "outputs": [
        {
          "internalType": "bytes32",
          "name": "",
          "type": "bytes32"
        }
      ],
      "stateMutability": "view",
      "type": "function"
    },
    {
      "inputs": [
        {
          "internalType": "bytes32",
          "name": "role",
          "type": "bytes32"
        },
        {
          "internalType": "address",
          "name": "account",
          "type": "address"
        }
      ],
      "name": "grantRole",
      "outputs": [],
      "stateMutability": "nonpayable",
      "type": "function"
    },
    {
      "inputs": [
        {
          "internalType": "bytes32",
          "name": "role",
          "type": "bytes32"
        },
        {
          "internalType": "address",
          "name": "account",
          "type": "address"
        }
      ],
      "name": "hasRole",
      "outputs": [
        {
          "internalType": "bool",
          "name": "",
          "type": "bool"
        }
      ],
      "stateMutability": "view",
      "type": "function"
    },
    {
      "inputs": [
        {
          "internalType": "address",
          "name": "owner",
          "type": "address"
        },
        {
          "internalType": "address",
          "name": "operator",
          "type": "address"
        }
      ],
      "name": "isApprovedForAll",
      "outputs": [
        {
          "internalType": "bool",
          "name": "",
          "type": "bool"
        }
      ],
      "stateMutability": "view",
      "type": "function"
    },
    {
      "inputs": [],
      "name": "name",
      "outputs": [
        {
          "internalType": "string",
          "name": "",
          "type": "string"
        }
      ],
      "stateMutability": "view",
      "type": "function"
    },
    {
      "inputs": [
        {
          "internalType": "uint256",
          "name": "tokenId",
          "type": "uint256"
        }
      ],
      "name": "ownerOf",
      "outputs": [
        {
          "internalType": "address",
          "name": "",
          "type": "address"
        }
      ],
      "stateMutability": "view",
      "type": "function"
    },
    {
      "inputs": [
        {
          "internalType": "bytes32",
          "name": "role",
          "type": "bytes32"
        },
        {
          "internalType": "address",
          "name": "account",
          "type": "address"
        }
      ],
      "name": "renounceRole",
      "outputs": [],
      "stateMutability": "nonpayable",
      "type": "function"
    },
    {
      "inputs": [
        {
          "internalType": "bytes32",
          "name": "role",
          "type": "bytes32"
        },
        {
          "internalType": "address",
          "name": "account",
          "type": "address"
        }
      ],
      "name": "revokeRole",
      "outputs": [],
      "stateMutability": "nonpayable",
      "type": "function"
    },
    {
      "inputs": [
        {
          "internalType": "address",
          "name": "from",
          "type": "address"
        },
        {
          "internalType": "address",
          "name": "to",
          "type": "address"
        },
        {
          "internalType": "uint256",
          "name": "tokenId",
          "type": "uint256"
        }
      ],
      "name": "safeTransferFrom",
      "outputs": [],
      "stateMutability": "nonpayable",
      "type": "function"
    },
    {
      "inputs": [
        {
          "internalType": "address",
          "name": "from",
          "type": "address"
        },
        {
          "internalType": "address",
          "name": "to",
          "type": "address"
        },
        {
          "internalType": "uint256",
          "name": "tokenId",
          "type": "uint256"
        },
        {
          "internalType": "bytes",
          "name": "_data",
          "type": "bytes"
        }
      ],
      "name": "safeTransferFrom",
      "outputs": [],
      "stateMutability": "nonpayable",
      "type": "function"
    },
    {
      "inputs": [
        {
          "internalType": "address",
          "name": "operator",
          "type": "address"
        },
        {
          "internalType": "bool",
          "name": "approved",
          "type": "bool"
        }
      ],
      "name": "setApprovalForAll",
      "outputs": [],
      "stateMutability": "nonpayable",
      "type": "function"
    },
    {
      "inputs": [],
      "name": "symbol",
      "outputs": [
        {
          "internalType": "string",
          "name": "",
          "type": "string"
        }
      ],
      "stateMutability": "view",
      "type": "function"
    },
    {
      "inputs": [
        {
          "internalType": "address",
          "name": "from",
          "type": "address"
        },
        {
          "internalType": "address",
          "name": "to",
          "type": "address"
        },
        {
          "internalType": "uint256",
          "name": "tokenId",
          "type": "uint256"
        }
      ],
      "name": "transferFrom",
      "outputs": [],
      "stateMutability": "nonpayable",
      "type": "function"
    },
    {
      "inputs": [
        {
          "internalType": "address",
          "name": "to",
          "type": "address"
        }
      ],
      "name": "safeMint",
      "outputs": [],
      "stateMutability": "nonpayable",
      "type": "function"
    },
    {
      "inputs": [
        {
          "internalType": "uint256",
          "name": "tokenId",
          "type": "uint256"
        }
      ],
      "name": "tokenURI",
      "outputs": [
        {
          "internalType": "string",
          "name": "",
          "type": "string"
        }
      ],
      "stateMutability": "view",
      "type": "function"
    },
    {
      "inputs": [
        {
          "internalType": "bytes4",
          "name": "interfaceId",
          "type": "bytes4"
        }
      ],
      "name": "supportsInterface",
      "outputs": [
        {
          "internalType": "bool",
          "name": "",
          "type": "bool"
        }
      ],
      "stateMutability": "view",
      "type": "function"
    }
  ],
  "bytecode": "0x60806040523480156200001157600080fd5b506040518060400160405280600e81526020017f436f6d6d756e69746965734e46540000000000000000000000000000000000008152506040518060400160405280600381526020017f43414e00000000000000000000000000000000000000000000000000000000008152508160009080519060200190620000969291906200027a565b508060019080519060200190620000af9291906200027a565b505050620000c76000801b33620000ff60201b60201c565b620000f97f9f2df0fed2c77648de5860a4cc508cd0818c85b8b8a1ab4ceeef8d981c8956a633620000ff60201b60201c565b6200038f565b6200011182826200011560201b60201c565b5050565b6200012782826200020760201b60201c565b620002035760016007600084815260200190815260200160002060000160008373ffffffffffffffffffffffffffffffffffffffff1673ffffffffffffffffffffffffffffffffffffffff16815260200190815260200160002060006101000a81548160ff021916908315150217905550620001a86200027260201b60201c565b73ffffffffffffffffffffffffffffffffffffffff168173ffffffffffffffffffffffffffffffffffffffff16837f2f8788117e7eff1d82e926ec794901d17c78024a50270940304540a733656f0d60405160405180910390a45b5050565b60006007600084815260200190815260200160002060000160008373ffffffffffffffffffffffffffffffffffffffff1673ffffffffffffffffffffffffffffffffffffffff16815260200190815260200160002060009054906101000a900460ff16905092915050565b600033905090565b82805462000288906200032a565b90600052602060002090601f016020900481019282620002ac5760008555620002f8565b82601f10620002c757805160ff1916838001178555620002f8565b82800160010185558215620002f8579182015b82811115620002f7578251825591602001919060010190620002da565b5b5090506200030791906200030b565b5090565b5b80821115620003265760008160009055506001016200030c565b5090565b600060028204905060018216806200034357607f821691505b602082108114156200035a576200035962000360565b5b50919050565b7f4e487b7100000000000000000000000000000000000000000000000000000000600052602260045260246000fd5b613555806200039f6000396000f3fe608060405234801561001057600080fd5b50600436106101375760003560e01c80636352211e116100b8578063a22cb4651161007c578063a22cb4651461035e578063b88d4fde1461037a578063c87b56dd14610396578063d5391393146103c6578063d547741f146103e4578063e985e9c51461040057610137565b80636352211e1461029257806370a08231146102c257806391d14854146102f257806395d89b4114610322578063a217fddf1461034057610137565b8063248a9ca3116100ff578063248a9ca3146101f25780632f2ff15d1461022257806336568abe1461023e57806340d097c31461025a57806342842e0e1461027657610137565b806301ffc9a71461013c57806306fdde031461016c578063081812fc1461018a578063095ea7b3146101ba57806323b872dd146101d6575b600080fd5b61015660048036038101906101519190612426565b610430565b60405161016391906128de565b60405180910390f35b610174610442565b6040516101819190612914565b60405180910390f35b6101a4600480360381019061019f9190612478565b6104d4565b6040516101b19190612877565b60405180910390f35b6101d460048036038101906101cf9190612385565b610559565b005b6101f060048036038101906101eb919061227f565b610671565b005b61020c600480360381019061020791906123c1565b6106d1565b60405161021991906128f9565b60405180910390f35b61023c600480360381019061023791906123ea565b6106f1565b005b610258600480360381019061025391906123ea565b61071a565b005b610274600480360381019061026f919061221a565b61079d565b005b610290600480360381019061028b919061227f565b6107f0565b005b6102ac60048036038101906102a79190612478565b610810565b6040516102b99190612877565b60405180910390f35b6102dc60048036038101906102d7919061221a565b6108c2565b6040516102e99190612b56565b60405180910390f35b61030c600480360381019061030791906123ea565b61097a565b60405161031991906128de565b60405180910390f35b61032a6109e5565b6040516103379190612914565b60405180910390f35b610348610a77565b60405161035591906128f9565b60405180910390f35b61037860048036038101906103739190612349565b610a7e565b005b610394600480360381019061038f91906122ce565b610bff565b005b6103b060048036038101906103ab9190612478565b610c61565b6040516103bd9190612914565b60405180910390f35b6103ce610c73565b6040516103db91906128f9565b60405180910390f35b6103fe60048036038101906103f991906123ea565b610c97565b005b61041a60048036038101906104159190612243565b610cc0565b60405161042791906128de565b60405180910390f35b600061043b82610d54565b9050919050565b60606000805461045190612e09565b80601f016020809104026020016040519081016040528092919081815260200182805461047d90612e09565b80156104ca5780601f1061049f576101008083540402835291602001916104ca565b820191906000526020600020905b8154815290600101906020018083116104ad57829003601f168201915b5050505050905090565b60006104df82610dce565b61051e576040517f08c379a000000000000000000000000000000000000000000000000000000000815260040161051590612a96565b60405180910390fd5b6004600083815260200190815260200160002060009054906101000a900473ffffffffffffffffffffffffffffffffffffffff169050919050565b600061056482610810565b90508073ffffffffffffffffffffffffffffffffffffffff168373ffffffffffffffffffffffffffffffffffffffff1614156105d5576040517f08c379a00000000000000000000000000000000000000000000000000000000081526004016105cc90612af6565b60405180910390fd5b8073ffffffffffffffffffffffffffffffffffffffff166105f4610e3a565b73ffffffffffffffffffffffffffffffffffffffff16148061062357506106228161061d610e3a565b610cc0565b5b610662576040517f08c379a0000000000000000000000000000000000000000000000000000000008152600401610659906129f6565b60405180910390fd5b61066c8383610e42565b505050565b61068261067c610e3a565b82610efb565b6106c1576040517f08c379a00000000000000000000000000000000000000000000000000000000081526004016106b890612b16565b60405180910390fd5b6106cc838383610fd9565b505050565b600060076000838152602001908152602001600020600101549050919050565b6106fa826106d1565b61070b81610706610e3a565b611235565b61071583836112d2565b505050565b610722610e3a565b73ffffffffffffffffffffffffffffffffffffffff168173ffffffffffffffffffffffffffffffffffffffff161461078f576040517f08c379a000000000000000000000000000000000000000000000000000000000815260040161078690612b36565b60405180910390fd5b61079982826113b3565b5050565b7f9f2df0fed2c77648de5860a4cc508cd0818c85b8b8a1ab4ceeef8d981c8956a66107cf816107ca610e3a565b611235565b6107e2826107dd6008611495565b6114a3565b6107ec60086114c1565b5050565b61080b83838360405180602001604052806000815250610bff565b505050565b6000806002600084815260200190815260200160002060009054906101000a900473ffffffffffffffffffffffffffffffffffffffff169050600073ffffffffffffffffffffffffffffffffffffffff168173ffffffffffffffffffffffffffffffffffffffff1614156108b9576040517f08c379a00000000000000000000000000000000000000000000000000000000081526004016108b090612a36565b60405180910390fd5b80915050919050565b60008073ffffffffffffffffffffffffffffffffffffffff168273ffffffffffffffffffffffffffffffffffffffff161415610933576040517f08c379a000000000000000000000000000000000000000000000000000000000815260040161092a90612a16565b60405180910390fd5b600360008373ffffffffffffffffffffffffffffffffffffffff1673ffffffffffffffffffffffffffffffffffffffff168152602001908152602001600020549050919050565b60006007600084815260200190815260200160002060000160008373ffffffffffffffffffffffffffffffffffffffff1673ffffffffffffffffffffffffffffffffffffffff16815260200190815260200160002060009054906101000a900460ff16905092915050565b6060600180546109f490612e09565b80601f0160208091040260200160405190810160405280929190818152602001828054610a2090612e09565b8015610a6d5780601f10610a4257610100808354040283529160200191610a6d565b820191906000526020600020905b815481529060010190602001808311610a5057829003601f168201915b5050505050905090565b6000801b81565b610a86610e3a565b73ffffffffffffffffffffffffffffffffffffffff168273ffffffffffffffffffffffffffffffffffffffff161415610af4576040517f08c379a0000000000000000000000000000000000000000000000000000000008152600401610aeb906129b6565b60405180910390fd5b8060056000610b01610e3a565b73ffffffffffffffffffffffffffffffffffffffff1673ffffffffffffffffffffffffffffffffffffffff16815260200190815260200160002060008473ffffffffffffffffffffffffffffffffffffffff1673ffffffffffffffffffffffffffffffffffffffff16815260200190815260200160002060006101000a81548160ff0219169083151502179055508173ffffffffffffffffffffffffffffffffffffffff16610bae610e3a565b73ffffffffffffffffffffffffffffffffffffffff167f17307eab39ab6107e8899845ad3d59bd9653f200f220920489ca2b5937696c3183604051610bf391906128de565b60405180910390a35050565b610c10610c0a610e3a565b83610efb565b610c4f576040517f08c379a0000000000000000000000000000000000000000000000000000000008152600401610c4690612b16565b60405180910390fd5b610c5b848484846114d7565b50505050565b6060610c6c82611533565b9050919050565b7f9f2df0fed2c77648de5860a4cc508cd0818c85b8b8a1ab4ceeef8d981c8956a681565b610ca0826106d1565b610cb181610cac610e3a565b611235565b610cbb83836113b3565b505050565b6000600560008473ffffffffffffffffffffffffffffffffffffffff1673ffffffffffffffffffffffffffffffffffffffff16815260200190815260200160002060008373ffffffffffffffffffffffffffffffffffffffff1673ffffffffffffffffffffffffffffffffffffffff16815260200190815260200160002060009054906101000a900460ff16905092915050565b60007f7965db0b000000000000000000000000000000000000000000000000000000007bffffffffffffffffffffffffffffffffffffffffffffffffffffffff1916827bffffffffffffffffffffffffffffffffffffffffffffffffffffffff19161480610dc75750610dc682611685565b5b9050919050565b60008073ffffffffffffffffffffffffffffffffffffffff166002600084815260200190815260200160002060009054906101000a900473ffffffffffffffffffffffffffffffffffffffff1673ffffffffffffffffffffffffffffffffffffffff1614159050919050565b600033905090565b816004600083815260200190815260200160002060006101000a81548173ffffffffffffffffffffffffffffffffffffffff021916908373ffffffffffffffffffffffffffffffffffffffff160217905550808273ffffffffffffffffffffffffffffffffffffffff16610eb583610810565b73ffffffffffffffffffffffffffffffffffffffff167f8c5be1e5ebec7d5bd14f71427d1e84f3dd0314c0f7b2291e5b200ac8c7c3b92560405160405180910390a45050565b6000610f0682610dce565b610f45576040517f08c379a0000000000000000000000000000000000000000000000000000000008152600401610f3c906129d6565b60405180910390fd5b6000610f5083610810565b90508073ffffffffffffffffffffffffffffffffffffffff168473ffffffffffffffffffffffffffffffffffffffff161480610fbf57508373ffffffffffffffffffffffffffffffffffffffff16610fa7846104d4565b73ffffffffffffffffffffffffffffffffffffffff16145b80610fd05750610fcf8185610cc0565b5b91505092915050565b8273ffffffffffffffffffffffffffffffffffffffff16610ff982610810565b73ffffffffffffffffffffffffffffffffffffffff161461104f576040517f08c379a000000000000000000000000000000000000000000000000000000000815260040161104690612ab6565b60405180910390fd5b600073ffffffffffffffffffffffffffffffffffffffff168273ffffffffffffffffffffffffffffffffffffffff1614156110bf576040517f08c379a00000000000000000000000000000000000000000000000000000000081526004016110b690612996565b60405180910390fd5b6110ca838383611767565b6110d5600082610e42565b6001600360008573ffffffffffffffffffffffffffffffffffffffff1673ffffffffffffffffffffffffffffffffffffffff16815260200190815260200160002060008282546111259190612ceb565b925050819055506001600360008473ffffffffffffffffffffffffffffffffffffffff1673ffffffffffffffffffffffffffffffffffffffff168152602001908152602001600020600082825461117c9190612c0a565b92505081905550816002600083815260200190815260200160002060006101000a81548173ffffffffffffffffffffffffffffffffffffffff021916908373ffffffffffffffffffffffffffffffffffffffff160217905550808273ffffffffffffffffffffffffffffffffffffffff168473ffffffffffffffffffffffffffffffffffffffff167fddf252ad1be2c89b69c2b068fc378daa952ba7f163c4a11628f55a4df523b3ef60405160405180910390a4505050565b61123f828261097a565b6112ce576112648173ffffffffffffffffffffffffffffffffffffffff16601461176c565b6112728360001c602061176c565b60405160200161128392919061283d565b6040516020818303038152906040526040517f08c379a00000000000000000000000000000000000000000000000000000000081526004016112c59190612914565b60405180910390fd5b5050565b6112dc828261097a565b6113af5760016007600084815260200190815260200160002060000160008373ffffffffffffffffffffffffffffffffffffffff1673ffffffffffffffffffffffffffffffffffffffff16815260200190815260200160002060006101000a81548160ff021916908315150217905550611354610e3a565b73ffffffffffffffffffffffffffffffffffffffff168173ffffffffffffffffffffffffffffffffffffffff16837f2f8788117e7eff1d82e926ec794901d17c78024a50270940304540a733656f0d60405160405180910390a45b5050565b6113bd828261097a565b156114915760006007600084815260200190815260200160002060000160008373ffffffffffffffffffffffffffffffffffffffff1673ffffffffffffffffffffffffffffffffffffffff16815260200190815260200160002060006101000a81548160ff021916908315150217905550611436610e3a565b73ffffffffffffffffffffffffffffffffffffffff168173ffffffffffffffffffffffffffffffffffffffff16837ff6391f5c32d9c69d2a47ea670b442974b53935d1edc7fd64eb21e047a839171b60405160405180910390a45b5050565b600081600001549050919050565b6114bd828260405180602001604052806000815250611a66565b5050565b6001816000016000828254019250508190555050565b6114e2848484610fd9565b6114ee84848484611ac1565b61152d576040517f08c379a000000000000000000000000000000000000000000000000000000000815260040161152490612956565b60405180910390fd5b50505050565b606061153e82610dce565b61157d576040517f08c379a000000000000000000000000000000000000000000000000000000000815260040161157490612a76565b60405180910390fd5b600060066000848152602001908152602001600020805461159d90612e09565b80601f01602080910402602001604051908101604052809291908181526020018280546115c990612e09565b80156116165780601f106115eb57610100808354040283529160200191611616565b820191906000526020600020905b8154815290600101906020018083116115f957829003601f168201915b505050505090506000611627611c58565b905060008151141561163d578192505050611680565b60008251111561167257808260405160200161165a929190612819565b60405160208183030381529060405292505050611680565b61167b84611c95565b925050505b919050565b60007f80ac58cd000000000000000000000000000000000000000000000000000000007bffffffffffffffffffffffffffffffffffffffffffffffffffffffff1916827bffffffffffffffffffffffffffffffffffffffffffffffffffffffff1916148061175057507f5b5e139f000000000000000000000000000000000000000000000000000000007bffffffffffffffffffffffffffffffffffffffffffffffffffffffff1916827bffffffffffffffffffffffffffffffffffffffffffffffffffffffff1916145b80611760575061175f82611d3c565b5b9050919050565b505050565b60606000600283600261177f9190612c91565b6117899190612c0a565b67ffffffffffffffff8111156117c8577f4e487b7100000000000000000000000000000000000000000000000000000000600052604160045260246000fd5b6040519080825280601f01601f1916602001820160405280156117fa5781602001600182028036833780820191505090505b5090507f300000000000000000000000000000000000000000000000000000000000000081600081518110611858577f4e487b7100000000000000000000000000000000000000000000000000000000600052603260045260246000fd5b60200101907effffffffffffffffffffffffffffffffffffffffffffffffffffffffffffff1916908160001a9053507f7800000000000000000000000000000000000000000000000000000000000000816001815181106118e2577f4e487b7100000000000000000000000000000000000000000000000000000000600052603260045260246000fd5b60200101907effffffffffffffffffffffffffffffffffffffffffffffffffffffffffffff1916908160001a905350600060018460026119229190612c91565b61192c9190612c0a565b90505b6001811115611a18577f3031323334353637383961626364656600000000000000000000000000000000600f861660108110611994577f4e487b7100000000000000000000000000000000000000000000000000000000600052603260045260246000fd5b1a60f81b8282815181106119d1577f4e487b7100000000000000000000000000000000000000000000000000000000600052603260045260246000fd5b60200101907effffffffffffffffffffffffffffffffffffffffffffffffffffffffffffff1916908160001a905350600485901c945080611a1190612ddf565b905061192f565b5060008414611a5c576040517f08c379a0000000000000000000000000000000000000000000000000000000008152600401611a5390612936565b60405180910390fd5b8091505092915050565b611a708383611da6565b611a7d6000848484611ac1565b611abc576040517f08c379a0000000000000000000000000000000000000000000000000000000008152600401611ab390612956565b60405180910390fd5b505050565b6000611ae28473ffffffffffffffffffffffffffffffffffffffff16611f74565b15611c4b578373ffffffffffffffffffffffffffffffffffffffff1663150b7a02611b0b610e3a565b8786866040518563ffffffff1660e01b8152600401611b2d9493929190612892565b602060405180830381600087803b158015611b4757600080fd5b505af1925050508015611b7857506040513d601f19601f82011682018060405250810190611b75919061244f565b60015b611bfb573d8060008114611ba8576040519150601f19603f3d011682016040523d82523d6000602084013e611bad565b606091505b50600081511415611bf3576040517f08c379a0000000000000000000000000000000000000000000000000000000008152600401611bea90612956565b60405180910390fd5b805181602001fd5b63150b7a0260e01b7bffffffffffffffffffffffffffffffffffffffffffffffffffffffff1916817bffffffffffffffffffffffffffffffffffffffffffffffffffffffff191614915050611c50565b600190505b949350505050565b60606040518060400160405280601e81526020017f68747470733a2f2f61697374686973692e6172742f6d657461646174612f0000815250905090565b6060611ca082610dce565b611cdf576040517f08c379a0000000000000000000000000000000000000000000000000000000008152600401611cd690612ad6565b60405180910390fd5b6000611ce9611c58565b90506000815111611d095760405180602001604052806000815250611d34565b80611d1384611f87565b604051602001611d24929190612819565b6040516020818303038152906040525b915050919050565b60007f01ffc9a7000000000000000000000000000000000000000000000000000000007bffffffffffffffffffffffffffffffffffffffffffffffffffffffff1916827bffffffffffffffffffffffffffffffffffffffffffffffffffffffff1916149050919050565b600073ffffffffffffffffffffffffffffffffffffffff168273ffffffffffffffffffffffffffffffffffffffff161415611e16576040517f08c379a0000000000000000000000000000000000000000000000000000000008152600401611e0d90612a56565b60405180910390fd5b611e1f81610dce565b15611e5f576040517f08c379a0000000000000000000000000000000000000000000000000000000008152600401611e5690612976565b60405180910390fd5b611e6b60008383611767565b6001600360008473ffffffffffffffffffffffffffffffffffffffff1673ffffffffffffffffffffffffffffffffffffffff1681526020019081526020016000206000828254611ebb9190612c0a565b92505081905550816002600083815260200190815260200160002060006101000a81548173ffffffffffffffffffffffffffffffffffffffff021916908373ffffffffffffffffffffffffffffffffffffffff160217905550808273ffffffffffffffffffffffffffffffffffffffff16600073ffffffffffffffffffffffffffffffffffffffff167fddf252ad1be2c89b69c2b068fc378daa952ba7f163c4a11628f55a4df523b3ef60405160405180910390a45050565b600080823b905060008111915050919050565b60606000821415611fcf576040518060400160405280600181526020017f3000000000000000000000000000000000000000000000000000000000000000815250905061212f565b600082905060005b60008214612001578080611fea90612e6c565b915050600a82611ffa9190612c60565b9150611fd7565b60008167ffffffffffffffff811115612043577f4e487b7100000000000000000000000000000000000000000000000000000000600052604160045260246000fd5b6040519080825280601f01601f1916602001820160405280156120755781602001600182028036833780820191505090505b5090505b600085146121285760018261208e9190612ceb565b9150600a8561209d9190612eb5565b60306120a99190612c0a565b60f81b8183815181106120e5577f4e487b7100000000000000000000000000000000000000000000000000000000600052603260045260246000fd5b60200101907effffffffffffffffffffffffffffffffffffffffffffffffffffffffffffff1916908160001a905350600a856121219190612c60565b9450612079565b8093505050505b919050565b600061214761214284612b96565b612b71565b90508281526020810184848401111561215f57600080fd5b61216a848285612d9d565b509392505050565b600081359050612181816134ac565b92915050565b600081359050612196816134c3565b92915050565b6000813590506121ab816134da565b92915050565b6000813590506121c0816134f1565b92915050565b6000815190506121d5816134f1565b92915050565b600082601f8301126121ec57600080fd5b81356121fc848260208601612134565b91505092915050565b60008135905061221481613508565b92915050565b60006020828403121561222c57600080fd5b600061223a84828501612172565b91505092915050565b6000806040838503121561225657600080fd5b600061226485828601612172565b925050602061227585828601612172565b9150509250929050565b60008060006060848603121561229457600080fd5b60006122a286828701612172565b93505060206122b386828701612172565b92505060406122c486828701612205565b9150509250925092565b600080600080608085870312156122e457600080fd5b60006122f287828801612172565b945050602061230387828801612172565b935050604061231487828801612205565b925050606085013567ffffffffffffffff81111561233157600080fd5b61233d878288016121db565b91505092959194509250565b6000806040838503121561235c57600080fd5b600061236a85828601612172565b925050602061237b85828601612187565b9150509250929050565b6000806040838503121561239857600080fd5b60006123a685828601612172565b92505060206123b785828601612205565b9150509250929050565b6000602082840312156123d357600080fd5b60006123e18482850161219c565b91505092915050565b600080604083850312156123fd57600080fd5b600061240b8582860161219c565b925050602061241c85828601612172565b9150509250929050565b60006020828403121561243857600080fd5b6000612446848285016121b1565b91505092915050565b60006020828403121561246157600080fd5b600061246f848285016121c6565b91505092915050565b60006020828403121561248a57600080fd5b600061249884828501612205565b91505092915050565b6124aa81612d1f565b82525050565b6124b981612d31565b82525050565b6124c881612d3d565b82525050565b60006124d982612bc7565b6124e38185612bdd565b93506124f3818560208601612dac565b6124fc81612fa2565b840191505092915050565b600061251282612bd2565b61251c8185612bee565b935061252c818560208601612dac565b61253581612fa2565b840191505092915050565b600061254b82612bd2565b6125558185612bff565b9350612565818560208601612dac565b80840191505092915050565b600061257e602083612bee565b915061258982612fb3565b602082019050919050565b60006125a1603283612bee565b91506125ac82612fdc565b604082019050919050565b60006125c4601c83612bee565b91506125cf8261302b565b602082019050919050565b60006125e7602483612bee565b91506125f282613054565b604082019050919050565b600061260a601983612bee565b9150612615826130a3565b602082019050919050565b600061262d602c83612bee565b9150612638826130cc565b604082019050919050565b6000612650603883612bee565b915061265b8261311b565b604082019050919050565b6000612673602a83612bee565b915061267e8261316a565b604082019050919050565b6000612696602983612bee565b91506126a1826131b9565b604082019050919050565b60006126b9602083612bee565b91506126c482613208565b602082019050919050565b60006126dc603183612bee565b91506126e782613231565b604082019050919050565b60006126ff602c83612bee565b915061270a82613280565b604082019050919050565b6000612722602983612bee565b915061272d826132cf565b604082019050919050565b6000612745602f83612bee565b91506127508261331e565b604082019050919050565b6000612768602183612bee565b91506127738261336d565b604082019050919050565b600061278b603183612bee565b9150612796826133bc565b604082019050919050565b60006127ae601783612bff565b91506127b98261340b565b601782019050919050565b60006127d1601183612bff565b91506127dc82613434565b601182019050919050565b60006127f4602f83612bee565b91506127ff8261345d565b604082019050919050565b61281381612d93565b82525050565b60006128258285612540565b91506128318284612540565b91508190509392505050565b6000612848826127a1565b91506128548285612540565b915061285f826127c4565b915061286b8284612540565b91508190509392505050565b600060208201905061288c60008301846124a1565b92915050565b60006080820190506128a760008301876124a1565b6128b460208301866124a1565b6128c1604083018561280a565b81810360608301526128d381846124ce565b905095945050505050565b60006020820190506128f360008301846124b0565b92915050565b600060208201905061290e60008301846124bf565b92915050565b6000602082019050818103600083015261292e8184612507565b905092915050565b6000602082019050818103600083015261294f81612571565b9050919050565b6000602082019050818103600083015261296f81612594565b9050919050565b6000602082019050818103600083015261298f816125b7565b9050919050565b600060208201905081810360008301526129af816125da565b9050919050565b600060208201905081810360008301526129cf816125fd565b9050919050565b600060208201905081810360008301526129ef81612620565b9050919050565b60006020820190508181036000830152612a0f81612643565b9050919050565b60006020820190508181036000830152612a2f81612666565b9050919050565b60006020820190508181036000830152612a4f81612689565b9050919050565b60006020820190508181036000830152612a6f816126ac565b9050919050565b60006020820190508181036000830152612a8f816126cf565b9050919050565b60006020820190508181036000830152612aaf816126f2565b9050919050565b60006020820190508181036000830152612acf81612715565b9050919050565b60006020820190508181036000830152612aef81612738565b9050919050565b60006020820190508181036000830152612b0f8161275b565b9050919050565b60006020820190508181036000830152612b2f8161277e565b9050919050565b60006020820190508181036000830152612b4f816127e7565b9050919050565b6000602082019050612b6b600083018461280a565b92915050565b6000612b7b612b8c565b9050612b878282612e3b565b919050565b6000604051905090565b600067ffffffffffffffff821115612bb157612bb0612f73565b5b612bba82612fa2565b9050602081019050919050565b600081519050919050565b600081519050919050565b600082825260208201905092915050565b600082825260208201905092915050565b600081905092915050565b6000612c1582612d93565b9150612c2083612d93565b9250827fffffffffffffffffffffffffffffffffffffffffffffffffffffffffffffffff03821115612c5557612c54612ee6565b5b828201905092915050565b6000612c6b82612d93565b9150612c7683612d93565b925082612c8657612c85612f15565b5b828204905092915050565b6000612c9c82612d93565b9150612ca783612d93565b9250817fffffffffffffffffffffffffffffffffffffffffffffffffffffffffffffffff0483118215151615612ce057612cdf612ee6565b5b828202905092915050565b6000612cf682612d93565b9150612d0183612d93565b925082821015612d1457612d13612ee6565b5b828203905092915050565b6000612d2a82612d73565b9050919050565b60008115159050919050565b6000819050919050565b60007fffffffff0000000000000000000000000000000000000000000000000000000082169050919050565b600073ffffffffffffffffffffffffffffffffffffffff82169050919050565b6000819050919050565b82818337600083830152505050565b60005b83811015612dca578082015181840152602081019050612daf565b83811115612dd9576000848401525b50505050565b6000612dea82612d93565b91506000821415612dfe57612dfd612ee6565b5b600182039050919050565b60006002820490506001821680612e2157607f821691505b60208210811415612e3557612e34612f44565b5b50919050565b612e4482612fa2565b810181811067ffffffffffffffff82111715612e6357612e62612f73565b5b80604052505050565b6000612e7782612d93565b91507fffffffffffffffffffffffffffffffffffffffffffffffffffffffffffffffff821415612eaa57612ea9612ee6565b5b600182019050919050565b6000612ec082612d93565b9150612ecb83612d93565b925082612edb57612eda612f15565b5b828206905092915050565b7f4e487b7100000000000000000000000000000000000000000000000000000000600052601160045260246000fd5b7f4e487b7100000000000000000000000000000000000000000000000000000000600052601260045260246000fd5b7f4e487b7100000000000000000000000000000000000000000000000000000000600052602260045260246000fd5b7f4e487b7100000000000000000000000000000000000000000000000000000000600052604160045260246000fd5b6000601f19601f8301169050919050565b7f537472696e67733a20686578206c656e67746820696e73756666696369656e74600082015250565b7f4552433732313a207472616e7366657220746f206e6f6e20455243373231526560008201527f63656976657220696d706c656d656e7465720000000000000000000000000000602082015250565b7f4552433732313a20746f6b656e20616c7265616479206d696e74656400000000600082015250565b7f4552433732313a207472616e7366657220746f20746865207a65726f2061646460008201527f7265737300000000000000000000000000000000000000000000000000000000602082015250565b7f4552433732313a20617070726f766520746f2063616c6c657200000000000000600082015250565b7f4552433732313a206f70657261746f7220717565727920666f72206e6f6e657860008201527f697374656e7420746f6b656e0000000000000000000000000000000000000000602082015250565b7f4552433732313a20617070726f76652063616c6c6572206973206e6f74206f7760008201527f6e6572206e6f7220617070726f76656420666f7220616c6c0000000000000000602082015250565b7f4552433732313a2062616c616e636520717565727920666f7220746865207a6560008201527f726f206164647265737300000000000000000000000000000000000000000000602082015250565b7f4552433732313a206f776e657220717565727920666f72206e6f6e657869737460008201527f656e7420746f6b656e0000000000000000000000000000000000000000000000602082015250565b7f4552433732313a206d696e7420746f20746865207a65726f2061646472657373600082015250565b7f45524337323155524953746f726167653a2055524920717565727920666f722060008201527f6e6f6e6578697374656e7420746f6b656e000000000000000000000000000000602082015250565b7f4552433732313a20617070726f76656420717565727920666f72206e6f6e657860008201527f697374656e7420746f6b656e0000000000000000000000000000000000000000602082015250565b7f4552433732313a207472616e73666572206f6620746f6b656e2074686174206960008201527f73206e6f74206f776e0000000000000000000000000000000000000000000000602082015250565b7f4552433732314d657461646174613a2055524920717565727920666f72206e6f60008201527f6e6578697374656e7420746f6b656e0000000000000000000000000000000000602082015250565b7f4552433732313a20617070726f76616c20746f2063757272656e74206f776e6560008201527f7200000000000000000000000000000000000000000000000000000000000000602082015250565b7f4552433732313a207472616e736665722063616c6c6572206973206e6f74206f60008201527f776e6572206e6f7220617070726f766564000000000000000000000000000000602082015250565b7f416363657373436f6e74726f6c3a206163636f756e7420000000000000000000600082015250565b7f206973206d697373696e6720726f6c6520000000000000000000000000000000600082015250565b7f416363657373436f6e74726f6c3a2063616e206f6e6c792072656e6f756e636560008201527f20726f6c657320666f722073656c660000000000000000000000000000000000602082015250565b6134b581612d1f565b81146134c057600080fd5b50565b6134cc81612d31565b81146134d757600080fd5b50565b6134e381612d3d565b81146134ee57600080fd5b50565b6134fa81612d47565b811461350557600080fd5b50565b61351181612d93565b811461351c57600080fd5b5056fea26469706673582212204a134078003ae2fdb152a609cf038c840c5fec5bfbcb814577e914c8cbb9b59864736f6c63430008020033",
  "immutableReferences": {},
  "source": "// SPDX-License-Identifier: MIT\npragma solidity ^0.8.2;\n\nimport \"@openzeppelin/contracts/token/ERC721/ERC721.sol\";\nimport \"@openzeppelin/contracts/token/ERC721/extensions/ERC721URIStorage.sol\";\nimport \"@openzeppelin/contracts/access/AccessControl.sol\";\nimport \"@openzeppelin/contracts/utils/Counters.sol\";\n\ncontract ComAggNFT is ERC721, ERC721URIStorage, AccessControl {\n    using Counters for Counters.Counter;\n\n    bytes32 public constant MINTER_ROLE = keccak256(\"MINTER_ROLE\");\n    Counters.Counter private _tokenIdCounter;\n\n    constructor() ERC721(\"CommunitiesNFT\", \"CAN\") {\n        _setupRole(DEFAULT_ADMIN_ROLE, msg.sender);\n        _setupRole(MINTER_ROLE, msg.sender);\n    }\n\n    function _baseURI() internal pure override returns (string memory) {\n        return \"https://aisthisi.art/metadata/\";\n    }\n\n    function safeMint(address to) public onlyRole(MINTER_ROLE) {\n        _safeMint(to, _tokenIdCounter.current());\n        _tokenIdCounter.increment();\n    }\n\n    // The following functions are overrides required by Solidity.\n\n    function _burn(uint256 tokenId) internal override(ERC721, ERC721URIStorage) {\n        super._burn(tokenId);\n    }\n\n    function tokenURI(uint256 tokenId)\n        public\n        view\n        override(ERC721, ERC721URIStorage)\n        returns (string memory)\n    {\n        return super.tokenURI(tokenId);\n    }\n\n    function supportsInterface(bytes4 interfaceId)\n        public\n        view\n        override(ERC721, AccessControl)\n        returns (bool)\n    {\n        return super.supportsInterface(interfaceId);\n    }\n}",
  "sourcePath": "/mnt/c/Users/Max/GitHub/blockchain-developer-bootcamp-final-project/contracts/CommunitiesNFT.sol",
  "compiler": {
    "name": "solc",
    "version": "0.8.2+commit.661d1103.Emscripten.clang"
  },
  "schemaVersion": "3.4.3",
  "updatedAt": "2021-11-02T18:05:23.887Z",
  "devdoc": {
    "kind": "dev",
    "methods": {
      "approve(address,uint256)": {
        "details": "See {IERC721-approve}."
      },
      "balanceOf(address)": {
        "details": "See {IERC721-balanceOf}."
      },
      "getApproved(uint256)": {
        "details": "See {IERC721-getApproved}."
      },
      "getRoleAdmin(bytes32)": {
        "details": "Returns the admin role that controls `role`. See {grantRole} and {revokeRole}. To change a role's admin, use {_setRoleAdmin}."
      },
      "grantRole(bytes32,address)": {
        "details": "Grants `role` to `account`. If `account` had not been already granted `role`, emits a {RoleGranted} event. Requirements: - the caller must have ``role``'s admin role."
      },
      "hasRole(bytes32,address)": {
        "details": "Returns `true` if `account` has been granted `role`."
      },
      "isApprovedForAll(address,address)": {
        "details": "See {IERC721-isApprovedForAll}."
      },
      "name()": {
        "details": "See {IERC721Metadata-name}."
      },
      "ownerOf(uint256)": {
        "details": "See {IERC721-ownerOf}."
      },
      "renounceRole(bytes32,address)": {
        "details": "Revokes `role` from the calling account. Roles are often managed via {grantRole} and {revokeRole}: this function's purpose is to provide a mechanism for accounts to lose their privileges if they are compromised (such as when a trusted device is misplaced). If the calling account had been granted `role`, emits a {RoleRevoked} event. Requirements: - the caller must be `account`."
      },
      "revokeRole(bytes32,address)": {
        "details": "Revokes `role` from `account`. If `account` had been granted `role`, emits a {RoleRevoked} event. Requirements: - the caller must have ``role``'s admin role."
      },
      "safeTransferFrom(address,address,uint256)": {
        "details": "See {IERC721-safeTransferFrom}."
      },
      "safeTransferFrom(address,address,uint256,bytes)": {
        "details": "See {IERC721-safeTransferFrom}."
      },
      "setApprovalForAll(address,bool)": {
        "details": "See {IERC721-setApprovalForAll}."
      },
      "symbol()": {
        "details": "See {IERC721Metadata-symbol}."
      },
      "transferFrom(address,address,uint256)": {
        "details": "See {IERC721-transferFrom}."
      }
    },
    "version": 1
  },
  "userdoc": {
    "kind": "user",
    "methods": {},
    "version": 1
  }
}