{
  "contractName": "CommunitiesNFT",
  "abi": [
    {
      "inputs": [
        {
          "internalType": "string",
          "name": "_name",
          "type": "string"
        },
        {
          "internalType": "string",
          "name": "_symbol",
          "type": "string"
        }
      ],
      "stateMutability": "nonpayable",
      "type": "constructor"
    },
    {
      "anonymous": false,
      "inputs": [
        {
          "indexed": true,
          "internalType": "address",
          "name": "owner",
          "type": "address"
        },
        {
          "indexed": true,
          "internalType": "address",
          "name": "approved",
          "type": "address"
        },
        {
          "indexed": true,
          "internalType": "uint256",
          "name": "tokenId",
          "type": "uint256"
        }
      ],
      "name": "Approval",
      "type": "event"
    },
    {
      "anonymous": false,
      "inputs": [
        {
          "indexed": true,
          "internalType": "address",
          "name": "owner",
          "type": "address"
        },
        {
          "indexed": true,
          "internalType": "address",
          "name": "operator",
          "type": "address"
        },
        {
          "indexed": false,
          "internalType": "bool",
          "name": "approved",
          "type": "bool"
        }
      ],
      "name": "ApprovalForAll",
      "type": "event"
    },
    {
      "anonymous": false,
      "inputs": [
        {
          "indexed": false,
          "internalType": "uint256",
          "name": "newAmountToMint",
          "type": "uint256"
        }
      ],
      "name": "LogAmountToMint",
      "type": "event"
    },
    {
      "anonymous": false,
      "inputs": [
        {
          "indexed": false,
          "internalType": "address",
          "name": "sender",
          "type": "address"
        },
        {
          "indexed": false,
          "internalType": "uint256",
          "name": "tokenId",
          "type": "uint256"
        }
      ],
      "name": "NewNFTMinted",
      "type": "event"
    },
    {
      "anonymous": false,
      "inputs": [
        {
          "indexed": true,
          "internalType": "address",
          "name": "previousOwner",
          "type": "address"
        },
        {
          "indexed": true,
          "internalType": "address",
          "name": "newOwner",
          "type": "address"
        }
      ],
      "name": "OwnershipTransferred",
      "type": "event"
    },
    {
      "anonymous": false,
      "inputs": [
        {
          "indexed": true,
          "internalType": "address",
          "name": "from",
          "type": "address"
        },
        {
          "indexed": true,
          "internalType": "address",
          "name": "to",
          "type": "address"
        },
        {
          "indexed": true,
          "internalType": "uint256",
          "name": "tokenId",
          "type": "uint256"
        }
      ],
      "name": "Transfer",
      "type": "event"
    },
    {
      "inputs": [
        {
          "internalType": "address",
          "name": "to",
          "type": "address"
        },
        {
          "internalType": "uint256",
          "name": "tokenId",
          "type": "uint256"
        }
      ],
      "name": "approve",
      "outputs": [],
      "stateMutability": "nonpayable",
      "type": "function"
    },
    {
      "inputs": [
        {
          "internalType": "address",
          "name": "owner",
          "type": "address"
        }
      ],
      "name": "balanceOf",
      "outputs": [
        {
          "internalType": "uint256",
          "name": "",
          "type": "uint256"
        }
      ],
      "stateMutability": "view",
      "type": "function"
    },
    {
      "inputs": [],
      "name": "cost",
      "outputs": [
        {
          "internalType": "uint256",
          "name": "",
          "type": "uint256"
        }
      ],
      "stateMutability": "view",
      "type": "function"
    },
    {
      "inputs": [
        {
          "internalType": "uint256",
          "name": "tokenId",
          "type": "uint256"
        }
      ],
      "name": "getApproved",
      "outputs": [
        {
          "internalType": "address",
          "name": "",
          "type": "address"
        }
      ],
      "stateMutability": "view",
      "type": "function"
    },
    {
      "inputs": [
        {
          "internalType": "address",
          "name": "owner",
          "type": "address"
        },
        {
          "internalType": "address",
          "name": "operator",
          "type": "address"
        }
      ],
      "name": "isApprovedForAll",
      "outputs": [
        {
          "internalType": "bool",
          "name": "",
          "type": "bool"
        }
      ],
      "stateMutability": "view",
      "type": "function"
    },
    {
      "inputs": [],
      "name": "maxSupply",
      "outputs": [
        {
          "internalType": "uint256",
          "name": "",
          "type": "uint256"
        }
      ],
      "stateMutability": "view",
      "type": "function"
    },
    {
      "inputs": [],
      "name": "name",
      "outputs": [
        {
          "internalType": "string",
          "name": "",
          "type": "string"
        }
      ],
      "stateMutability": "view",
      "type": "function"
    },
    {
      "inputs": [],
      "name": "owner",
      "outputs": [
        {
          "internalType": "address",
          "name": "",
          "type": "address"
        }
      ],
      "stateMutability": "view",
      "type": "function"
    },
    {
      "inputs": [
        {
          "internalType": "uint256",
          "name": "tokenId",
          "type": "uint256"
        }
      ],
      "name": "ownerOf",
      "outputs": [
        {
          "internalType": "address",
          "name": "",
          "type": "address"
        }
      ],
      "stateMutability": "view",
      "type": "function"
    },
    {
      "inputs": [],
      "name": "paused",
      "outputs": [
        {
          "internalType": "bool",
          "name": "",
          "type": "bool"
        }
      ],
      "stateMutability": "view",
      "type": "function"
    },
    {
      "inputs": [],
      "name": "renounceOwnership",
      "outputs": [],
      "stateMutability": "nonpayable",
      "type": "function"
    },
    {
      "inputs": [
        {
          "internalType": "address",
          "name": "from",
          "type": "address"
        },
        {
          "internalType": "address",
          "name": "to",
          "type": "address"
        },
        {
          "internalType": "uint256",
          "name": "tokenId",
          "type": "uint256"
        }
      ],
      "name": "safeTransferFrom",
      "outputs": [],
      "stateMutability": "nonpayable",
      "type": "function"
    },
    {
      "inputs": [
        {
          "internalType": "address",
          "name": "from",
          "type": "address"
        },
        {
          "internalType": "address",
          "name": "to",
          "type": "address"
        },
        {
          "internalType": "uint256",
          "name": "tokenId",
          "type": "uint256"
        },
        {
          "internalType": "bytes",
          "name": "_data",
          "type": "bytes"
        }
      ],
      "name": "safeTransferFrom",
      "outputs": [],
      "stateMutability": "nonpayable",
      "type": "function"
    },
    {
      "inputs": [
        {
          "internalType": "address",
          "name": "operator",
          "type": "address"
        },
        {
          "internalType": "bool",
          "name": "approved",
          "type": "bool"
        }
      ],
      "name": "setApprovalForAll",
      "outputs": [],
      "stateMutability": "nonpayable",
      "type": "function"
    },
    {
      "inputs": [
        {
          "internalType": "bytes4",
          "name": "interfaceId",
          "type": "bytes4"
        }
      ],
      "name": "supportsInterface",
      "outputs": [
        {
          "internalType": "bool",
          "name": "",
          "type": "bool"
        }
      ],
      "stateMutability": "view",
      "type": "function"
    },
    {
      "inputs": [],
      "name": "symbol",
      "outputs": [
        {
          "internalType": "string",
          "name": "",
          "type": "string"
        }
      ],
      "stateMutability": "view",
      "type": "function"
    },
    {
      "inputs": [
        {
          "internalType": "uint256",
          "name": "tokenId",
          "type": "uint256"
        }
      ],
      "name": "tokenURI",
      "outputs": [
        {
          "internalType": "string",
          "name": "",
          "type": "string"
        }
      ],
      "stateMutability": "view",
      "type": "function"
    },
    {
      "inputs": [
        {
          "internalType": "address",
          "name": "from",
          "type": "address"
        },
        {
          "internalType": "address",
          "name": "to",
          "type": "address"
        },
        {
          "internalType": "uint256",
          "name": "tokenId",
          "type": "uint256"
        }
      ],
      "name": "transferFrom",
      "outputs": [],
      "stateMutability": "nonpayable",
      "type": "function"
    },
    {
      "inputs": [
        {
          "internalType": "address",
          "name": "newOwner",
          "type": "address"
        }
      ],
      "name": "transferOwnership",
      "outputs": [],
      "stateMutability": "nonpayable",
      "type": "function"
    },
    {
      "inputs": [
        {
          "internalType": "address",
          "name": "",
          "type": "address"
        }
      ],
      "name": "whitelisted",
      "outputs": [
        {
          "internalType": "bool",
          "name": "",
          "type": "bool"
        }
      ],
      "stateMutability": "view",
      "type": "function"
    },
    {
      "inputs": [
        {
          "internalType": "uint256",
          "name": "tokenId",
          "type": "uint256"
        }
      ],
      "name": "pickRandomWord",
      "outputs": [
        {
          "internalType": "string",
          "name": "",
          "type": "string"
        }
      ],
      "stateMutability": "view",
      "type": "function"
    },
    {
      "inputs": [
        {
          "internalType": "address",
          "name": "_to",
          "type": "address"
        }
      ],
      "name": "mint",
      "outputs": [],
      "stateMutability": "payable",
      "type": "function"
    },
    {
      "inputs": [
        {
          "internalType": "uint256",
          "name": "_newCost",
          "type": "uint256"
        }
      ],
      "name": "setCost",
      "outputs": [],
      "stateMutability": "nonpayable",
      "type": "function"
    },
    {
      "inputs": [
        {
          "internalType": "bool",
          "name": "_state",
          "type": "bool"
        }
      ],
      "name": "pause",
      "outputs": [],
      "stateMutability": "nonpayable",
      "type": "function"
    },
    {
      "inputs": [
        {
          "internalType": "address",
          "name": "_user",
          "type": "address"
        }
      ],
      "name": "whitelistUser",
      "outputs": [],
      "stateMutability": "nonpayable",
      "type": "function"
    },
    {
      "inputs": [
        {
          "internalType": "address",
          "name": "_user",
          "type": "address"
        }
      ],
      "name": "removeWhitelistUser",
      "outputs": [],
      "stateMutability": "nonpayable",
      "type": "function"
    },
    {
      "inputs": [],
      "name": "withdraw",
      "outputs": [],
      "stateMutability": "payable",
      "type": "function"
    }
  ],
  "bytecode": "0x6080604052662386f26fc100006008556127106009556000600a60006101000a81548160ff02191690831515021790555060405180610160016040528061012f81526020016200475661012f9139600c9080519060200190620000649291906200042f565b506040518061014001604052806040518060400160405280600981526020017f446166742050756e6b000000000000000000000000000000000000000000000081525081526020016040518060400160405280600981526020017f546f6d205065747479000000000000000000000000000000000000000000000081525081526020016040518060400160405280600b81526020017f417263616465204669726500000000000000000000000000000000000000000081525081526020016040518060400160405280600b81526020017f5265616c2045737461746500000000000000000000000000000000000000000081525081526020016040518060400160405280601181526020017f4d79204d6f726e696e67204a61636b657400000000000000000000000000000081525081526020016040518060400160405280600d81526020017f4c6f63616c204e6174697665730000000000000000000000000000000000000081525081526020016040518060400160405280600b81526020017f467275697473204261747300000000000000000000000000000000000000000081525081526020016040518060400160405280600f81526020017f56616d70697265205765656b656e64000000000000000000000000000000000081525081526020016040518060400160405280600681526020017f506978696573000000000000000000000000000000000000000000000000000081525081526020016040518060400160405280601081526020017f506f72747567616c20746865204d616e00000000000000000000000000000000815250815250600d90600a620002cf929190620004c0565b50348015620002dd57600080fd5b506040516200488538038062004885833981810160405281019062000303919062000626565b818181600090805190602001906200031d9291906200042f565b508060019080519060200190620003369291906200042f565b505050620003596200034d6200036160201b60201c565b6200036960201b60201c565b5050620007ca565b600033905090565b6000600760009054906101000a900473ffffffffffffffffffffffffffffffffffffffff16905081600760006101000a81548173ffffffffffffffffffffffffffffffffffffffff021916908373ffffffffffffffffffffffffffffffffffffffff1602179055508173ffffffffffffffffffffffffffffffffffffffff168173ffffffffffffffffffffffffffffffffffffffff167f8be0079c531659141344cd1fd0a4f28419497f9722a3daafe3b4186f6b6457e060405160405180910390a35050565b8280546200043d9062000736565b90600052602060002090601f016020900481019282620004615760008555620004ad565b82601f106200047c57805160ff1916838001178555620004ad565b82800160010185558215620004ad579182015b82811115620004ac5782518255916020019190600101906200048f565b5b509050620004bc919062000527565b5090565b82805482825590600052602060002090810192821562000514579160200282015b8281111562000513578251829080519060200190620005029291906200042f565b5091602001919060010190620004e1565b5b50905062000523919062000546565b5090565b5b808211156200054257600081600090555060010162000528565b5090565b5b808211156200056a57600081816200056091906200056e565b5060010162000547565b5090565b5080546200057c9062000736565b6000825580601f10620005905750620005b1565b601f016020900490600052602060002090810190620005b0919062000527565b5b50565b6000620005cb620005c584620006cd565b62000699565b905082815260208101848484011115620005e457600080fd5b620005f184828562000700565b509392505050565b600082601f8301126200060b57600080fd5b81516200061d848260208601620005b4565b91505092915050565b600080604083850312156200063a57600080fd5b600083015167ffffffffffffffff8111156200065557600080fd5b6200066385828601620005f9565b925050602083015167ffffffffffffffff8111156200068157600080fd5b6200068f85828601620005f9565b9150509250929050565b6000604051905081810181811067ffffffffffffffff82111715620006c357620006c26200079b565b5b8060405250919050565b600067ffffffffffffffff821115620006eb57620006ea6200079b565b5b601f19601f8301169050602081019050919050565b60005b838110156200072057808201518184015260208101905062000703565b8381111562000730576000848401525b50505050565b600060028204905060018216806200074f57607f821691505b602082108114156200076657620007656200076c565b5b50919050565b7f4e487b7100000000000000000000000000000000000000000000000000000000600052602260045260246000fd5b7f4e487b7100000000000000000000000000000000000000000000000000000000600052604160045260246000fd5b613f7c80620007da6000396000f3fe60806040526004361061019c5760003560e01c80635c975abb116100ec578063a22cb4651161008a578063d5abeb0111610064578063d5abeb0114610594578063d936547e146105bf578063e985e9c5146105fc578063f2fde38b146106395761019c565b8063a22cb46514610505578063b88d4fde1461052e578063c87b56dd146105575761019c565b806370a08231116100c657806370a082311461045b578063715018a6146104985780638da5cb5b146104af57806395d89b41146104da5761019c565b80635c975abb146103d75780636352211e146104025780636a6278421461043f5761019c565b806323b872dd116101595780633e1831dd116101335780633e1831dd1461031f57806342842e0e1461035c57806344a0d68a146103855780634a4c560d146103ae5761019c565b806323b872dd146102c357806330cc7ae0146102ec5780633ccfd60b146103155761019c565b806301ffc9a7146101a157806302329a29146101de57806306fdde0314610207578063081812fc14610232578063095ea7b31461026f57806313faede614610298575b600080fd5b3480156101ad57600080fd5b506101c860048036038101906101c39190612ba8565b610662565b6040516101d591906137d5565b60405180910390f35b3480156101ea57600080fd5b5061020560048036038101906102009190612b7f565b610744565b005b34801561021357600080fd5b5061021c6107dd565b60405161022991906137f0565b60405180910390f35b34801561023e57600080fd5b5061025960048036038101906102549190612bfa565b61086f565b6040516102669190613745565b60405180910390f35b34801561027b57600080fd5b5061029660048036038101906102919190612b43565b6108f4565b005b3480156102a457600080fd5b506102ad610a0c565b6040516102ba9190613a92565b60405180910390f35b3480156102cf57600080fd5b506102ea60048036038101906102e59190612a3d565b610a12565b005b3480156102f857600080fd5b50610313600480360381019061030e91906129d8565b610a72565b005b61031d610b49565b005b34801561032b57600080fd5b5061034660048036038101906103419190612bfa565b610c05565b60405161035391906137f0565b60405180910390f35b34801561036857600080fd5b50610383600480360381019061037e9190612a3d565b610d23565b005b34801561039157600080fd5b506103ac60048036038101906103a79190612bfa565b610d43565b005b3480156103ba57600080fd5b506103d560048036038101906103d091906129d8565b610dc9565b005b3480156103e357600080fd5b506103ec610ea0565b6040516103f991906137d5565b60405180910390f35b34801561040e57600080fd5b5061042960048036038101906104249190612bfa565b610eb3565b6040516104369190613745565b60405180910390f35b610459600480360381019061045491906129d8565b610f65565b005b34801561046757600080fd5b50610482600480360381019061047d91906129d8565b61123f565b60405161048f9190613a92565b60405180910390f35b3480156104a457600080fd5b506104ad6112f7565b005b3480156104bb57600080fd5b506104c461137f565b6040516104d19190613745565b60405180910390f35b3480156104e657600080fd5b506104ef6113a9565b6040516104fc91906137f0565b60405180910390f35b34801561051157600080fd5b5061052c60048036038101906105279190612b07565b61143b565b005b34801561053a57600080fd5b5061055560048036038101906105509190612a8c565b6115bc565b005b34801561056357600080fd5b5061057e60048036038101906105799190612bfa565b61161e565b60405161058b91906137f0565b60405180910390f35b3480156105a057600080fd5b506105a9611770565b6040516105b69190613a92565b60405180910390f35b3480156105cb57600080fd5b506105e660048036038101906105e191906129d8565b611776565b6040516105f391906137d5565b60405180910390f35b34801561060857600080fd5b50610623600480360381019061061e9190612a01565b611796565b60405161063091906137d5565b60405180910390f35b34801561064557600080fd5b50610660600480360381019061065b91906129d8565b61182a565b005b60007f80ac58cd000000000000000000000000000000000000000000000000000000007bffffffffffffffffffffffffffffffffffffffffffffffffffffffff1916827bffffffffffffffffffffffffffffffffffffffffffffffffffffffff1916148061072d57507f5b5e139f000000000000000000000000000000000000000000000000000000007bffffffffffffffffffffffffffffffffffffffffffffffffffffffff1916827bffffffffffffffffffffffffffffffffffffffffffffffffffffffff1916145b8061073d575061073c82611922565b5b9050919050565b61074c61198c565b73ffffffffffffffffffffffffffffffffffffffff1661076a61137f565b73ffffffffffffffffffffffffffffffffffffffff16146107c0576040517f08c379a00000000000000000000000000000000000000000000000000000000081526004016107b7906139b2565b60405180910390fd5b80600a60006101000a81548160ff02191690831515021790555050565b6060600080546107ec90613d31565b80601f016020809104026020016040519081016040528092919081815260200182805461081890613d31565b80156108655780601f1061083a57610100808354040283529160200191610865565b820191906000526020600020905b81548152906001019060200180831161084857829003601f168201915b5050505050905090565b600061087a82611994565b6108b9576040517f08c379a00000000000000000000000000000000000000000000000000000000081526004016108b090613992565b60405180910390fd5b6004600083815260200190815260200160002060009054906101000a900473ffffffffffffffffffffffffffffffffffffffff169050919050565b60006108ff82610eb3565b90508073ffffffffffffffffffffffffffffffffffffffff168373ffffffffffffffffffffffffffffffffffffffff161415610970576040517f08c379a000000000000000000000000000000000000000000000000000000000815260040161096790613a12565b60405180910390fd5b8073ffffffffffffffffffffffffffffffffffffffff1661098f61198c565b73ffffffffffffffffffffffffffffffffffffffff1614806109be57506109bd816109b861198c565b611796565b5b6109fd576040517f08c379a00000000000000000000000000000000000000000000000000000000081526004016109f4906138d2565b60405180910390fd5b610a078383611a00565b505050565b60085481565b610a23610a1d61198c565b82611ab9565b610a62576040517f08c379a0000000000000000000000000000000000000000000000000000000008152600401610a5990613a52565b60405180910390fd5b610a6d838383611b97565b505050565b610a7a61198c565b73ffffffffffffffffffffffffffffffffffffffff16610a9861137f565b73ffffffffffffffffffffffffffffffffffffffff1614610aee576040517f08c379a0000000000000000000000000000000000000000000000000000000008152600401610ae5906139b2565b60405180910390fd5b6000600e60008373ffffffffffffffffffffffffffffffffffffffff1673ffffffffffffffffffffffffffffffffffffffff16815260200190815260200160002060006101000a81548160ff02191690831515021790555050565b610b5161198c565b73ffffffffffffffffffffffffffffffffffffffff16610b6f61137f565b73ffffffffffffffffffffffffffffffffffffffff1614610bc5576040517f08c379a0000000000000000000000000000000000000000000000000000000008152600401610bbc906139b2565b60405180910390fd5b3373ffffffffffffffffffffffffffffffffffffffff166108fc479081150290604051600060405180830381858888f19350505050610c0357600080fd5b565b60606000610c39610c1584611df3565b604051602001610c259190613701565b604051602081830303815290604052611fa0565b9050600d8054905081610c4c9190613dac565b9050600d8181548110610c88577f4e487b7100000000000000000000000000000000000000000000000000000000600052603260045260246000fd5b906000526020600020018054610c9d90613d31565b80601f0160208091040260200160405190810160405280929190818152602001828054610cc990613d31565b8015610d165780601f10610ceb57610100808354040283529160200191610d16565b820191906000526020600020905b815481529060010190602001808311610cf957829003601f168201915b5050505050915050919050565b610d3e838383604051806020016040528060008152506115bc565b505050565b610d4b61198c565b73ffffffffffffffffffffffffffffffffffffffff16610d6961137f565b73ffffffffffffffffffffffffffffffffffffffff1614610dbf576040517f08c379a0000000000000000000000000000000000000000000000000000000008152600401610db6906139b2565b60405180910390fd5b8060088190555050565b610dd161198c565b73ffffffffffffffffffffffffffffffffffffffff16610def61137f565b73ffffffffffffffffffffffffffffffffffffffff1614610e45576040517f08c379a0000000000000000000000000000000000000000000000000000000008152600401610e3c906139b2565b60405180910390fd5b6001600e60008373ffffffffffffffffffffffffffffffffffffffff1673ffffffffffffffffffffffffffffffffffffffff16815260200190815260200160002060006101000a81548160ff02191690831515021790555050565b600a60009054906101000a900460ff1681565b6000806002600084815260200190815260200160002060009054906101000a900473ffffffffffffffffffffffffffffffffffffffff169050600073ffffffffffffffffffffffffffffffffffffffff168173ffffffffffffffffffffffffffffffffffffffff161415610f5c576040517f08c379a0000000000000000000000000000000000000000000000000000000008152600401610f5390613912565b60405180910390fd5b80915050919050565b600a60009054906101000a900460ff1615610f7f57600080fd5b600954610f8a611fd3565b610f94600b612038565b610f9e9190613b66565b1115610fdf576040517f08c379a0000000000000000000000000000000000000000000000000000000008152600401610fd690613a32565b60405180910390fd5b600e60003373ffffffffffffffffffffffffffffffffffffffff1673ffffffffffffffffffffffffffffffffffffffff16815260200190815260200160002060009054906101000a900460ff1661106b576040517f08c379a000000000000000000000000000000000000000000000000000000000815260040161106290613a72565b60405180910390fd5b6000611075611fd3565b905061107f61137f565b73ffffffffffffffffffffffffffffffffffffffff163373ffffffffffffffffffffffffffffffffffffffff16146111255760011515600e60003373ffffffffffffffffffffffffffffffffffffffff1673ffffffffffffffffffffffffffffffffffffffff16815260200190815260200160002060009054906101000a900460ff1615151461112457806008546111179190613bed565b34101561112357600080fd5b5b5b6000611131600b612038565b905060005b82811161120057600061114883610c05565b90506000600c8260405160200161116092919061368d565b604051602081830303815290604052905060006111a58361118084612046565b6040516020016111919291906136bc565b604051602081830303815290604052612046565b90506000816040516020016111ba9190613723565b60405160208183030381529060405290506111d53387612204565b6111df8682612222565b6111e9600b612296565b5050505080806111f890613d63565b915050611136565b507f1c05098ed1ff38e6238d2b1b04b2c7977d4c94ce651bda6473f9dba8dbf01da033826040516112329291906137ac565b60405180910390a1505050565b60008073ffffffffffffffffffffffffffffffffffffffff168273ffffffffffffffffffffffffffffffffffffffff1614156112b0576040517f08c379a00000000000000000000000000000000000000000000000000000000081526004016112a7906138f2565b60405180910390fd5b600360008373ffffffffffffffffffffffffffffffffffffffff1673ffffffffffffffffffffffffffffffffffffffff168152602001908152602001600020549050919050565b6112ff61198c565b73ffffffffffffffffffffffffffffffffffffffff1661131d61137f565b73ffffffffffffffffffffffffffffffffffffffff1614611373576040517f08c379a000000000000000000000000000000000000000000000000000000000815260040161136a906139b2565b60405180910390fd5b61137d60006122ac565b565b6000600760009054906101000a900473ffffffffffffffffffffffffffffffffffffffff16905090565b6060600180546113b890613d31565b80601f01602080910402602001604051908101604052809291908181526020018280546113e490613d31565b80156114315780601f1061140657610100808354040283529160200191611431565b820191906000526020600020905b81548152906001019060200180831161141457829003601f168201915b5050505050905090565b61144361198c565b73ffffffffffffffffffffffffffffffffffffffff168273ffffffffffffffffffffffffffffffffffffffff1614156114b1576040517f08c379a00000000000000000000000000000000000000000000000000000000081526004016114a890613892565b60405180910390fd5b80600560006114be61198c565b73ffffffffffffffffffffffffffffffffffffffff1673ffffffffffffffffffffffffffffffffffffffff16815260200190815260200160002060008473ffffffffffffffffffffffffffffffffffffffff1673ffffffffffffffffffffffffffffffffffffffff16815260200190815260200160002060006101000a81548160ff0219169083151502179055508173ffffffffffffffffffffffffffffffffffffffff1661156b61198c565b73ffffffffffffffffffffffffffffffffffffffff167f17307eab39ab6107e8899845ad3d59bd9653f200f220920489ca2b5937696c31836040516115b091906137d5565b60405180910390a35050565b6115cd6115c761198c565b83611ab9565b61160c576040517f08c379a000000000000000000000000000000000000000000000000000000000815260040161160390613a52565b60405180910390fd5b61161884848484612372565b50505050565b606061162982611994565b611668576040517f08c379a000000000000000000000000000000000000000000000000000000000815260040161165f90613972565b60405180910390fd5b600060066000848152602001908152602001600020805461168890613d31565b80601f01602080910402602001604051908101604052809291908181526020018280546116b490613d31565b80156117015780601f106116d657610100808354040283529160200191611701565b820191906000526020600020905b8154815290600101906020018083116116e457829003601f168201915b5050505050905060006117126123ce565b905060008151141561172857819250505061176b565b60008251111561175d578082604051602001611745929190613669565b6040516020818303038152906040529250505061176b565b611766846123e5565b925050505b919050565b60095481565b600e6020528060005260406000206000915054906101000a900460ff1681565b6000600560008473ffffffffffffffffffffffffffffffffffffffff1673ffffffffffffffffffffffffffffffffffffffff16815260200190815260200160002060008373ffffffffffffffffffffffffffffffffffffffff1673ffffffffffffffffffffffffffffffffffffffff16815260200190815260200160002060009054906101000a900460ff16905092915050565b61183261198c565b73ffffffffffffffffffffffffffffffffffffffff1661185061137f565b73ffffffffffffffffffffffffffffffffffffffff16146118a6576040517f08c379a000000000000000000000000000000000000000000000000000000000815260040161189d906139b2565b60405180910390fd5b600073ffffffffffffffffffffffffffffffffffffffff168173ffffffffffffffffffffffffffffffffffffffff161415611916576040517f08c379a000000000000000000000000000000000000000000000000000000000815260040161190d90613832565b60405180910390fd5b61191f816122ac565b50565b60007f01ffc9a7000000000000000000000000000000000000000000000000000000007bffffffffffffffffffffffffffffffffffffffffffffffffffffffff1916827bffffffffffffffffffffffffffffffffffffffffffffffffffffffff1916149050919050565b600033905090565b60008073ffffffffffffffffffffffffffffffffffffffff166002600084815260200190815260200160002060009054906101000a900473ffffffffffffffffffffffffffffffffffffffff1673ffffffffffffffffffffffffffffffffffffffff1614159050919050565b816004600083815260200190815260200160002060006101000a81548173ffffffffffffffffffffffffffffffffffffffff021916908373ffffffffffffffffffffffffffffffffffffffff160217905550808273ffffffffffffffffffffffffffffffffffffffff16611a7383610eb3565b73ffffffffffffffffffffffffffffffffffffffff167f8c5be1e5ebec7d5bd14f71427d1e84f3dd0314c0f7b2291e5b200ac8c7c3b92560405160405180910390a45050565b6000611ac482611994565b611b03576040517f08c379a0000000000000000000000000000000000000000000000000000000008152600401611afa906138b2565b60405180910390fd5b6000611b0e83610eb3565b90508073ffffffffffffffffffffffffffffffffffffffff168473ffffffffffffffffffffffffffffffffffffffff161480611b7d57508373ffffffffffffffffffffffffffffffffffffffff16611b658461086f565b73ffffffffffffffffffffffffffffffffffffffff16145b80611b8e5750611b8d8185611796565b5b91505092915050565b8273ffffffffffffffffffffffffffffffffffffffff16611bb782610eb3565b73ffffffffffffffffffffffffffffffffffffffff1614611c0d576040517f08c379a0000000000000000000000000000000000000000000000000000000008152600401611c04906139d2565b60405180910390fd5b600073ffffffffffffffffffffffffffffffffffffffff168273ffffffffffffffffffffffffffffffffffffffff161415611c7d576040517f08c379a0000000000000000000000000000000000000000000000000000000008152600401611c7490613872565b60405180910390fd5b611c8883838361248c565b611c93600082611a00565b6001600360008573ffffffffffffffffffffffffffffffffffffffff1673ffffffffffffffffffffffffffffffffffffffff1681526020019081526020016000206000828254611ce39190613c47565b925050819055506001600360008473ffffffffffffffffffffffffffffffffffffffff1673ffffffffffffffffffffffffffffffffffffffff1681526020019081526020016000206000828254611d3a9190613b66565b92505081905550816002600083815260200190815260200160002060006101000a81548173ffffffffffffffffffffffffffffffffffffffff021916908373ffffffffffffffffffffffffffffffffffffffff160217905550808273ffffffffffffffffffffffffffffffffffffffff168473ffffffffffffffffffffffffffffffffffffffff167fddf252ad1be2c89b69c2b068fc378daa952ba7f163c4a11628f55a4df523b3ef60405160405180910390a4505050565b60606000821415611e3b576040518060400160405280600181526020017f30000000000000000000000000000000000000000000000000000000000000008152509050611f9b565b600082905060005b60008214611e6d578080611e5690613d63565b915050600a82611e669190613bbc565b9150611e43565b60008167ffffffffffffffff811115611eaf577f4e487b7100000000000000000000000000000000000000000000000000000000600052604160045260246000fd5b6040519080825280601f01601f191660200182016040528015611ee15781602001600182028036833780820191505090505b5090505b60008514611f9457600182611efa9190613c47565b9150600a85611f099190613dac565b6030611f159190613b66565b60f81b818381518110611f51577f4e487b7100000000000000000000000000000000000000000000000000000000600052603260045260246000fd5b60200101907effffffffffffffffffffffffffffffffffffffffffffffffffffffffffffff1916908160001a905350600a85611f8d9190613bbc565b9450611ee5565b8093505050505b919050565b600081604051602001611fb39190613652565b6040516020818303038152906040528051906020012060001c9050919050565b6000806009611fe2600b612038565b6002611fee9190613bed565b611ff89190613b66565b90507fe183cd66cc3f86acd872e22ef3247fbaf8d7d2c80ad391b70ec38de34cd9b042816040516120299190613a92565b60405180910390a18091505090565b600081600001549050919050565b6060600082519050600081141561206f57604051806020016040528060008152509150506121ff565b600060036002836120809190613b66565b61208a9190613bbc565b60046120969190613bed565b905060006020826120a79190613b66565b67ffffffffffffffff8111156120e6577f4e487b7100000000000000000000000000000000000000000000000000000000600052604160045260246000fd5b6040519080825280601f01601f1916602001820160405280156121185781602001600182028036833780820191505090505b5090506000604051806060016040528060408152602001613f07604091399050600181016020830160005b868110156121bc5760038101905062ffffff818a015116603f8160121c168401518060081b905060ff603f83600c1c1686015116810190508060081b905060ff603f8360061c1686015116810190508060081b905060ff603f831686015116810190508060e01b90508084526004840193505050612143565b5060038606600181146121d657600281146121e6576121f1565b613d3d60f01b60028303526121f1565b603d60f81b60018303525b508484525050819450505050505b919050565b61221e828260405180602001604052806000815250612491565b5050565b61222b82611994565b61226a576040517f08c379a000000000000000000000000000000000000000000000000000000000815260040161226190613932565b60405180910390fd5b80600660008481526020019081526020016000209080519060200190612291929190612864565b505050565b6001816000016000828254019250508190555050565b6000600760009054906101000a900473ffffffffffffffffffffffffffffffffffffffff16905081600760006101000a81548173ffffffffffffffffffffffffffffffffffffffff021916908373ffffffffffffffffffffffffffffffffffffffff1602179055508173ffffffffffffffffffffffffffffffffffffffff168173ffffffffffffffffffffffffffffffffffffffff167f8be0079c531659141344cd1fd0a4f28419497f9722a3daafe3b4186f6b6457e060405160405180910390a35050565b61237d848484611b97565b612389848484846124ec565b6123c8576040517f08c379a00000000000000000000000000000000000000000000000000000000081526004016123bf90613812565b60405180910390fd5b50505050565b606060405180602001604052806000815250905090565b60606123f082611994565b61242f576040517f08c379a0000000000000000000000000000000000000000000000000000000008152600401612426906139f2565b60405180910390fd5b60006124396123ce565b905060008151116124595760405180602001604052806000815250612484565b8061246384611df3565b604051602001612474929190613669565b6040516020818303038152906040525b915050919050565b505050565b61249b8383612683565b6124a860008484846124ec565b6124e7576040517f08c379a00000000000000000000000000000000000000000000000000000000081526004016124de90613812565b60405180910390fd5b505050565b600061250d8473ffffffffffffffffffffffffffffffffffffffff16612851565b15612676578373ffffffffffffffffffffffffffffffffffffffff1663150b7a0261253661198c565b8786866040518563ffffffff1660e01b81526004016125589493929190613760565b602060405180830381600087803b15801561257257600080fd5b505af19250505080156125a357506040513d601f19601f820116820180604052508101906125a09190612bd1565b60015b612626573d80600081146125d3576040519150601f19603f3d011682016040523d82523d6000602084013e6125d8565b606091505b5060008151141561261e576040517f08c379a000000000000000000000000000000000000000000000000000000000815260040161261590613812565b60405180910390fd5b805181602001fd5b63150b7a0260e01b7bffffffffffffffffffffffffffffffffffffffffffffffffffffffff1916817bffffffffffffffffffffffffffffffffffffffffffffffffffffffff19161491505061267b565b600190505b949350505050565b600073ffffffffffffffffffffffffffffffffffffffff168273ffffffffffffffffffffffffffffffffffffffff1614156126f3576040517f08c379a00000000000000000000000000000000000000000000000000000000081526004016126ea90613952565b60405180910390fd5b6126fc81611994565b1561273c576040517f08c379a000000000000000000000000000000000000000000000000000000000815260040161273390613852565b60405180910390fd5b6127486000838361248c565b6001600360008473ffffffffffffffffffffffffffffffffffffffff1673ffffffffffffffffffffffffffffffffffffffff16815260200190815260200160002060008282546127989190613b66565b92505081905550816002600083815260200190815260200160002060006101000a81548173ffffffffffffffffffffffffffffffffffffffff021916908373ffffffffffffffffffffffffffffffffffffffff160217905550808273ffffffffffffffffffffffffffffffffffffffff16600073ffffffffffffffffffffffffffffffffffffffff167fddf252ad1be2c89b69c2b068fc378daa952ba7f163c4a11628f55a4df523b3ef60405160405180910390a45050565b600080823b905060008111915050919050565b82805461287090613d31565b90600052602060002090601f01602090048101928261289257600085556128d9565b82601f106128ab57805160ff19168380011785556128d9565b828001600101855582156128d9579182015b828111156128d85782518255916020019190600101906128bd565b5b5090506128e691906128ea565b5090565b5b808211156129035760008160009055506001016128eb565b5090565b600061291a61291584613ade565b613aad565b90508281526020810184848401111561293257600080fd5b61293d848285613cef565b509392505050565b60008135905061295481613eaa565b92915050565b60008135905061296981613ec1565b92915050565b60008135905061297e81613ed8565b92915050565b60008151905061299381613ed8565b92915050565b600082601f8301126129aa57600080fd5b81356129ba848260208601612907565b91505092915050565b6000813590506129d281613eef565b92915050565b6000602082840312156129ea57600080fd5b60006129f884828501612945565b91505092915050565b60008060408385031215612a1457600080fd5b6000612a2285828601612945565b9250506020612a3385828601612945565b9150509250929050565b600080600060608486031215612a5257600080fd5b6000612a6086828701612945565b9350506020612a7186828701612945565b9250506040612a82868287016129c3565b9150509250925092565b60008060008060808587031215612aa257600080fd5b6000612ab087828801612945565b9450506020612ac187828801612945565b9350506040612ad2878288016129c3565b925050606085013567ffffffffffffffff811115612aef57600080fd5b612afb87828801612999565b91505092959194509250565b60008060408385031215612b1a57600080fd5b6000612b2885828601612945565b9250506020612b398582860161295a565b9150509250929050565b60008060408385031215612b5657600080fd5b6000612b6485828601612945565b9250506020612b75858286016129c3565b9150509250929050565b600060208284031215612b9157600080fd5b6000612b9f8482850161295a565b91505092915050565b600060208284031215612bba57600080fd5b6000612bc88482850161296f565b91505092915050565b600060208284031215612be357600080fd5b6000612bf184828501612984565b91505092915050565b600060208284031215612c0c57600080fd5b6000612c1a848285016129c3565b91505092915050565b612c2c81613c7b565b82525050565b612c3b81613c8d565b82525050565b6000612c4c82613b23565b612c568185613b39565b9350612c66818560208601613cfe565b612c6f81613e99565b840191505092915050565b6000612c8582613b2e565b612c8f8185613b4a565b9350612c9f818560208601613cfe565b612ca881613e99565b840191505092915050565b6000612cbe82613b2e565b612cc88185613b5b565b9350612cd8818560208601613cfe565b80840191505092915050565b60008154612cf181613d31565b612cfb8186613b5b565b94506001821660008114612d165760018114612d2757612d5a565b60ff19831686528186019350612d5a565b612d3085613b0e565b60005b83811015612d5257815481890152600182019150602081019050612d33565b838801955050505b50505092915050565b6000612d70603283613b4a565b91507f4552433732313a207472616e7366657220746f206e6f6e20455243373231526560008301527f63656976657220696d706c656d656e74657200000000000000000000000000006020830152604082019050919050565b6000612dd6602683613b4a565b91507f4f776e61626c653a206e6577206f776e657220697320746865207a65726f206160008301527f64647265737300000000000000000000000000000000000000000000000000006020830152604082019050919050565b6000612e3c601c83613b4a565b91507f4552433732313a20746f6b656e20616c7265616479206d696e746564000000006000830152602082019050919050565b6000612e7c602483613b4a565b91507f4552433732313a207472616e7366657220746f20746865207a65726f2061646460008301527f72657373000000000000000000000000000000000000000000000000000000006020830152604082019050919050565b6000612ee2601983613b4a565b91507f4552433732313a20617070726f766520746f2063616c6c6572000000000000006000830152602082019050919050565b6000612f22602c83613b4a565b91507f4552433732313a206f70657261746f7220717565727920666f72206e6f6e657860008301527f697374656e7420746f6b656e00000000000000000000000000000000000000006020830152604082019050919050565b6000612f88600d83613b5b565b91507f3c2f746578743e3c2f7376673e000000000000000000000000000000000000006000830152600d82019050919050565b6000612fc8603883613b4a565b91507f4552433732313a20617070726f76652063616c6c6572206973206e6f74206f7760008301527f6e6572206e6f7220617070726f76656420666f7220616c6c00000000000000006020830152604082019050919050565b600061302e602a83613b4a565b91507f4552433732313a2062616c616e636520717565727920666f7220746865207a6560008301527f726f2061646472657373000000000000000000000000000000000000000000006020830152604082019050919050565b6000613094602983613b4a565b91507f4552433732313a206f776e657220717565727920666f72206e6f6e657869737460008301527f656e7420746f6b656e00000000000000000000000000000000000000000000006020830152604082019050919050565b60006130fa602e83613b4a565b91507f45524337323155524953746f726167653a2055524920736574206f66206e6f6e60008301527f6578697374656e7420746f6b656e0000000000000000000000000000000000006020830152604082019050919050565b6000613160600283613b5b565b91507f227d0000000000000000000000000000000000000000000000000000000000006000830152600282019050919050565b60006131a0602083613b4a565b91507f4552433732313a206d696e7420746f20746865207a65726f20616464726573736000830152602082019050919050565b60006131e0603183613b4a565b91507f45524337323155524953746f726167653a2055524920717565727920666f722060008301527f6e6f6e6578697374656e7420746f6b656e0000000000000000000000000000006020830152604082019050919050565b6000613246602c83613b4a565b91507f4552433732313a20617070726f76656420717565727920666f72206e6f6e657860008301527f697374656e7420746f6b656e00000000000000000000000000000000000000006020830152604082019050919050565b60006132ac602083613b4a565b91507f4f776e61626c653a2063616c6c6572206973206e6f7420746865206f776e65726000830152602082019050919050565b60006132ec602983613b4a565b91507f4552433732313a207472616e73666572206f6620746f6b656e2074686174206960008301527f73206e6f74206f776e00000000000000000000000000000000000000000000006020830152604082019050919050565b6000613352602f83613b4a565b91507f4552433732314d657461646174613a2055524920717565727920666f72206e6f60008301527f6e6578697374656e7420746f6b656e00000000000000000000000000000000006020830152604082019050919050565b60006133b8600a83613b5b565b91507f7b226e616d65223a2022000000000000000000000000000000000000000000006000830152600a82019050919050565b60006133f8602183613b4a565b91507f4552433732313a20617070726f76616c20746f2063757272656e74206f776e6560008301527f72000000000000000000000000000000000000000000000000000000000000006020830152604082019050919050565b600061345e601283613b4a565b91507f596f752063616e206f6e6c79206d696e743a00000000000000000000000000006000830152602082019050919050565b600061349e600a83613b5b565b91507f46495253545f574f5244000000000000000000000000000000000000000000006000830152600a82019050919050565b60006134de601d83613b5b565b91507f646174613a6170706c69636174696f6e2f6a736f6e3b6261736536342c0000006000830152601d82019050919050565b600061351e603183613b4a565b91507f4552433732313a207472616e736665722063616c6c6572206973206e6f74206f60008301527f776e6572206e6f7220617070726f7665640000000000000000000000000000006020830152604082019050919050565b6000613584605283613b5b565b91507f222c20226465736372697074696f6e223a2022412043727970746f20436f6d6d60008301527f756e6974696573204e4654222c2022696d616765223a2022646174613a696d6160208301527f67652f7376672b786d6c3b6261736536342c00000000000000000000000000006040830152605282019050919050565b6000613610600383613b4a565b91507f4e6f2000000000000000000000000000000000000000000000000000000000006000830152602082019050919050565b61364c81613ce5565b82525050565b600061365e8284612cb3565b915081905092915050565b60006136758285612cb3565b91506136818284612cb3565b91508190509392505050565b60006136998285612ce4565b91506136a58284612cb3565b91506136b082612f7b565b91508190509392505050565b60006136c7826133ab565b91506136d38285612cb3565b91506136de82613577565b91506136ea8284612cb3565b91506136f582613153565b91508190509392505050565b600061370c82613491565b91506137188284612cb3565b915081905092915050565b600061372e826134d1565b915061373a8284612cb3565b915081905092915050565b600060208201905061375a6000830184612c23565b92915050565b60006080820190506137756000830187612c23565b6137826020830186612c23565b61378f6040830185613643565b81810360608301526137a18184612c41565b905095945050505050565b60006040820190506137c16000830185612c23565b6137ce6020830184613643565b9392505050565b60006020820190506137ea6000830184612c32565b92915050565b6000602082019050818103600083015261380a8184612c7a565b905092915050565b6000602082019050818103600083015261382b81612d63565b9050919050565b6000602082019050818103600083015261384b81612dc9565b9050919050565b6000602082019050818103600083015261386b81612e2f565b9050919050565b6000602082019050818103600083015261388b81612e6f565b9050919050565b600060208201905081810360008301526138ab81612ed5565b9050919050565b600060208201905081810360008301526138cb81612f15565b9050919050565b600060208201905081810360008301526138eb81612fbb565b9050919050565b6000602082019050818103600083015261390b81613021565b9050919050565b6000602082019050818103600083015261392b81613087565b9050919050565b6000602082019050818103600083015261394b816130ed565b9050919050565b6000602082019050818103600083015261396b81613193565b9050919050565b6000602082019050818103600083015261398b816131d3565b9050919050565b600060208201905081810360008301526139ab81613239565b9050919050565b600060208201905081810360008301526139cb8161329f565b9050919050565b600060208201905081810360008301526139eb816132df565b9050919050565b60006020820190508181036000830152613a0b81613345565b9050919050565b60006020820190508181036000830152613a2b816133eb565b9050919050565b60006020820190508181036000830152613a4b81613451565b9050919050565b60006020820190508181036000830152613a6b81613511565b9050919050565b60006020820190508181036000830152613a8b81613603565b9050919050565b6000602082019050613aa76000830184613643565b92915050565b6000604051905081810181811067ffffffffffffffff82111715613ad457613ad3613e6a565b5b8060405250919050565b600067ffffffffffffffff821115613af957613af8613e6a565b5b601f19601f8301169050602081019050919050565b60008190508160005260206000209050919050565b600081519050919050565b600081519050919050565b600082825260208201905092915050565b600082825260208201905092915050565b600081905092915050565b6000613b7182613ce5565b9150613b7c83613ce5565b9250827fffffffffffffffffffffffffffffffffffffffffffffffffffffffffffffffff03821115613bb157613bb0613ddd565b5b828201905092915050565b6000613bc782613ce5565b9150613bd283613ce5565b925082613be257613be1613e0c565b5b828204905092915050565b6000613bf882613ce5565b9150613c0383613ce5565b9250817fffffffffffffffffffffffffffffffffffffffffffffffffffffffffffffffff0483118215151615613c3c57613c3b613ddd565b5b828202905092915050565b6000613c5282613ce5565b9150613c5d83613ce5565b925082821015613c7057613c6f613ddd565b5b828203905092915050565b6000613c8682613cc5565b9050919050565b60008115159050919050565b60007fffffffff0000000000000000000000000000000000000000000000000000000082169050919050565b600073ffffffffffffffffffffffffffffffffffffffff82169050919050565b6000819050919050565b82818337600083830152505050565b60005b83811015613d1c578082015181840152602081019050613d01565b83811115613d2b576000848401525b50505050565b60006002820490506001821680613d4957607f821691505b60208210811415613d5d57613d5c613e3b565b5b50919050565b6000613d6e82613ce5565b91507fffffffffffffffffffffffffffffffffffffffffffffffffffffffffffffffff821415613da157613da0613ddd565b5b600182019050919050565b6000613db782613ce5565b9150613dc283613ce5565b925082613dd257613dd1613e0c565b5b828206905092915050565b7f4e487b7100000000000000000000000000000000000000000000000000000000600052601160045260246000fd5b7f4e487b7100000000000000000000000000000000000000000000000000000000600052601260045260246000fd5b7f4e487b7100000000000000000000000000000000000000000000000000000000600052602260045260246000fd5b7f4e487b7100000000000000000000000000000000000000000000000000000000600052604160045260246000fd5b6000601f19601f8301169050919050565b613eb381613c7b565b8114613ebe57600080fd5b50565b613eca81613c8d565b8114613ed557600080fd5b50565b613ee181613c99565b8114613eec57600080fd5b50565b613ef881613ce5565b8114613f0357600080fd5b5056fe4142434445464748494a4b4c4d4e4f505152535455565758595a6162636465666768696a6b6c6d6e6f707172737475767778797a303132333435363738392b2fa2646970667358221220cd632eb17bd58e78d63f763643882ff72e1e4f068f82ac481f4bfa025fd18fda64736f6c634300080000333c73766720786d6c6e733d27687474703a2f2f7777772e77332e6f72672f323030302f73766727207072657365727665417370656374526174696f3d27784d696e594d696e206d656574272076696577426f783d273020302033353020333530273e3c7374796c653e2e62617365207b2066696c6c3a2077686974653b20666f6e742d66616d696c793a2073657269663b20666f6e742d73697a653a20323470783b207d3c2f7374796c653e3c726563742077696474683d273130302527206865696768743d2731303025272066696c6c3d27626c61636b27202f3e3c7465787420783d273530252720793d273530252720636c6173733d27626173652720646f6d696e616e742d626173656c696e653d276d6964646c652720746578742d616e63686f723d276d6964646c65273e",
  "immutableReferences": {},
  "source": "// SPDX-License-Identifier: MIT\r\npragma solidity 0.8.0;\r\n\r\n\r\nimport \"@openzeppelin/contracts/utils/Strings.sol\";\r\nimport \"@openzeppelin/contracts/token/ERC721/ERC721.sol\";\r\nimport \"@openzeppelin/contracts/token/ERC721/extensions/ERC721URIStorage.sol\";\r\nimport \"@openzeppelin/contracts/access/Ownable.sol\";\r\nimport \"@openzeppelin/contracts/utils/Counters.sol\";\r\n\r\n// Import helper functions needed for Base64 encoding.\r\nimport { Base64 } from \"./libraries/Base64.sol\";\r\n\r\n\r\n/// @title A Community Aggregator\r\n/// @author Maximiliano Grub\r\n/// @notice Allows comunities to mint some NFTs\r\n/// @dev  \r\ncontract CommunitiesNFT is ERC721URIStorage, Ownable {\r\n  using Strings for uint256;\r\n  \r\n  uint256 public cost = 0.01 ether;\r\n  uint256 public maxSupply = 10000;\r\n  bool public paused = false;\r\n  \r\n  // @notice Track of token ids using purpose built OpenZeppelin utility\r\n  using Counters for Counters.Counter;\r\n  Counters.Counter private _tokenIds;\r\n\r\n\r\n  string baseSvg = \"<svg xmlns='http://www.w3.org/2000/svg' preserveAspectRatio='xMinYMin meet' viewBox='0 0 350 350'><style>.base { fill: white; font-family: serif; font-size: 24px; }</style><rect width='100%' height='100%' fill='black' /><text x='50%' y='50%' class='base' dominant-baseline='middle' text-anchor='middle'>\";\r\n  string[] words = [\"Daft Punk\", \"Tom Petty\", \"Arcade Fire\", \"Real Estate\", \"My Morning Jacket\", \"Local Natives\", \"Fruits Bats\", \"Vampire Weekend\",  \"Pixies\", \"Portugal the Man\"];\r\n  \r\n  // @notice Event to be emitted after a successful mint\r\n  // @param sender The address of the transaction sender\r\n  // @param tokenId The id of the token that has just been minted\r\n  event NewNFTMinted(address sender, uint256 tokenId);\r\n  \r\n  // @notice Event to be emitted after a successful mint\r\n  // @param sender The address of the transaction sender\r\n  // @param tokenId The id of the token that has just been minted\r\n  event LogAmountToMint(uint256 newAmountToMint);\r\n  \r\n  \r\n  \r\n  //Mapping address whitelisted\r\n  mapping(address => bool) public whitelisted;\r\n\r\n  \r\n  /// @notice contract constructor. Takes parameters and passes them to the inherited ERC721 contract constructor\r\n  /// @param _name the name of the contract\r\n  /// @param _symbol the symbol that contract tokens will be represented by\r\n  constructor(string memory _name, string memory _symbol) ERC721(_name, _symbol) {}\r\n\r\n  /// @notice pick a random word to name the nft\r\n  /// @dev the randomness could be improved \r\n  function pickRandomWord(uint256 tokenId) public view returns (string memory) {\r\n    uint256 rand = random(string(abi.encodePacked(\"FIRST_WORD\", Strings.toString(tokenId))));\r\n    rand = rand % words.length;\r\n    return words[rand];\r\n  }\r\n\r\n  function random(string memory input) internal pure returns (uint256) {\r\n      return uint256(keccak256(abi.encodePacked(input)));\r\n  }\r\n\r\n  \r\n  /// @notice Returns the amount of nft \r\n  /// @dev \r\n  \r\n  function bondingCurve() internal returns (uint256) {\r\n    uint256 amountToMint = 2 * _tokenIds.current() + 9;\r\n    emit LogAmountToMint(amountToMint);\r\n    return amountToMint;  \r\n  }\r\n    \r\n  \r\n  /// @notice Mint an ERC721 token on the contract. \r\n  /// @dev \r\n  function mint(address _to) public payable {\r\n    require(!paused);\r\n    require(_tokenIds.current() + bondingCurve() <= maxSupply, \"You can only mint:\");\r\n    require(whitelisted[msg.sender], \"No \");\r\n    uint256 mintAmount = bondingCurve(); \r\n\r\n    // If not the owner, must pay the fee and must be whitelisted.\r\n    if (msg.sender != owner()) {\r\n        if(whitelisted[msg.sender] != true) {\r\n          require(msg.value >= cost * mintAmount);\r\n        }\r\n    }\r\n    \r\n    uint256 newItemId = _tokenIds.current();\r\n     \r\n   \r\n    // For\r\n    for (uint256 i = 0; i <= mintAmount; i++) {\r\n      string memory first = pickRandomWord(newItemId);\r\n\r\n      string memory finalSvg = string(abi.encodePacked(baseSvg, first, \"</text></svg>\"));\r\n\r\n      // Get all the JSON metadata in place and base64 encode it.\r\n      string memory json = Base64.encode(\r\n         bytes(\r\n            string(\r\n                abi.encodePacked(\r\n                    '{\"name\": \"',first, \r\n                    '\", \"description\": \"A Crypto Communities NFT\", \"image\": \"data:image/svg+xml;base64,',\r\n                    // We add data:image/svg+xml;base64 and then append our base64 encode our svg.\r\n                    Base64.encode(bytes(finalSvg)),\r\n                    '\"}'\r\n                )\r\n            )\r\n          )\r\n        );\r\n\r\n      // Just like before, we prepend data:application/json;base64, to our data.\r\n      string memory finalTokenUri = string(\r\n          abi.encodePacked(\"data:application/json;base64,\", json)\r\n      );\r\n\r\n\r\n      _safeMint(msg.sender, newItemId);\r\n\r\n      // Store the tokens metadata.\r\n      _setTokenURI(newItemId, finalTokenUri);\r\n\r\n      // Increment the counter for when the next NFT is minted\r\n      _tokenIds.increment();\r\n    }\r\n    emit NewNFTMinted(msg.sender, newItemId); \r\n    \r\n  }\r\n\r\n  ///Only owner functions\r\n\r\n  /// @notice Change the cost of the minting\r\n  /// @dev Only the contract owner can call this\r\n  function setCost(uint256 _newCost) public onlyOwner {\r\n    cost = _newCost;\r\n  }\r\n\r\n  //function setmaxMintAmount(uint256 _newmaxMintAmount) public onlyOwner {\r\n  //  maxMintAmount = _newmaxMintAmount;\r\n  //}\r\n\r\n  \r\n  /// @notice Pause the minting\r\n  /// @dev Only the contract owner can call this\r\n  function pause(bool _state) public onlyOwner {\r\n    paused = _state;\r\n  }\r\n\r\n\r\n  /// @notice Add a user to the whitelist\r\n  /// @dev Only the contract owner can call this\r\n  function whitelistUser(address _user) public onlyOwner {\r\n    whitelisted[_user] = true;\r\n  }\r\n\r\n\r\n  /// @notice Remove a user from the whitelist \r\n  /// @dev Only the contract owner can call this\r\n  function removeWhitelistUser(address _user) public onlyOwner {\r\n    whitelisted[_user] = false;\r\n  }\r\n\r\n\r\n  /// @notice Withdraw contract funds\r\n  /// @dev Only the contract owner can call this\r\n  function withdraw() public payable onlyOwner {\r\n    require(payable(msg.sender).send(address(this).balance));\r\n  }\r\n\r\n\r\n}",
  "sourcePath": "/mnt/c/Users/Max/GitHub/blockchain-developer-bootcamp-final-project/contracts/CommunitiesNFT.sol",
  "compiler": {
    "name": "solc",
    "version": "0.8.0+commit.c7dfd78e.Emscripten.clang"
  },
  "schemaVersion": "3.4.3",
  "updatedAt": "2021-11-25T12:59:12.601Z",
  "devdoc": {
    "author": "Maximiliano Grub",
    "kind": "dev",
    "methods": {
      "approve(address,uint256)": {
        "details": "See {IERC721-approve}."
      },
      "balanceOf(address)": {
        "details": "See {IERC721-balanceOf}."
      },
      "constructor": {
        "params": {
          "_name": "the name of the contract",
          "_symbol": "the symbol that contract tokens will be represented by"
        }
      },
      "getApproved(uint256)": {
        "details": "See {IERC721-getApproved}."
      },
      "isApprovedForAll(address,address)": {
        "details": "See {IERC721-isApprovedForAll}."
      },
      "name()": {
        "details": "See {IERC721Metadata-name}."
      },
      "owner()": {
        "details": "Returns the address of the current owner."
      },
      "ownerOf(uint256)": {
        "details": "See {IERC721-ownerOf}."
      },
      "pause(bool)": {
        "details": "Only the contract owner can call this"
      },
      "pickRandomWord(uint256)": {
        "details": "the randomness could be improved "
      },
      "removeWhitelistUser(address)": {
        "details": "Only the contract owner can call this"
      },
      "renounceOwnership()": {
        "details": "Leaves the contract without owner. It will not be possible to call `onlyOwner` functions anymore. Can only be called by the current owner. NOTE: Renouncing ownership will leave the contract without an owner, thereby removing any functionality that is only available to the owner."
      },
      "safeTransferFrom(address,address,uint256)": {
        "details": "See {IERC721-safeTransferFrom}."
      },
      "safeTransferFrom(address,address,uint256,bytes)": {
        "details": "See {IERC721-safeTransferFrom}."
      },
      "setApprovalForAll(address,bool)": {
        "details": "See {IERC721-setApprovalForAll}."
      },
      "setCost(uint256)": {
        "details": "Only the contract owner can call this"
      },
      "supportsInterface(bytes4)": {
        "details": "See {IERC165-supportsInterface}."
      },
      "symbol()": {
        "details": "See {IERC721Metadata-symbol}."
      },
      "tokenURI(uint256)": {
        "details": "See {IERC721Metadata-tokenURI}."
      },
      "transferFrom(address,address,uint256)": {
        "details": "See {IERC721-transferFrom}."
      },
      "transferOwnership(address)": {
        "details": "Transfers ownership of the contract to a new account (`newOwner`). Can only be called by the current owner."
      },
      "whitelistUser(address)": {
        "details": "Only the contract owner can call this"
      },
      "withdraw()": {
        "details": "Only the contract owner can call this"
      }
    },
    "title": "A Community Aggregator",
    "version": 1
  },
  "userdoc": {
    "kind": "user",
    "methods": {
      "constructor": {
        "notice": "contract constructor. Takes parameters and passes them to the inherited ERC721 contract constructor"
      },
      "mint(address)": {
        "notice": "Mint an ERC721 token on the contract. "
      },
      "pause(bool)": {
        "notice": "Pause the minting"
      },
      "pickRandomWord(uint256)": {
        "notice": "pick a random word to name the nft"
      },
      "removeWhitelistUser(address)": {
        "notice": "Remove a user from the whitelist "
      },
      "setCost(uint256)": {
        "notice": "Change the cost of the minting"
      },
      "whitelistUser(address)": {
        "notice": "Add a user to the whitelist"
      },
      "withdraw()": {
        "notice": "Withdraw contract funds"
      }
    },
    "notice": "Allows comunities to mint some NFTs",
    "version": 1
  }
}