{
  "contractName": "CommunitiesNFT",
  "abi": [
    {
      "inputs": [
        {
          "internalType": "string",
          "name": "_name",
          "type": "string"
        },
        {
          "internalType": "string",
          "name": "_symbol",
          "type": "string"
        },
        {
          "internalType": "string",
          "name": "_initBaseURI",
          "type": "string"
        }
      ],
      "stateMutability": "nonpayable",
      "type": "constructor"
    },
    {
      "anonymous": false,
      "inputs": [
        {
          "indexed": true,
          "internalType": "address",
          "name": "owner",
          "type": "address"
        },
        {
          "indexed": true,
          "internalType": "address",
          "name": "approved",
          "type": "address"
        },
        {
          "indexed": true,
          "internalType": "uint256",
          "name": "tokenId",
          "type": "uint256"
        }
      ],
      "name": "Approval",
      "type": "event"
    },
    {
      "anonymous": false,
      "inputs": [
        {
          "indexed": true,
          "internalType": "address",
          "name": "owner",
          "type": "address"
        },
        {
          "indexed": true,
          "internalType": "address",
          "name": "operator",
          "type": "address"
        },
        {
          "indexed": false,
          "internalType": "bool",
          "name": "approved",
          "type": "bool"
        }
      ],
      "name": "ApprovalForAll",
      "type": "event"
    },
    {
      "anonymous": false,
      "inputs": [
        {
          "indexed": false,
          "internalType": "uint256",
          "name": "newAmountToMint",
          "type": "uint256"
        }
      ],
      "name": "LogAmountToMint",
      "type": "event"
    },
    {
      "anonymous": false,
      "inputs": [
        {
          "indexed": true,
          "internalType": "address",
          "name": "previousOwner",
          "type": "address"
        },
        {
          "indexed": true,
          "internalType": "address",
          "name": "newOwner",
          "type": "address"
        }
      ],
      "name": "OwnershipTransferred",
      "type": "event"
    },
    {
      "anonymous": false,
      "inputs": [
        {
          "indexed": true,
          "internalType": "address",
          "name": "from",
          "type": "address"
        },
        {
          "indexed": true,
          "internalType": "address",
          "name": "to",
          "type": "address"
        },
        {
          "indexed": true,
          "internalType": "uint256",
          "name": "tokenId",
          "type": "uint256"
        }
      ],
      "name": "Transfer",
      "type": "event"
    },
    {
      "inputs": [],
      "name": "amountToMint",
      "outputs": [
        {
          "internalType": "uint256",
          "name": "",
          "type": "uint256"
        }
      ],
      "stateMutability": "view",
      "type": "function",
      "constant": true
    },
    {
      "inputs": [
        {
          "internalType": "address",
          "name": "to",
          "type": "address"
        },
        {
          "internalType": "uint256",
          "name": "tokenId",
          "type": "uint256"
        }
      ],
      "name": "approve",
      "outputs": [],
      "stateMutability": "nonpayable",
      "type": "function"
    },
    {
      "inputs": [
        {
          "internalType": "address",
          "name": "owner",
          "type": "address"
        }
      ],
      "name": "balanceOf",
      "outputs": [
        {
          "internalType": "uint256",
          "name": "",
          "type": "uint256"
        }
      ],
      "stateMutability": "view",
      "type": "function",
      "constant": true
    },
    {
      "inputs": [],
      "name": "baseExtension",
      "outputs": [
        {
          "internalType": "string",
          "name": "",
          "type": "string"
        }
      ],
      "stateMutability": "view",
      "type": "function",
      "constant": true
    },
    {
      "inputs": [],
      "name": "baseURI",
      "outputs": [
        {
          "internalType": "string",
          "name": "",
          "type": "string"
        }
      ],
      "stateMutability": "view",
      "type": "function",
      "constant": true
    },
    {
      "inputs": [],
      "name": "cost",
      "outputs": [
        {
          "internalType": "uint256",
          "name": "",
          "type": "uint256"
        }
      ],
      "stateMutability": "view",
      "type": "function",
      "constant": true
    },
    {
      "inputs": [
        {
          "internalType": "uint256",
          "name": "tokenId",
          "type": "uint256"
        }
      ],
      "name": "getApproved",
      "outputs": [
        {
          "internalType": "address",
          "name": "",
          "type": "address"
        }
      ],
      "stateMutability": "view",
      "type": "function",
      "constant": true
    },
    {
      "inputs": [
        {
          "internalType": "address",
          "name": "owner",
          "type": "address"
        },
        {
          "internalType": "address",
          "name": "operator",
          "type": "address"
        }
      ],
      "name": "isApprovedForAll",
      "outputs": [
        {
          "internalType": "bool",
          "name": "",
          "type": "bool"
        }
      ],
      "stateMutability": "view",
      "type": "function",
      "constant": true
    },
    {
      "inputs": [],
      "name": "maxSupply",
      "outputs": [
        {
          "internalType": "uint256",
          "name": "",
          "type": "uint256"
        }
      ],
      "stateMutability": "view",
      "type": "function",
      "constant": true
    },
    {
      "inputs": [],
      "name": "name",
      "outputs": [
        {
          "internalType": "string",
          "name": "",
          "type": "string"
        }
      ],
      "stateMutability": "view",
      "type": "function",
      "constant": true
    },
    {
      "inputs": [],
      "name": "owner",
      "outputs": [
        {
          "internalType": "address",
          "name": "",
          "type": "address"
        }
      ],
      "stateMutability": "view",
      "type": "function",
      "constant": true
    },
    {
      "inputs": [
        {
          "internalType": "uint256",
          "name": "tokenId",
          "type": "uint256"
        }
      ],
      "name": "ownerOf",
      "outputs": [
        {
          "internalType": "address",
          "name": "",
          "type": "address"
        }
      ],
      "stateMutability": "view",
      "type": "function",
      "constant": true
    },
    {
      "inputs": [],
      "name": "paused",
      "outputs": [
        {
          "internalType": "bool",
          "name": "",
          "type": "bool"
        }
      ],
      "stateMutability": "view",
      "type": "function",
      "constant": true
    },
    {
      "inputs": [],
      "name": "renounceOwnership",
      "outputs": [],
      "stateMutability": "nonpayable",
      "type": "function"
    },
    {
      "inputs": [
        {
          "internalType": "address",
          "name": "from",
          "type": "address"
        },
        {
          "internalType": "address",
          "name": "to",
          "type": "address"
        },
        {
          "internalType": "uint256",
          "name": "tokenId",
          "type": "uint256"
        }
      ],
      "name": "safeTransferFrom",
      "outputs": [],
      "stateMutability": "nonpayable",
      "type": "function"
    },
    {
      "inputs": [
        {
          "internalType": "address",
          "name": "from",
          "type": "address"
        },
        {
          "internalType": "address",
          "name": "to",
          "type": "address"
        },
        {
          "internalType": "uint256",
          "name": "tokenId",
          "type": "uint256"
        },
        {
          "internalType": "bytes",
          "name": "_data",
          "type": "bytes"
        }
      ],
      "name": "safeTransferFrom",
      "outputs": [],
      "stateMutability": "nonpayable",
      "type": "function"
    },
    {
      "inputs": [
        {
          "internalType": "address",
          "name": "operator",
          "type": "address"
        },
        {
          "internalType": "bool",
          "name": "approved",
          "type": "bool"
        }
      ],
      "name": "setApprovalForAll",
      "outputs": [],
      "stateMutability": "nonpayable",
      "type": "function"
    },
    {
      "inputs": [
        {
          "internalType": "bytes4",
          "name": "interfaceId",
          "type": "bytes4"
        }
      ],
      "name": "supportsInterface",
      "outputs": [
        {
          "internalType": "bool",
          "name": "",
          "type": "bool"
        }
      ],
      "stateMutability": "view",
      "type": "function",
      "constant": true
    },
    {
      "inputs": [],
      "name": "symbol",
      "outputs": [
        {
          "internalType": "string",
          "name": "",
          "type": "string"
        }
      ],
      "stateMutability": "view",
      "type": "function",
      "constant": true
    },
    {
      "inputs": [
        {
          "internalType": "address",
          "name": "from",
          "type": "address"
        },
        {
          "internalType": "address",
          "name": "to",
          "type": "address"
        },
        {
          "internalType": "uint256",
          "name": "tokenId",
          "type": "uint256"
        }
      ],
      "name": "transferFrom",
      "outputs": [],
      "stateMutability": "nonpayable",
      "type": "function"
    },
    {
      "inputs": [
        {
          "internalType": "address",
          "name": "newOwner",
          "type": "address"
        }
      ],
      "name": "transferOwnership",
      "outputs": [],
      "stateMutability": "nonpayable",
      "type": "function"
    },
    {
      "inputs": [
        {
          "internalType": "address",
          "name": "",
          "type": "address"
        }
      ],
      "name": "whitelisted",
      "outputs": [
        {
          "internalType": "bool",
          "name": "",
          "type": "bool"
        }
      ],
      "stateMutability": "view",
      "type": "function",
      "constant": true
    },
    {
      "inputs": [
        {
          "internalType": "address",
          "name": "_to",
          "type": "address"
        },
        {
          "internalType": "uint256",
          "name": "_mintAmount",
          "type": "uint256"
        }
      ],
      "name": "mint",
      "outputs": [],
      "stateMutability": "payable",
      "type": "function",
      "payable": true
    },
    {
      "inputs": [
        {
          "internalType": "uint256",
          "name": "tokenId",
          "type": "uint256"
        }
      ],
      "name": "tokenURI",
      "outputs": [
        {
          "internalType": "string",
          "name": "",
          "type": "string"
        }
      ],
      "stateMutability": "view",
      "type": "function",
      "constant": true
    },
    {
      "inputs": [
        {
          "internalType": "uint256",
          "name": "_newCost",
          "type": "uint256"
        }
      ],
      "name": "setCost",
      "outputs": [],
      "stateMutability": "nonpayable",
      "type": "function"
    },
    {
      "inputs": [
        {
          "internalType": "string",
          "name": "_newBaseURI",
          "type": "string"
        }
      ],
      "name": "setBaseURI",
      "outputs": [],
      "stateMutability": "nonpayable",
      "type": "function"
    },
    {
      "inputs": [
        {
          "internalType": "string",
          "name": "_newBaseExtension",
          "type": "string"
        }
      ],
      "name": "setBaseExtension",
      "outputs": [],
      "stateMutability": "nonpayable",
      "type": "function"
    },
    {
      "inputs": [
        {
          "internalType": "bool",
          "name": "_state",
          "type": "bool"
        }
      ],
      "name": "pause",
      "outputs": [],
      "stateMutability": "nonpayable",
      "type": "function"
    },
    {
      "inputs": [
        {
          "internalType": "address",
          "name": "_user",
          "type": "address"
        }
      ],
      "name": "whitelistUser",
      "outputs": [],
      "stateMutability": "nonpayable",
      "type": "function"
    },
    {
      "inputs": [
        {
          "internalType": "address",
          "name": "_user",
          "type": "address"
        }
      ],
      "name": "removeWhitelistUser",
      "outputs": [],
      "stateMutability": "nonpayable",
      "type": "function"
    },
    {
      "inputs": [],
      "name": "withdraw",
      "outputs": [],
      "stateMutability": "payable",
      "type": "function",
      "payable": true
    }
  ],
  "bytecode": "0x60806040526040518060400160405280600581526020017f2e6a736f6e0000000000000000000000000000000000000000000000000000008152506009908051906020019062000051929190620002c4565b50662386f26fc10000600a556103e8600b556000600d60006101000a81548160ff0219169083151502179055503480156200008b57600080fd5b50604051620040cb380380620040cb8339818101604052810190620000b19190620003e6565b82828160009080519060200190620000cb929190620002c4565b508060019080519060200190620000e4929190620002c4565b50505062000107620000fb6200012160201b60201c565b6200012960201b60201c565b6200011881620001ef60201b60201c565b5050506200062d565b600033905090565b6000600660009054906101000a900473ffffffffffffffffffffffffffffffffffffffff16905081600660006101000a81548173ffffffffffffffffffffffffffffffffffffffff021916908373ffffffffffffffffffffffffffffffffffffffff1602179055508173ffffffffffffffffffffffffffffffffffffffff168173ffffffffffffffffffffffffffffffffffffffff167f8be0079c531659141344cd1fd0a4f28419497f9722a3daafe3b4186f6b6457e060405160405180910390a35050565b620001ff6200012160201b60201c565b73ffffffffffffffffffffffffffffffffffffffff16620002256200029a60201b60201c565b73ffffffffffffffffffffffffffffffffffffffff16146200027e576040517f08c379a00000000000000000000000000000000000000000000000000000000081526004016200027590620004c9565b60405180910390fd5b806008908051906020019062000296929190620002c4565b5050565b6000600660009054906101000a900473ffffffffffffffffffffffffffffffffffffffff16905090565b828054620002d29062000599565b90600052602060002090601f016020900481019282620002f6576000855562000342565b82601f106200031157805160ff191683800117855562000342565b8280016001018555821562000342579182015b828111156200034157825182559160200191906001019062000324565b5b50905062000351919062000355565b5090565b5b808211156200037057600081600090555060010162000356565b5090565b60006200038b62000385846200051f565b620004eb565b905082815260208101848484011115620003a457600080fd5b620003b184828562000563565b509392505050565b600082601f830112620003cb57600080fd5b8151620003dd84826020860162000374565b91505092915050565b600080600060608486031215620003fc57600080fd5b600084015167ffffffffffffffff8111156200041757600080fd5b6200042586828701620003b9565b935050602084015167ffffffffffffffff8111156200044357600080fd5b6200045186828701620003b9565b925050604084015167ffffffffffffffff8111156200046f57600080fd5b6200047d86828701620003b9565b9150509250925092565b60006200049660208362000552565b91507f4f776e61626c653a2063616c6c6572206973206e6f7420746865206f776e65726000830152602082019050919050565b60006020820190508181036000830152620004e48162000487565b9050919050565b6000604051905081810181811067ffffffffffffffff82111715620005155762000514620005fe565b5b8060405250919050565b600067ffffffffffffffff8211156200053d576200053c620005fe565b5b601f19601f8301169050602081019050919050565b600082825260208201905092915050565b60005b838110156200058357808201518184015260208101905062000566565b8381111562000593576000848401525b50505050565b60006002820490506001821680620005b257607f821691505b60208210811415620005c957620005c8620005cf565b5b50919050565b7f4e487b7100000000000000000000000000000000000000000000000000000000600052602260045260246000fd5b7f4e487b7100000000000000000000000000000000000000000000000000000000600052604160045260246000fd5b613a8e806200063d6000396000f3fe6080604052600436106101d85760003560e01c80636352211e11610102578063c668286211610095578063da3ef23f11610064578063da3ef23f1461067a578063e6fb1fb4146106a3578063e985e9c5146106ce578063f2fde38b1461070b576101d8565b8063c6682862146105aa578063c87b56dd146105d5578063d5abeb0114610612578063d936547e1461063d576101d8565b80638da5cb5b116100d15780638da5cb5b1461050257806395d89b411461052d578063a22cb46514610558578063b88d4fde14610581576101d8565b80636352211e146104465780636c0360eb1461048357806370a08231146104ae578063715018a6146104eb576101d8565b806330cc7ae01161017a57806344a0d68a1161014957806344a0d68a146103a05780634a4c560d146103c957806355f804b3146103f25780635c975abb1461041b576101d8565b806330cc7ae0146103285780633ccfd60b1461035157806340c10f191461035b57806342842e0e14610377576101d8565b8063081812fc116101b6578063081812fc1461026e578063095ea7b3146102ab57806313faede6146102d457806323b872dd146102ff576101d8565b806301ffc9a7146101dd57806302329a291461021a57806306fdde0314610243575b600080fd5b3480156101e957600080fd5b5061020460048036038101906101ff91906129ec565b610734565b6040516102119190613317565b60405180910390f35b34801561022657600080fd5b50610241600480360381019061023c91906129c3565b610816565b005b34801561024f57600080fd5b506102586108af565b6040516102659190613332565b60405180910390f35b34801561027a57600080fd5b5061029560048036038101906102909190612a7f565b610941565b6040516102a291906132b0565b60405180910390f35b3480156102b757600080fd5b506102d260048036038101906102cd9190612987565b6109c6565b005b3480156102e057600080fd5b506102e9610ade565b6040516102f691906135b4565b60405180910390f35b34801561030b57600080fd5b5061032660048036038101906103219190612881565b610ae4565b005b34801561033457600080fd5b5061034f600480360381019061034a919061281c565b610b44565b005b610359610c1b565b005b61037560048036038101906103709190612987565b610cd7565b005b34801561038357600080fd5b5061039e60048036038101906103999190612881565b610f29565b005b3480156103ac57600080fd5b506103c760048036038101906103c29190612a7f565b610f49565b005b3480156103d557600080fd5b506103f060048036038101906103eb919061281c565b610fcf565b005b3480156103fe57600080fd5b5061041960048036038101906104149190612a3e565b6110a6565b005b34801561042757600080fd5b5061043061113c565b60405161043d9190613317565b60405180910390f35b34801561045257600080fd5b5061046d60048036038101906104689190612a7f565b61114f565b60405161047a91906132b0565b60405180910390f35b34801561048f57600080fd5b50610498611201565b6040516104a59190613332565b60405180910390f35b3480156104ba57600080fd5b506104d560048036038101906104d0919061281c565b61128f565b6040516104e291906135b4565b60405180910390f35b3480156104f757600080fd5b50610500611347565b005b34801561050e57600080fd5b506105176113cf565b60405161052491906132b0565b60405180910390f35b34801561053957600080fd5b506105426113f9565b60405161054f9190613332565b60405180910390f35b34801561056457600080fd5b5061057f600480360381019061057a919061294b565b61148b565b005b34801561058d57600080fd5b506105a860048036038101906105a391906128d0565b61160c565b005b3480156105b657600080fd5b506105bf61166e565b6040516105cc9190613332565b60405180910390f35b3480156105e157600080fd5b506105fc60048036038101906105f79190612a7f565b6116fc565b6040516106099190613332565b60405180910390f35b34801561061e57600080fd5b506106276117a6565b60405161063491906135b4565b60405180910390f35b34801561064957600080fd5b50610664600480360381019061065f919061281c565b6117ac565b6040516106719190613317565b60405180910390f35b34801561068657600080fd5b506106a1600480360381019061069c9190612a3e565b6117cc565b005b3480156106af57600080fd5b506106b8611862565b6040516106c591906135b4565b60405180910390f35b3480156106da57600080fd5b506106f560048036038101906106f09190612845565b611868565b6040516107029190613317565b60405180910390f35b34801561071757600080fd5b50610732600480360381019061072d919061281c565b6118fc565b005b60007f80ac58cd000000000000000000000000000000000000000000000000000000007bffffffffffffffffffffffffffffffffffffffffffffffffffffffff1916827bffffffffffffffffffffffffffffffffffffffffffffffffffffffff191614806107ff57507f5b5e139f000000000000000000000000000000000000000000000000000000007bffffffffffffffffffffffffffffffffffffffffffffffffffffffff1916827bffffffffffffffffffffffffffffffffffffffffffffffffffffffff1916145b8061080f575061080e826119f4565b5b9050919050565b61081e611a5e565b73ffffffffffffffffffffffffffffffffffffffff1661083c6113cf565b73ffffffffffffffffffffffffffffffffffffffff1614610892576040517f08c379a0000000000000000000000000000000000000000000000000000000008152600401610889906134f4565b60405180910390fd5b80600d60006101000a81548160ff02191690831515021790555050565b6060600080546108be90613883565b80601f01602080910402602001604051908101604052809291908181526020018280546108ea90613883565b80156109375780601f1061090c57610100808354040283529160200191610937565b820191906000526020600020905b81548152906001019060200180831161091a57829003601f168201915b5050505050905090565b600061094c82611a66565b61098b576040517f08c379a0000000000000000000000000000000000000000000000000000000008152600401610982906134d4565b60405180910390fd5b6004600083815260200190815260200160002060009054906101000a900473ffffffffffffffffffffffffffffffffffffffff169050919050565b60006109d18261114f565b90508073ffffffffffffffffffffffffffffffffffffffff168373ffffffffffffffffffffffffffffffffffffffff161415610a42576040517f08c379a0000000000000000000000000000000000000000000000000000000008152600401610a3990613554565b60405180910390fd5b8073ffffffffffffffffffffffffffffffffffffffff16610a61611a5e565b73ffffffffffffffffffffffffffffffffffffffff161480610a905750610a8f81610a8a611a5e565b611868565b5b610acf576040517f08c379a0000000000000000000000000000000000000000000000000000000008152600401610ac690613434565b60405180910390fd5b610ad98383611ad2565b505050565b600a5481565b610af5610aef611a5e565b82611b8b565b610b34576040517f08c379a0000000000000000000000000000000000000000000000000000000008152600401610b2b90613594565b60405180910390fd5b610b3f838383611c69565b505050565b610b4c611a5e565b73ffffffffffffffffffffffffffffffffffffffff16610b6a6113cf565b73ffffffffffffffffffffffffffffffffffffffff1614610bc0576040517f08c379a0000000000000000000000000000000000000000000000000000000008152600401610bb7906134f4565b60405180910390fd5b6000600e60008373ffffffffffffffffffffffffffffffffffffffff1673ffffffffffffffffffffffffffffffffffffffff16815260200190815260200160002060006101000a81548160ff02191690831515021790555050565b610c23611a5e565b73ffffffffffffffffffffffffffffffffffffffff16610c416113cf565b73ffffffffffffffffffffffffffffffffffffffff1614610c97576040517f08c379a0000000000000000000000000000000000000000000000000000000008152600401610c8e906134f4565b60405180910390fd5b3373ffffffffffffffffffffffffffffffffffffffff166108fc479081150290604051600060405180830381858888f19350505050610cd557600080fd5b565b60006001610ce56007611ec5565b610cef91906136b8565b90506009816002610d00919061373f565b610d0a91906136b8565b600c819055507fe183cd66cc3f86acd872e22ef3247fbaf8d7d2c80ad391b70ec38de34cd9b042600c54604051610d4191906135b4565b60405180910390a1600d60009054906101000a900460ff1615610d6357600080fd5b60008211610da6576040517f08c379a0000000000000000000000000000000000000000000000000000000008152600401610d9d906133b4565b60405180910390fd5b600c54821115610deb576040517f08c379a0000000000000000000000000000000000000000000000000000000008152600401610de290613574565b60405180910390fd5b600b548282610dfa91906136b8565b1115610e3b576040517f08c379a0000000000000000000000000000000000000000000000000000000008152600401610e3290613454565b60405180910390fd5b610e436113cf565b73ffffffffffffffffffffffffffffffffffffffff163373ffffffffffffffffffffffffffffffffffffffff1614610ee95760011515600e60003373ffffffffffffffffffffffffffffffffffffffff1673ffffffffffffffffffffffffffffffffffffffff16815260200190815260200160002060009054906101000a900460ff16151514610ee85781600a54610edb919061373f565b341015610ee757600080fd5b5b5b60005b828111610f2357610efd6007611ed3565b610f1084610f0b6007611ec5565b611ee9565b8080610f1b906138b5565b915050610eec565b50505050565b610f448383836040518060200160405280600081525061160c565b505050565b610f51611a5e565b73ffffffffffffffffffffffffffffffffffffffff16610f6f6113cf565b73ffffffffffffffffffffffffffffffffffffffff1614610fc5576040517f08c379a0000000000000000000000000000000000000000000000000000000008152600401610fbc906134f4565b60405180910390fd5b80600a8190555050565b610fd7611a5e565b73ffffffffffffffffffffffffffffffffffffffff16610ff56113cf565b73ffffffffffffffffffffffffffffffffffffffff161461104b576040517f08c379a0000000000000000000000000000000000000000000000000000000008152600401611042906134f4565b60405180910390fd5b6001600e60008373ffffffffffffffffffffffffffffffffffffffff1673ffffffffffffffffffffffffffffffffffffffff16815260200190815260200160002060006101000a81548160ff02191690831515021790555050565b6110ae611a5e565b73ffffffffffffffffffffffffffffffffffffffff166110cc6113cf565b73ffffffffffffffffffffffffffffffffffffffff1614611122576040517f08c379a0000000000000000000000000000000000000000000000000000000008152600401611119906134f4565b60405180910390fd5b8060089080519060200190611138929190612640565b5050565b600d60009054906101000a900460ff1681565b6000806002600084815260200190815260200160002060009054906101000a900473ffffffffffffffffffffffffffffffffffffffff169050600073ffffffffffffffffffffffffffffffffffffffff168173ffffffffffffffffffffffffffffffffffffffff1614156111f8576040517f08c379a00000000000000000000000000000000000000000000000000000000081526004016111ef90613494565b60405180910390fd5b80915050919050565b6008805461120e90613883565b80601f016020809104026020016040519081016040528092919081815260200182805461123a90613883565b80156112875780601f1061125c57610100808354040283529160200191611287565b820191906000526020600020905b81548152906001019060200180831161126a57829003601f168201915b505050505081565b60008073ffffffffffffffffffffffffffffffffffffffff168273ffffffffffffffffffffffffffffffffffffffff161415611300576040517f08c379a00000000000000000000000000000000000000000000000000000000081526004016112f790613474565b60405180910390fd5b600360008373ffffffffffffffffffffffffffffffffffffffff1673ffffffffffffffffffffffffffffffffffffffff168152602001908152602001600020549050919050565b61134f611a5e565b73ffffffffffffffffffffffffffffffffffffffff1661136d6113cf565b73ffffffffffffffffffffffffffffffffffffffff16146113c3576040517f08c379a00000000000000000000000000000000000000000000000000000000081526004016113ba906134f4565b60405180910390fd5b6113cd6000611f07565b565b6000600660009054906101000a900473ffffffffffffffffffffffffffffffffffffffff16905090565b60606001805461140890613883565b80601f016020809104026020016040519081016040528092919081815260200182805461143490613883565b80156114815780601f1061145657610100808354040283529160200191611481565b820191906000526020600020905b81548152906001019060200180831161146457829003601f168201915b5050505050905090565b611493611a5e565b73ffffffffffffffffffffffffffffffffffffffff168273ffffffffffffffffffffffffffffffffffffffff161415611501576040517f08c379a00000000000000000000000000000000000000000000000000000000081526004016114f8906133f4565b60405180910390fd5b806005600061150e611a5e565b73ffffffffffffffffffffffffffffffffffffffff1673ffffffffffffffffffffffffffffffffffffffff16815260200190815260200160002060008473ffffffffffffffffffffffffffffffffffffffff1673ffffffffffffffffffffffffffffffffffffffff16815260200190815260200160002060006101000a81548160ff0219169083151502179055508173ffffffffffffffffffffffffffffffffffffffff166115bb611a5e565b73ffffffffffffffffffffffffffffffffffffffff167f17307eab39ab6107e8899845ad3d59bd9653f200f220920489ca2b5937696c31836040516116009190613317565b60405180910390a35050565b61161d611617611a5e565b83611b8b565b61165c576040517f08c379a000000000000000000000000000000000000000000000000000000000815260040161165390613594565b60405180910390fd5b61166884848484611fcd565b50505050565b6009805461167b90613883565b80601f01602080910402602001604051908101604052809291908181526020018280546116a790613883565b80156116f45780601f106116c9576101008083540402835291602001916116f4565b820191906000526020600020905b8154815290600101906020018083116116d757829003601f168201915b505050505081565b606061170782611a66565b611746576040517f08c379a000000000000000000000000000000000000000000000000000000000815260040161173d90613534565b60405180910390fd5b6000611750612029565b90506000815111611770576040518060200160405280600081525061179e565b8061177a846120bb565b600960405160200161178e9392919061327f565b6040516020818303038152906040525b915050919050565b600b5481565b600e6020528060005260406000206000915054906101000a900460ff1681565b6117d4611a5e565b73ffffffffffffffffffffffffffffffffffffffff166117f26113cf565b73ffffffffffffffffffffffffffffffffffffffff1614611848576040517f08c379a000000000000000000000000000000000000000000000000000000000815260040161183f906134f4565b60405180910390fd5b806009908051906020019061185e929190612640565b5050565b600c5481565b6000600560008473ffffffffffffffffffffffffffffffffffffffff1673ffffffffffffffffffffffffffffffffffffffff16815260200190815260200160002060008373ffffffffffffffffffffffffffffffffffffffff1673ffffffffffffffffffffffffffffffffffffffff16815260200190815260200160002060009054906101000a900460ff16905092915050565b611904611a5e565b73ffffffffffffffffffffffffffffffffffffffff166119226113cf565b73ffffffffffffffffffffffffffffffffffffffff1614611978576040517f08c379a000000000000000000000000000000000000000000000000000000000815260040161196f906134f4565b60405180910390fd5b600073ffffffffffffffffffffffffffffffffffffffff168173ffffffffffffffffffffffffffffffffffffffff1614156119e8576040517f08c379a00000000000000000000000000000000000000000000000000000000081526004016119df90613374565b60405180910390fd5b6119f181611f07565b50565b60007f01ffc9a7000000000000000000000000000000000000000000000000000000007bffffffffffffffffffffffffffffffffffffffffffffffffffffffff1916827bffffffffffffffffffffffffffffffffffffffffffffffffffffffff1916149050919050565b600033905090565b60008073ffffffffffffffffffffffffffffffffffffffff166002600084815260200190815260200160002060009054906101000a900473ffffffffffffffffffffffffffffffffffffffff1673ffffffffffffffffffffffffffffffffffffffff1614159050919050565b816004600083815260200190815260200160002060006101000a81548173ffffffffffffffffffffffffffffffffffffffff021916908373ffffffffffffffffffffffffffffffffffffffff160217905550808273ffffffffffffffffffffffffffffffffffffffff16611b458361114f565b73ffffffffffffffffffffffffffffffffffffffff167f8c5be1e5ebec7d5bd14f71427d1e84f3dd0314c0f7b2291e5b200ac8c7c3b92560405160405180910390a45050565b6000611b9682611a66565b611bd5576040517f08c379a0000000000000000000000000000000000000000000000000000000008152600401611bcc90613414565b60405180910390fd5b6000611be08361114f565b90508073ffffffffffffffffffffffffffffffffffffffff168473ffffffffffffffffffffffffffffffffffffffff161480611c4f57508373ffffffffffffffffffffffffffffffffffffffff16611c3784610941565b73ffffffffffffffffffffffffffffffffffffffff16145b80611c605750611c5f8185611868565b5b91505092915050565b8273ffffffffffffffffffffffffffffffffffffffff16611c898261114f565b73ffffffffffffffffffffffffffffffffffffffff1614611cdf576040517f08c379a0000000000000000000000000000000000000000000000000000000008152600401611cd690613514565b60405180910390fd5b600073ffffffffffffffffffffffffffffffffffffffff168273ffffffffffffffffffffffffffffffffffffffff161415611d4f576040517f08c379a0000000000000000000000000000000000000000000000000000000008152600401611d46906133d4565b60405180910390fd5b611d5a838383612268565b611d65600082611ad2565b6001600360008573ffffffffffffffffffffffffffffffffffffffff1673ffffffffffffffffffffffffffffffffffffffff1681526020019081526020016000206000828254611db59190613799565b925050819055506001600360008473ffffffffffffffffffffffffffffffffffffffff1673ffffffffffffffffffffffffffffffffffffffff1681526020019081526020016000206000828254611e0c91906136b8565b92505081905550816002600083815260200190815260200160002060006101000a81548173ffffffffffffffffffffffffffffffffffffffff021916908373ffffffffffffffffffffffffffffffffffffffff160217905550808273ffffffffffffffffffffffffffffffffffffffff168473ffffffffffffffffffffffffffffffffffffffff167fddf252ad1be2c89b69c2b068fc378daa952ba7f163c4a11628f55a4df523b3ef60405160405180910390a4505050565b600081600001549050919050565b6001816000016000828254019250508190555050565b611f0382826040518060200160405280600081525061226d565b5050565b6000600660009054906101000a900473ffffffffffffffffffffffffffffffffffffffff16905081600660006101000a81548173ffffffffffffffffffffffffffffffffffffffff021916908373ffffffffffffffffffffffffffffffffffffffff1602179055508173ffffffffffffffffffffffffffffffffffffffff168173ffffffffffffffffffffffffffffffffffffffff167f8be0079c531659141344cd1fd0a4f28419497f9722a3daafe3b4186f6b6457e060405160405180910390a35050565b611fd8848484611c69565b611fe4848484846122c8565b612023576040517f08c379a000000000000000000000000000000000000000000000000000000000815260040161201a90613354565b60405180910390fd5b50505050565b60606008805461203890613883565b80601f016020809104026020016040519081016040528092919081815260200182805461206490613883565b80156120b15780601f10612086576101008083540402835291602001916120b1565b820191906000526020600020905b81548152906001019060200180831161209457829003601f168201915b5050505050905090565b60606000821415612103576040518060400160405280600181526020017f30000000000000000000000000000000000000000000000000000000000000008152509050612263565b600082905060005b6000821461213557808061211e906138b5565b915050600a8261212e919061370e565b915061210b565b60008167ffffffffffffffff811115612177577f4e487b7100000000000000000000000000000000000000000000000000000000600052604160045260246000fd5b6040519080825280601f01601f1916602001820160405280156121a95781602001600182028036833780820191505090505b5090505b6000851461225c576001826121c29190613799565b9150600a856121d191906138fe565b60306121dd91906136b8565b60f81b818381518110612219577f4e487b7100000000000000000000000000000000000000000000000000000000600052603260045260246000fd5b60200101907effffffffffffffffffffffffffffffffffffffffffffffffffffffffffffff1916908160001a905350600a85612255919061370e565b94506121ad565b8093505050505b919050565b505050565b612277838361245f565b61228460008484846122c8565b6122c3576040517f08c379a00000000000000000000000000000000000000000000000000000000081526004016122ba90613354565b60405180910390fd5b505050565b60006122e98473ffffffffffffffffffffffffffffffffffffffff1661262d565b15612452578373ffffffffffffffffffffffffffffffffffffffff1663150b7a02612312611a5e565b8786866040518563ffffffff1660e01b815260040161233494939291906132cb565b602060405180830381600087803b15801561234e57600080fd5b505af192505050801561237f57506040513d601f19601f8201168201806040525081019061237c9190612a15565b60015b612402573d80600081146123af576040519150601f19603f3d011682016040523d82523d6000602084013e6123b4565b606091505b506000815114156123fa576040517f08c379a00000000000000000000000000000000000000000000000000000000081526004016123f190613354565b60405180910390fd5b805181602001fd5b63150b7a0260e01b7bffffffffffffffffffffffffffffffffffffffffffffffffffffffff1916817bffffffffffffffffffffffffffffffffffffffffffffffffffffffff191614915050612457565b600190505b949350505050565b600073ffffffffffffffffffffffffffffffffffffffff168273ffffffffffffffffffffffffffffffffffffffff1614156124cf576040517f08c379a00000000000000000000000000000000000000000000000000000000081526004016124c6906134b4565b60405180910390fd5b6124d881611a66565b15612518576040517f08c379a000000000000000000000000000000000000000000000000000000000815260040161250f90613394565b60405180910390fd5b61252460008383612268565b6001600360008473ffffffffffffffffffffffffffffffffffffffff1673ffffffffffffffffffffffffffffffffffffffff168152602001908152602001600020600082825461257491906136b8565b92505081905550816002600083815260200190815260200160002060006101000a81548173ffffffffffffffffffffffffffffffffffffffff021916908373ffffffffffffffffffffffffffffffffffffffff160217905550808273ffffffffffffffffffffffffffffffffffffffff16600073ffffffffffffffffffffffffffffffffffffffff167fddf252ad1be2c89b69c2b068fc378daa952ba7f163c4a11628f55a4df523b3ef60405160405180910390a45050565b600080823b905060008111915050919050565b82805461264c90613883565b90600052602060002090601f01602090048101928261266e57600085556126b5565b82601f1061268757805160ff19168380011785556126b5565b828001600101855582156126b5579182015b828111156126b4578251825591602001919060010190612699565b5b5090506126c291906126c6565b5090565b5b808211156126df5760008160009055506001016126c7565b5090565b60006126f66126f184613600565b6135cf565b90508281526020810184848401111561270e57600080fd5b612719848285613841565b509392505050565b600061273461272f84613630565b6135cf565b90508281526020810184848401111561274c57600080fd5b612757848285613841565b509392505050565b60008135905061276e816139fc565b92915050565b60008135905061278381613a13565b92915050565b60008135905061279881613a2a565b92915050565b6000815190506127ad81613a2a565b92915050565b600082601f8301126127c457600080fd5b81356127d48482602086016126e3565b91505092915050565b600082601f8301126127ee57600080fd5b81356127fe848260208601612721565b91505092915050565b60008135905061281681613a41565b92915050565b60006020828403121561282e57600080fd5b600061283c8482850161275f565b91505092915050565b6000806040838503121561285857600080fd5b60006128668582860161275f565b92505060206128778582860161275f565b9150509250929050565b60008060006060848603121561289657600080fd5b60006128a48682870161275f565b93505060206128b58682870161275f565b92505060406128c686828701612807565b9150509250925092565b600080600080608085870312156128e657600080fd5b60006128f48782880161275f565b94505060206129058782880161275f565b935050604061291687828801612807565b925050606085013567ffffffffffffffff81111561293357600080fd5b61293f878288016127b3565b91505092959194509250565b6000806040838503121561295e57600080fd5b600061296c8582860161275f565b925050602061297d85828601612774565b9150509250929050565b6000806040838503121561299a57600080fd5b60006129a88582860161275f565b92505060206129b985828601612807565b9150509250929050565b6000602082840312156129d557600080fd5b60006129e384828501612774565b91505092915050565b6000602082840312156129fe57600080fd5b6000612a0c84828501612789565b91505092915050565b600060208284031215612a2757600080fd5b6000612a358482850161279e565b91505092915050565b600060208284031215612a5057600080fd5b600082013567ffffffffffffffff811115612a6a57600080fd5b612a76848285016127dd565b91505092915050565b600060208284031215612a9157600080fd5b6000612a9f84828501612807565b91505092915050565b612ab1816137cd565b82525050565b612ac0816137df565b82525050565b6000612ad182613675565b612adb818561368b565b9350612aeb818560208601613850565b612af4816139eb565b840191505092915050565b6000612b0a82613680565b612b14818561369c565b9350612b24818560208601613850565b612b2d816139eb565b840191505092915050565b6000612b4382613680565b612b4d81856136ad565b9350612b5d818560208601613850565b80840191505092915050565b60008154612b7681613883565b612b8081866136ad565b94506001821660008114612b9b5760018114612bac57612bdf565b60ff19831686528186019350612bdf565b612bb585613660565b60005b83811015612bd757815481890152600182019150602081019050612bb8565b838801955050505b50505092915050565b6000612bf560328361369c565b91507f4552433732313a207472616e7366657220746f206e6f6e20455243373231526560008301527f63656976657220696d706c656d656e74657200000000000000000000000000006020830152604082019050919050565b6000612c5b60268361369c565b91507f4f776e61626c653a206e6577206f776e657220697320746865207a65726f206160008301527f64647265737300000000000000000000000000000000000000000000000000006020830152604082019050919050565b6000612cc1601c8361369c565b91507f4552433732313a20746f6b656e20616c7265616479206d696e746564000000006000830152602082019050919050565b6000612d01601b8361369c565b91507f546865206d696e7420616d6f756e742063616e277420626520302e00000000006000830152602082019050919050565b6000612d4160248361369c565b91507f4552433732313a207472616e7366657220746f20746865207a65726f2061646460008301527f72657373000000000000000000000000000000000000000000000000000000006020830152604082019050919050565b6000612da760198361369c565b91507f4552433732313a20617070726f766520746f2063616c6c6572000000000000006000830152602082019050919050565b6000612de7602c8361369c565b91507f4552433732313a206f70657261746f7220717565727920666f72206e6f6e657860008301527f697374656e7420746f6b656e00000000000000000000000000000000000000006020830152604082019050919050565b6000612e4d60388361369c565b91507f4552433732313a20617070726f76652063616c6c6572206973206e6f74206f7760008301527f6e6572206e6f7220617070726f76656420666f7220616c6c00000000000000006020830152604082019050919050565b6000612eb3600f8361369c565b91507f546865726520617265206f6e6c793a00000000000000000000000000000000006000830152602082019050919050565b6000612ef3602a8361369c565b91507f4552433732313a2062616c616e636520717565727920666f7220746865207a6560008301527f726f2061646472657373000000000000000000000000000000000000000000006020830152604082019050919050565b6000612f5960298361369c565b91507f4552433732313a206f776e657220717565727920666f72206e6f6e657869737460008301527f656e7420746f6b656e00000000000000000000000000000000000000000000006020830152604082019050919050565b6000612fbf60208361369c565b91507f4552433732313a206d696e7420746f20746865207a65726f20616464726573736000830152602082019050919050565b6000612fff602c8361369c565b91507f4552433732313a20617070726f76656420717565727920666f72206e6f6e657860008301527f697374656e7420746f6b656e00000000000000000000000000000000000000006020830152604082019050919050565b600061306560208361369c565b91507f4f776e61626c653a2063616c6c6572206973206e6f7420746865206f776e65726000830152602082019050919050565b60006130a560298361369c565b91507f4552433732313a207472616e73666572206f6620746f6b656e2074686174206960008301527f73206e6f74206f776e00000000000000000000000000000000000000000000006020830152604082019050919050565b600061310b602f8361369c565b91507f4552433732314d657461646174613a2055524920717565727920666f72206e6f60008301527f6e6578697374656e7420746f6b656e00000000000000000000000000000000006020830152604082019050919050565b600061317160218361369c565b91507f4552433732313a20617070726f76616c20746f2063757272656e74206f776e6560008301527f72000000000000000000000000000000000000000000000000000000000000006020830152604082019050919050565b60006131d760128361369c565b91507f596f752063616e206f6e6c79206d696e743a00000000000000000000000000006000830152602082019050919050565b600061321760318361369c565b91507f4552433732313a207472616e736665722063616c6c6572206973206e6f74206f60008301527f776e6572206e6f7220617070726f7665640000000000000000000000000000006020830152604082019050919050565b61327981613837565b82525050565b600061328b8286612b38565b91506132978285612b38565b91506132a38284612b69565b9150819050949350505050565b60006020820190506132c56000830184612aa8565b92915050565b60006080820190506132e06000830187612aa8565b6132ed6020830186612aa8565b6132fa6040830185613270565b818103606083015261330c8184612ac6565b905095945050505050565b600060208201905061332c6000830184612ab7565b92915050565b6000602082019050818103600083015261334c8184612aff565b905092915050565b6000602082019050818103600083015261336d81612be8565b9050919050565b6000602082019050818103600083015261338d81612c4e565b9050919050565b600060208201905081810360008301526133ad81612cb4565b9050919050565b600060208201905081810360008301526133cd81612cf4565b9050919050565b600060208201905081810360008301526133ed81612d34565b9050919050565b6000602082019050818103600083015261340d81612d9a565b9050919050565b6000602082019050818103600083015261342d81612dda565b9050919050565b6000602082019050818103600083015261344d81612e40565b9050919050565b6000602082019050818103600083015261346d81612ea6565b9050919050565b6000602082019050818103600083015261348d81612ee6565b9050919050565b600060208201905081810360008301526134ad81612f4c565b9050919050565b600060208201905081810360008301526134cd81612fb2565b9050919050565b600060208201905081810360008301526134ed81612ff2565b9050919050565b6000602082019050818103600083015261350d81613058565b9050919050565b6000602082019050818103600083015261352d81613098565b9050919050565b6000602082019050818103600083015261354d816130fe565b9050919050565b6000602082019050818103600083015261356d81613164565b9050919050565b6000602082019050818103600083015261358d816131ca565b9050919050565b600060208201905081810360008301526135ad8161320a565b9050919050565b60006020820190506135c96000830184613270565b92915050565b6000604051905081810181811067ffffffffffffffff821117156135f6576135f56139bc565b5b8060405250919050565b600067ffffffffffffffff82111561361b5761361a6139bc565b5b601f19601f8301169050602081019050919050565b600067ffffffffffffffff82111561364b5761364a6139bc565b5b601f19601f8301169050602081019050919050565b60008190508160005260206000209050919050565b600081519050919050565b600081519050919050565b600082825260208201905092915050565b600082825260208201905092915050565b600081905092915050565b60006136c382613837565b91506136ce83613837565b9250827fffffffffffffffffffffffffffffffffffffffffffffffffffffffffffffffff038211156137035761370261392f565b5b828201905092915050565b600061371982613837565b915061372483613837565b9250826137345761373361395e565b5b828204905092915050565b600061374a82613837565b915061375583613837565b9250817fffffffffffffffffffffffffffffffffffffffffffffffffffffffffffffffff048311821515161561378e5761378d61392f565b5b828202905092915050565b60006137a482613837565b91506137af83613837565b9250828210156137c2576137c161392f565b5b828203905092915050565b60006137d882613817565b9050919050565b60008115159050919050565b60007fffffffff0000000000000000000000000000000000000000000000000000000082169050919050565b600073ffffffffffffffffffffffffffffffffffffffff82169050919050565b6000819050919050565b82818337600083830152505050565b60005b8381101561386e578082015181840152602081019050613853565b8381111561387d576000848401525b50505050565b6000600282049050600182168061389b57607f821691505b602082108114156138af576138ae61398d565b5b50919050565b60006138c082613837565b91507fffffffffffffffffffffffffffffffffffffffffffffffffffffffffffffffff8214156138f3576138f261392f565b5b600182019050919050565b600061390982613837565b915061391483613837565b9250826139245761392361395e565b5b828206905092915050565b7f4e487b7100000000000000000000000000000000000000000000000000000000600052601160045260246000fd5b7f4e487b7100000000000000000000000000000000000000000000000000000000600052601260045260246000fd5b7f4e487b7100000000000000000000000000000000000000000000000000000000600052602260045260246000fd5b7f4e487b7100000000000000000000000000000000000000000000000000000000600052604160045260246000fd5b6000601f19601f8301169050919050565b613a05816137cd565b8114613a1057600080fd5b50565b613a1c816137df565b8114613a2757600080fd5b50565b613a33816137eb565b8114613a3e57600080fd5b50565b613a4a81613837565b8114613a5557600080fd5b5056fea26469706673582212202b780f20ff93f1f7177f9ef7a5961d1ac7beccf027e041174b76a1a5a30a344d64736f6c63430008000033",
  "immutableReferences": {},
  "source": "// SPDX-License-Identifier: MIT\r\n\r\npragma solidity ^0.8.0;\r\n\r\nimport \"@openzeppelin/contracts/token/ERC721/ERC721.sol\";\r\nimport \"@openzeppelin/contracts/access/Ownable.sol\";\r\nimport \"@openzeppelin/contracts/utils/Counters.sol\";\r\n\r\ncontract CommunitiesNFT is ERC721, Ownable {\r\n  using Strings for uint256;\r\n  using Counters for Counters.Counter;\r\n\r\n  Counters.Counter private _tokenSupply;\r\n\r\n  string public baseURI;\r\n  string public baseExtension = \".json\";\r\n  uint256 public cost = 0.01 ether;\r\n  uint256 public maxSupply = 1000;\r\n  uint256 public amountToMint;\r\n  bool public paused = false;\r\n  \r\n  //Mapping address whitelisted\r\n  mapping(address => bool) public whitelisted;\r\n\r\n  //Event\r\n  event LogAmountToMint(uint newAmountToMint);\r\n\r\n  constructor(\r\n    string memory _name,\r\n    string memory _symbol,\r\n    string memory _initBaseURI\r\n  ) ERC721(_name, _symbol) { \r\n    setBaseURI(_initBaseURI);\r\n  }\r\n\r\n  // internal\r\n  function _baseURI() internal view virtual override returns (string memory) {\r\n    return baseURI;\r\n  }\r\n\r\n  // public\r\n  \r\n\r\n  //Mint\r\n  function mint(address _to, uint256 _mintAmount) public payable {\r\n    uint256 mintIndex = _tokenSupply.current() + 1;\r\n\r\n    //Bonding curve \r\n    amountToMint = 2 * mintIndex + 9;\r\n    emit LogAmountToMint(amountToMint);\r\n\r\n    require(!paused);\r\n    require(_mintAmount > 0, \"The mint amount can't be 0.\");\r\n    require(_mintAmount <= amountToMint, \"You can only mint:\");\r\n    require(mintIndex + _mintAmount <= maxSupply, \"There are only:\");\r\n\r\n    \r\n    // If not the owner, must pay the fee and must be whitelisted.\r\n    if (msg.sender != owner()) {\r\n        if(whitelisted[msg.sender] != true) {\r\n          require(msg.value >= cost * _mintAmount);\r\n        }\r\n    }\r\n    \r\n    for (uint256 i = 0; i <= _mintAmount; i++) {\r\n      _tokenSupply.increment();\r\n      _safeMint(_to, _tokenSupply.current());\r\n    }\r\n  }\r\n\r\n  //function walletOfOwner(address _owner)\r\n  //  public\r\n  //  view\r\n  //  returns (uint256[] memory)\r\n  // {\r\n  //  uint256 ownerTokenCount = balanceOf(_owner);\r\n  //  uint256[] memory tokenIds = new uint256[](ownerTokenCount);\r\n  //  for (uint256 i; i < ownerTokenCount; i++) {\r\n  //    tokenIds[i] = tokenOfOwnerByIndex(_owner, i);\r\n  //  }\r\n  //  return tokenIds;\r\n  //}\r\n\r\n  function tokenURI(uint256 tokenId)\r\n    public\r\n    view\r\n    virtual\r\n    override\r\n    returns (string memory)\r\n  {\r\n    require(\r\n      _exists(tokenId),\r\n      \"ERC721Metadata: URI query for nonexistent token\"\r\n    );\r\n\r\n    string memory currentBaseURI = _baseURI();\r\n    return bytes(currentBaseURI).length > 0\r\n        ? string(abi.encodePacked(currentBaseURI, tokenId.toString(), baseExtension))\r\n        : \"\";\r\n  }\r\n\r\n  \r\n  //Only owner\r\n  \r\n  function setCost(uint256 _newCost) public onlyOwner {\r\n    cost = _newCost;\r\n  }\r\n\r\n  //function setmaxMintAmount(uint256 _newmaxMintAmount) public onlyOwner {\r\n  //  maxMintAmount = _newmaxMintAmount;\r\n  //}\r\n\r\n  function setBaseURI(string memory _newBaseURI) public onlyOwner {\r\n    baseURI = _newBaseURI;\r\n  }\r\n\r\n  function setBaseExtension(string memory _newBaseExtension) public onlyOwner {\r\n    baseExtension = _newBaseExtension;\r\n  }\r\n\r\n  function pause(bool _state) public onlyOwner {\r\n    paused = _state;\r\n  }\r\n \r\n function whitelistUser(address _user) public onlyOwner {\r\n    whitelisted[_user] = true;\r\n  }\r\n \r\n  function removeWhitelistUser(address _user) public onlyOwner {\r\n    whitelisted[_user] = false;\r\n  }\r\n\r\n  function withdraw() public payable onlyOwner {\r\n    require(payable(msg.sender).send(address(this).balance));\r\n  }\r\n\r\n\r\n}",
  "sourcePath": "/mnt/c/Users/Max/GitHub/blockchain-developer-bootcamp-final-project/contracts/CommunitiesNFT.sol",
  "compiler": {
    "name": "solc",
    "version": "0.8.0+commit.c7dfd78e.Emscripten.clang"
  },
  "schemaVersion": "3.4.3",
  "updatedAt": "2021-11-18T15:45:29.276Z",
  "networkType": "ethereum",
  "devdoc": {
    "kind": "dev",
    "methods": {
      "approve(address,uint256)": {
        "details": "See {IERC721-approve}."
      },
      "balanceOf(address)": {
        "details": "See {IERC721-balanceOf}."
      },
      "getApproved(uint256)": {
        "details": "See {IERC721-getApproved}."
      },
      "isApprovedForAll(address,address)": {
        "details": "See {IERC721-isApprovedForAll}."
      },
      "name()": {
        "details": "See {IERC721Metadata-name}."
      },
      "owner()": {
        "details": "Returns the address of the current owner."
      },
      "ownerOf(uint256)": {
        "details": "See {IERC721-ownerOf}."
      },
      "renounceOwnership()": {
        "details": "Leaves the contract without owner. It will not be possible to call `onlyOwner` functions anymore. Can only be called by the current owner. NOTE: Renouncing ownership will leave the contract without an owner, thereby removing any functionality that is only available to the owner."
      },
      "safeTransferFrom(address,address,uint256)": {
        "details": "See {IERC721-safeTransferFrom}."
      },
      "safeTransferFrom(address,address,uint256,bytes)": {
        "details": "See {IERC721-safeTransferFrom}."
      },
      "setApprovalForAll(address,bool)": {
        "details": "See {IERC721-setApprovalForAll}."
      },
      "supportsInterface(bytes4)": {
        "details": "See {IERC165-supportsInterface}."
      },
      "symbol()": {
        "details": "See {IERC721Metadata-symbol}."
      },
      "tokenURI(uint256)": {
        "details": "See {IERC721Metadata-tokenURI}."
      },
      "transferFrom(address,address,uint256)": {
        "details": "See {IERC721-transferFrom}."
      },
      "transferOwnership(address)": {
        "details": "Transfers ownership of the contract to a new account (`newOwner`). Can only be called by the current owner."
      }
    },
    "version": 1
  },
  "userdoc": {
    "kind": "user",
    "methods": {},
    "version": 1
  }
}