{
  "contractName": "CommunitiesNFT",
  "abi": [
    {
      "inputs": [
        {
          "internalType": "string",
          "name": "_name",
          "type": "string"
        },
        {
          "internalType": "string",
          "name": "_symbol",
          "type": "string"
        }
      ],
      "stateMutability": "nonpayable",
      "type": "constructor"
    },
    {
      "anonymous": false,
      "inputs": [
        {
          "indexed": true,
          "internalType": "address",
          "name": "owner",
          "type": "address"
        },
        {
          "indexed": true,
          "internalType": "address",
          "name": "approved",
          "type": "address"
        },
        {
          "indexed": true,
          "internalType": "uint256",
          "name": "tokenId",
          "type": "uint256"
        }
      ],
      "name": "Approval",
      "type": "event"
    },
    {
      "anonymous": false,
      "inputs": [
        {
          "indexed": true,
          "internalType": "address",
          "name": "owner",
          "type": "address"
        },
        {
          "indexed": true,
          "internalType": "address",
          "name": "operator",
          "type": "address"
        },
        {
          "indexed": false,
          "internalType": "bool",
          "name": "approved",
          "type": "bool"
        }
      ],
      "name": "ApprovalForAll",
      "type": "event"
    },
    {
      "anonymous": false,
      "inputs": [
        {
          "indexed": false,
          "internalType": "uint256",
          "name": "newAmountToMint",
          "type": "uint256"
        }
      ],
      "name": "LogAmountToMint",
      "type": "event"
    },
    {
      "anonymous": false,
      "inputs": [
        {
          "indexed": false,
          "internalType": "address",
          "name": "sender",
          "type": "address"
        },
        {
          "indexed": false,
          "internalType": "uint256",
          "name": "tokenId",
          "type": "uint256"
        }
      ],
      "name": "NewNFTMinted",
      "type": "event"
    },
    {
      "anonymous": false,
      "inputs": [
        {
          "indexed": true,
          "internalType": "address",
          "name": "previousOwner",
          "type": "address"
        },
        {
          "indexed": true,
          "internalType": "address",
          "name": "newOwner",
          "type": "address"
        }
      ],
      "name": "OwnershipTransferred",
      "type": "event"
    },
    {
      "anonymous": false,
      "inputs": [
        {
          "indexed": true,
          "internalType": "address",
          "name": "from",
          "type": "address"
        },
        {
          "indexed": true,
          "internalType": "address",
          "name": "to",
          "type": "address"
        },
        {
          "indexed": true,
          "internalType": "uint256",
          "name": "tokenId",
          "type": "uint256"
        }
      ],
      "name": "Transfer",
      "type": "event"
    },
    {
      "anonymous": false,
      "inputs": [
        {
          "indexed": false,
          "internalType": "address",
          "name": "sender",
          "type": "address"
        },
        {
          "indexed": false,
          "internalType": "uint256",
          "name": "amountNftMinted",
          "type": "uint256"
        }
      ],
      "name": "finishTheMinting",
      "type": "event"
    },
    {
      "inputs": [
        {
          "internalType": "address",
          "name": "to",
          "type": "address"
        },
        {
          "internalType": "uint256",
          "name": "tokenId",
          "type": "uint256"
        }
      ],
      "name": "approve",
      "outputs": [],
      "stateMutability": "nonpayable",
      "type": "function"
    },
    {
      "inputs": [
        {
          "internalType": "address",
          "name": "owner",
          "type": "address"
        }
      ],
      "name": "balanceOf",
      "outputs": [
        {
          "internalType": "uint256",
          "name": "",
          "type": "uint256"
        }
      ],
      "stateMutability": "view",
      "type": "function",
      "constant": true
    },
    {
      "inputs": [],
      "name": "cost",
      "outputs": [
        {
          "internalType": "uint256",
          "name": "",
          "type": "uint256"
        }
      ],
      "stateMutability": "view",
      "type": "function",
      "constant": true
    },
    {
      "inputs": [
        {
          "internalType": "uint256",
          "name": "tokenId",
          "type": "uint256"
        }
      ],
      "name": "getApproved",
      "outputs": [
        {
          "internalType": "address",
          "name": "",
          "type": "address"
        }
      ],
      "stateMutability": "view",
      "type": "function",
      "constant": true
    },
    {
      "inputs": [
        {
          "internalType": "address",
          "name": "owner",
          "type": "address"
        },
        {
          "internalType": "address",
          "name": "operator",
          "type": "address"
        }
      ],
      "name": "isApprovedForAll",
      "outputs": [
        {
          "internalType": "bool",
          "name": "",
          "type": "bool"
        }
      ],
      "stateMutability": "view",
      "type": "function",
      "constant": true
    },
    {
      "inputs": [],
      "name": "maxSupply",
      "outputs": [
        {
          "internalType": "uint256",
          "name": "",
          "type": "uint256"
        }
      ],
      "stateMutability": "view",
      "type": "function",
      "constant": true
    },
    {
      "inputs": [],
      "name": "name",
      "outputs": [
        {
          "internalType": "string",
          "name": "",
          "type": "string"
        }
      ],
      "stateMutability": "view",
      "type": "function",
      "constant": true
    },
    {
      "inputs": [],
      "name": "owner",
      "outputs": [
        {
          "internalType": "address",
          "name": "",
          "type": "address"
        }
      ],
      "stateMutability": "view",
      "type": "function",
      "constant": true
    },
    {
      "inputs": [
        {
          "internalType": "uint256",
          "name": "tokenId",
          "type": "uint256"
        }
      ],
      "name": "ownerOf",
      "outputs": [
        {
          "internalType": "address",
          "name": "",
          "type": "address"
        }
      ],
      "stateMutability": "view",
      "type": "function",
      "constant": true
    },
    {
      "inputs": [],
      "name": "paused",
      "outputs": [
        {
          "internalType": "bool",
          "name": "",
          "type": "bool"
        }
      ],
      "stateMutability": "view",
      "type": "function",
      "constant": true
    },
    {
      "inputs": [],
      "name": "renounceOwnership",
      "outputs": [],
      "stateMutability": "nonpayable",
      "type": "function"
    },
    {
      "inputs": [
        {
          "internalType": "address",
          "name": "from",
          "type": "address"
        },
        {
          "internalType": "address",
          "name": "to",
          "type": "address"
        },
        {
          "internalType": "uint256",
          "name": "tokenId",
          "type": "uint256"
        }
      ],
      "name": "safeTransferFrom",
      "outputs": [],
      "stateMutability": "nonpayable",
      "type": "function"
    },
    {
      "inputs": [
        {
          "internalType": "address",
          "name": "from",
          "type": "address"
        },
        {
          "internalType": "address",
          "name": "to",
          "type": "address"
        },
        {
          "internalType": "uint256",
          "name": "tokenId",
          "type": "uint256"
        },
        {
          "internalType": "bytes",
          "name": "_data",
          "type": "bytes"
        }
      ],
      "name": "safeTransferFrom",
      "outputs": [],
      "stateMutability": "nonpayable",
      "type": "function"
    },
    {
      "inputs": [
        {
          "internalType": "address",
          "name": "operator",
          "type": "address"
        },
        {
          "internalType": "bool",
          "name": "approved",
          "type": "bool"
        }
      ],
      "name": "setApprovalForAll",
      "outputs": [],
      "stateMutability": "nonpayable",
      "type": "function"
    },
    {
      "inputs": [
        {
          "internalType": "bytes4",
          "name": "interfaceId",
          "type": "bytes4"
        }
      ],
      "name": "supportsInterface",
      "outputs": [
        {
          "internalType": "bool",
          "name": "",
          "type": "bool"
        }
      ],
      "stateMutability": "view",
      "type": "function",
      "constant": true
    },
    {
      "inputs": [],
      "name": "symbol",
      "outputs": [
        {
          "internalType": "string",
          "name": "",
          "type": "string"
        }
      ],
      "stateMutability": "view",
      "type": "function",
      "constant": true
    },
    {
      "inputs": [
        {
          "internalType": "address",
          "name": "from",
          "type": "address"
        },
        {
          "internalType": "address",
          "name": "to",
          "type": "address"
        },
        {
          "internalType": "uint256",
          "name": "tokenId",
          "type": "uint256"
        }
      ],
      "name": "transferFrom",
      "outputs": [],
      "stateMutability": "nonpayable",
      "type": "function"
    },
    {
      "inputs": [
        {
          "internalType": "address",
          "name": "newOwner",
          "type": "address"
        }
      ],
      "name": "transferOwnership",
      "outputs": [],
      "stateMutability": "nonpayable",
      "type": "function"
    },
    {
      "inputs": [
        {
          "internalType": "address",
          "name": "",
          "type": "address"
        }
      ],
      "name": "whitelisted",
      "outputs": [
        {
          "internalType": "bool",
          "name": "",
          "type": "bool"
        }
      ],
      "stateMutability": "view",
      "type": "function",
      "constant": true
    },
    {
      "inputs": [
        {
          "internalType": "uint256",
          "name": "tokenId",
          "type": "uint256"
        }
      ],
      "name": "pickRandomWord",
      "outputs": [
        {
          "internalType": "string",
          "name": "",
          "type": "string"
        }
      ],
      "stateMutability": "view",
      "type": "function",
      "constant": true
    },
    {
      "inputs": [],
      "name": "tokensMinted",
      "outputs": [
        {
          "internalType": "uint256",
          "name": "",
          "type": "uint256"
        }
      ],
      "stateMutability": "view",
      "type": "function",
      "constant": true
    },
    {
      "inputs": [],
      "name": "mint",
      "outputs": [],
      "stateMutability": "payable",
      "type": "function",
      "payable": true
    },
    {
      "inputs": [
        {
          "internalType": "uint256",
          "name": "_newCost",
          "type": "uint256"
        }
      ],
      "name": "setCost",
      "outputs": [],
      "stateMutability": "nonpayable",
      "type": "function"
    },
    {
      "inputs": [
        {
          "internalType": "bool",
          "name": "_state",
          "type": "bool"
        }
      ],
      "name": "pause",
      "outputs": [],
      "stateMutability": "nonpayable",
      "type": "function"
    },
    {
      "inputs": [
        {
          "internalType": "address",
          "name": "_user",
          "type": "address"
        }
      ],
      "name": "whitelistUser",
      "outputs": [],
      "stateMutability": "nonpayable",
      "type": "function"
    },
    {
      "inputs": [
        {
          "internalType": "address",
          "name": "_user",
          "type": "address"
        }
      ],
      "name": "removeWhitelistUser",
      "outputs": [],
      "stateMutability": "nonpayable",
      "type": "function"
    },
    {
      "inputs": [],
      "name": "withdraw",
      "outputs": [],
      "stateMutability": "payable",
      "type": "function",
      "payable": true
    },
    {
      "inputs": [
        {
          "internalType": "uint256",
          "name": "tokenId",
          "type": "uint256"
        }
      ],
      "name": "tokenURI",
      "outputs": [
        {
          "internalType": "string",
          "name": "",
          "type": "string"
        }
      ],
      "stateMutability": "view",
      "type": "function",
      "constant": true
    }
  ],
  "bytecode": "0x60806040526000600960006101000a81548160ff02191690831515021790555066038d7ea4c68000600a55612710600b556000600c5560405180610160016040528061012f81526020016200474761012f9139600d90805190602001906200006992919062000461565b506040518061014001604052806040518060400160405280600981526020017f446166742050756e6b000000000000000000000000000000000000000000000081525081526020016040518060400160405280600981526020017f546f6d205065747479000000000000000000000000000000000000000000000081525081526020016040518060400160405280600b81526020017f417263616465204669726500000000000000000000000000000000000000000081525081526020016040518060400160405280600b81526020017f5265616c2045737461746500000000000000000000000000000000000000000081525081526020016040518060400160405280601181526020017f4d79204d6f726e696e67204a61636b657400000000000000000000000000000081525081526020016040518060400160405280600d81526020017f4c6f63616c204e6174697665730000000000000000000000000000000000000081525081526020016040518060400160405280600b81526020017f467275697473204261747300000000000000000000000000000000000000000081525081526020016040518060400160405280600f81526020017f56616d70697265205765656b656e64000000000000000000000000000000000081525081526020016040518060400160405280600681526020017f506978696573000000000000000000000000000000000000000000000000000081525081526020016040518060400160405280601081526020017f506f72747567616c20746865204d616e00000000000000000000000000000000815250815250600e90600a620002d4929190620004f2565b50348015620002e257600080fd5b506040516200487638038062004876833981810160405281019062000308919062000658565b818181600090805190602001906200032292919062000461565b5080600190805190602001906200033b92919062000461565b5050506200035e620003526200037d60201b60201c565b6200038560201b60201c565b6200037560086200044b60201b620017f61760201c565b5050620007fc565b600033905090565b6000600760009054906101000a900473ffffffffffffffffffffffffffffffffffffffff16905081600760006101000a81548173ffffffffffffffffffffffffffffffffffffffff021916908373ffffffffffffffffffffffffffffffffffffffff1602179055508173ffffffffffffffffffffffffffffffffffffffff168173ffffffffffffffffffffffffffffffffffffffff167f8be0079c531659141344cd1fd0a4f28419497f9722a3daafe3b4186f6b6457e060405160405180910390a35050565b6001816000016000828254019250508190555050565b8280546200046f9062000768565b90600052602060002090601f016020900481019282620004935760008555620004df565b82601f10620004ae57805160ff1916838001178555620004df565b82800160010185558215620004df579182015b82811115620004de578251825591602001919060010190620004c1565b5b509050620004ee919062000559565b5090565b82805482825590600052602060002090810192821562000546579160200282015b82811115620005455782518290805190602001906200053492919062000461565b509160200191906001019062000513565b5b50905062000555919062000578565b5090565b5b80821115620005745760008160009055506001016200055a565b5090565b5b808211156200059c5760008181620005929190620005a0565b5060010162000579565b5090565b508054620005ae9062000768565b6000825580601f10620005c25750620005e3565b601f016020900490600052602060002090810190620005e2919062000559565b5b50565b6000620005fd620005f784620006ff565b620006cb565b9050828152602081018484840111156200061657600080fd5b6200062384828562000732565b509392505050565b600082601f8301126200063d57600080fd5b81516200064f848260208601620005e6565b91505092915050565b600080604083850312156200066c57600080fd5b600083015167ffffffffffffffff8111156200068757600080fd5b62000695858286016200062b565b925050602083015167ffffffffffffffff811115620006b357600080fd5b620006c1858286016200062b565b9150509250929050565b6000604051905081810181811067ffffffffffffffff82111715620006f557620006f4620007cd565b5b8060405250919050565b600067ffffffffffffffff8211156200071d576200071c620007cd565b5b601f19601f8301169050602081019050919050565b60005b838110156200075257808201518184015260208101905062000735565b8381111562000762576000848401525b50505050565b600060028204905060018216806200078157607f821691505b602082108114156200079857620007976200079e565b5b50919050565b7f4e487b7100000000000000000000000000000000000000000000000000000000600052602260045260246000fd5b7f4e487b7100000000000000000000000000000000000000000000000000000000600052604160045260246000fd5b613f3b806200080c6000396000f3fe6080604052600436106101b75760003560e01c80635c975abb116100ec578063a22cb4651161008a578063d5abeb0111610064578063d5abeb01146105c8578063d936547e146105f3578063e985e9c514610630578063f2fde38b1461066d576101b7565b8063a22cb46514610539578063b88d4fde14610562578063c87b56dd1461058b576101b7565b806370a08231116100c657806370a082311461048f578063715018a6146104cc5780638da5cb5b146104e357806395d89b411461050e576101b7565b80635c975abb146103fc5780636352211e146104275780636de9f32b14610464576101b7565b806323b872dd116101595780633e1831dd116101335780633e1831dd1461034457806342842e0e1461038157806344a0d68a146103aa5780634a4c560d146103d3576101b7565b806323b872dd146102e857806330cc7ae0146103115780633ccfd60b1461033a576101b7565b8063081812fc11610195578063081812fc1461024d578063095ea7b31461028a5780631249c58b146102b357806313faede6146102bd576101b7565b806301ffc9a7146101bc57806302329a29146101f957806306fdde0314610222575b600080fd5b3480156101c857600080fd5b506101e360048036038101906101de9190612bc7565b610696565b6040516101f091906137b4565b60405180910390f35b34801561020557600080fd5b50610220600480360381019061021b9190612b9e565b610778565b005b34801561022e57600080fd5b50610237610811565b60405161024491906137cf565b60405180910390f35b34801561025957600080fd5b50610274600480360381019061026f9190612c19565b6108a3565b6040516102819190613724565b60405180910390f35b34801561029657600080fd5b506102b160048036038101906102ac9190612b62565b610928565b005b6102bb610a40565b005b3480156102c957600080fd5b506102d2610ce9565b6040516102df9190613a51565b60405180910390f35b3480156102f457600080fd5b5061030f600480360381019061030a9190612a5c565b610cef565b005b34801561031d57600080fd5b50610338600480360381019061033391906129f7565b610d4f565b005b610342610e26565b005b34801561035057600080fd5b5061036b60048036038101906103669190612c19565b610ee2565b60405161037891906137cf565b60405180910390f35b34801561038d57600080fd5b506103a860048036038101906103a39190612a5c565b611000565b005b3480156103b657600080fd5b506103d160048036038101906103cc9190612c19565b611020565b005b3480156103df57600080fd5b506103fa60048036038101906103f591906129f7565b6110a6565b005b34801561040857600080fd5b5061041161117d565b60405161041e91906137b4565b60405180910390f35b34801561043357600080fd5b5061044e60048036038101906104499190612c19565b611190565b60405161045b9190613724565b60405180910390f35b34801561047057600080fd5b50610479611242565b6040516104869190613a51565b60405180910390f35b34801561049b57600080fd5b506104b660048036038101906104b191906129f7565b611253565b6040516104c39190613a51565b60405180910390f35b3480156104d857600080fd5b506104e161130b565b005b3480156104ef57600080fd5b506104f8611393565b6040516105059190613724565b60405180910390f35b34801561051a57600080fd5b506105236113bd565b60405161053091906137cf565b60405180910390f35b34801561054557600080fd5b50610560600480360381019061055b9190612b26565b61144f565b005b34801561056e57600080fd5b5061058960048036038101906105849190612aab565b6115d0565b005b34801561059757600080fd5b506105b260048036038101906105ad9190612c19565b611632565b6040516105bf91906137cf565b60405180910390f35b3480156105d457600080fd5b506105dd611644565b6040516105ea9190613a51565b60405180910390f35b3480156105ff57600080fd5b5061061a600480360381019061061591906129f7565b61164a565b60405161062791906137b4565b60405180910390f35b34801561063c57600080fd5b5061065760048036038101906106529190612a20565b61166a565b60405161066491906137b4565b60405180910390f35b34801561067957600080fd5b50610694600480360381019061068f91906129f7565b6116fe565b005b60007f80ac58cd000000000000000000000000000000000000000000000000000000007bffffffffffffffffffffffffffffffffffffffffffffffffffffffff1916827bffffffffffffffffffffffffffffffffffffffffffffffffffffffff1916148061076157507f5b5e139f000000000000000000000000000000000000000000000000000000007bffffffffffffffffffffffffffffffffffffffffffffffffffffffff1916827bffffffffffffffffffffffffffffffffffffffffffffffffffffffff1916145b8061077157506107708261180c565b5b9050919050565b610780611876565b73ffffffffffffffffffffffffffffffffffffffff1661079e611393565b73ffffffffffffffffffffffffffffffffffffffff16146107f4576040517f08c379a00000000000000000000000000000000000000000000000000000000081526004016107eb906139b1565b60405180910390fd5b80600960006101000a81548160ff02191690831515021790555050565b60606000805461082090613cf0565b80601f016020809104026020016040519081016040528092919081815260200182805461084c90613cf0565b80156108995780601f1061086e57610100808354040283529160200191610899565b820191906000526020600020905b81548152906001019060200180831161087c57829003601f168201915b5050505050905090565b60006108ae8261187e565b6108ed576040517f08c379a00000000000000000000000000000000000000000000000000000000081526004016108e490613971565b60405180910390fd5b6004600083815260200190815260200160002060009054906101000a900473ffffffffffffffffffffffffffffffffffffffff169050919050565b600061093382611190565b90508073ffffffffffffffffffffffffffffffffffffffff168373ffffffffffffffffffffffffffffffffffffffff1614156109a4576040517f08c379a000000000000000000000000000000000000000000000000000000000815260040161099b90613a11565b60405180910390fd5b8073ffffffffffffffffffffffffffffffffffffffff166109c3611876565b73ffffffffffffffffffffffffffffffffffffffff1614806109f257506109f1816109ec611876565b61166a565b5b610a31576040517f08c379a0000000000000000000000000000000000000000000000000000000008152600401610a28906138b1565b60405180910390fd5b610a3b83836118ea565b505050565b6000610a4a6119a3565b90506000610a586008611a01565b9050600960009054906101000a900460ff1615610a7457600080fd5b600b5482610a826008611a01565b610a8c9190613b25565b1115610acd576040517f08c379a0000000000000000000000000000000000000000000000000000000008152600401610ac490613991565b60405180910390fd5b610ad5611393565b73ffffffffffffffffffffffffffffffffffffffff163373ffffffffffffffffffffffffffffffffffffffff1614610b7b5760011515600f60003373ffffffffffffffffffffffffffffffffffffffff1673ffffffffffffffffffffffffffffffffffffffff16815260200190815260200160002060009054906101000a900460ff16151514610b7a5781600a54610b6d9190613bac565b341015610b7957600080fd5b5b5b6000610b8682610ee2565b90506000600d82604051602001610b9e92919061366c565b60405160208183030381529060405290506000610be383610bbe84611a0f565b604051602001610bcf92919061369b565b604051602081830303815290604052611a0f565b9050600081604051602001610bf89190613702565b60405160208183030381529060405290506000600190505b868111610c8d57610c216008611a01565b9550610c2d60086117f6565b610c373387611bcd565b610c418683611beb565b7f1c05098ed1ff38e6238d2b1b04b2c7977d4c94ce651bda6473f9dba8dbf01da03387604051610c7292919061378b565b60405180910390a18080610c8590613d22565b915050610c10565b507f0959a009933a92f1826c0a53b4fcf4721d503733af5ae8f27ca129d2fa8fe0fe3387604051610cbf92919061378b565b60405180910390a16001600c6000828254610cda9190613b25565b92505081905550505050505050565b600a5481565b610d00610cfa611876565b82611c5f565b610d3f576040517f08c379a0000000000000000000000000000000000000000000000000000000008152600401610d3690613a31565b60405180910390fd5b610d4a838383611d3d565b505050565b610d57611876565b73ffffffffffffffffffffffffffffffffffffffff16610d75611393565b73ffffffffffffffffffffffffffffffffffffffff1614610dcb576040517f08c379a0000000000000000000000000000000000000000000000000000000008152600401610dc2906139b1565b60405180910390fd5b6000600f60008373ffffffffffffffffffffffffffffffffffffffff1673ffffffffffffffffffffffffffffffffffffffff16815260200190815260200160002060006101000a81548160ff02191690831515021790555050565b610e2e611876565b73ffffffffffffffffffffffffffffffffffffffff16610e4c611393565b73ffffffffffffffffffffffffffffffffffffffff1614610ea2576040517f08c379a0000000000000000000000000000000000000000000000000000000008152600401610e99906139b1565b60405180910390fd5b3373ffffffffffffffffffffffffffffffffffffffff166108fc479081150290604051600060405180830381858888f19350505050610ee057600080fd5b565b60606000610f16610ef284611f99565b604051602001610f0291906136e0565b604051602081830303815290604052612146565b9050600e8054905081610f299190613d6b565b9050600e8181548110610f65577f4e487b7100000000000000000000000000000000000000000000000000000000600052603260045260246000fd5b906000526020600020018054610f7a90613cf0565b80601f0160208091040260200160405190810160405280929190818152602001828054610fa690613cf0565b8015610ff35780601f10610fc857610100808354040283529160200191610ff3565b820191906000526020600020905b815481529060010190602001808311610fd657829003601f168201915b5050505050915050919050565b61101b838383604051806020016040528060008152506115d0565b505050565b611028611876565b73ffffffffffffffffffffffffffffffffffffffff16611046611393565b73ffffffffffffffffffffffffffffffffffffffff161461109c576040517f08c379a0000000000000000000000000000000000000000000000000000000008152600401611093906139b1565b60405180910390fd5b80600a8190555050565b6110ae611876565b73ffffffffffffffffffffffffffffffffffffffff166110cc611393565b73ffffffffffffffffffffffffffffffffffffffff1614611122576040517f08c379a0000000000000000000000000000000000000000000000000000000008152600401611119906139b1565b60405180910390fd5b6001600f60008373ffffffffffffffffffffffffffffffffffffffff1673ffffffffffffffffffffffffffffffffffffffff16815260200190815260200160002060006101000a81548160ff02191690831515021790555050565b600960009054906101000a900460ff1681565b6000806002600084815260200190815260200160002060009054906101000a900473ffffffffffffffffffffffffffffffffffffffff169050600073ffffffffffffffffffffffffffffffffffffffff168173ffffffffffffffffffffffffffffffffffffffff161415611239576040517f08c379a0000000000000000000000000000000000000000000000000000000008152600401611230906138f1565b60405180910390fd5b80915050919050565b600061124e6008611a01565b905090565b60008073ffffffffffffffffffffffffffffffffffffffff168273ffffffffffffffffffffffffffffffffffffffff1614156112c4576040517f08c379a00000000000000000000000000000000000000000000000000000000081526004016112bb906138d1565b60405180910390fd5b600360008373ffffffffffffffffffffffffffffffffffffffff1673ffffffffffffffffffffffffffffffffffffffff168152602001908152602001600020549050919050565b611313611876565b73ffffffffffffffffffffffffffffffffffffffff16611331611393565b73ffffffffffffffffffffffffffffffffffffffff1614611387576040517f08c379a000000000000000000000000000000000000000000000000000000000815260040161137e906139b1565b60405180910390fd5b6113916000612179565b565b6000600760009054906101000a900473ffffffffffffffffffffffffffffffffffffffff16905090565b6060600180546113cc90613cf0565b80601f01602080910402602001604051908101604052809291908181526020018280546113f890613cf0565b80156114455780601f1061141a57610100808354040283529160200191611445565b820191906000526020600020905b81548152906001019060200180831161142857829003601f168201915b5050505050905090565b611457611876565b73ffffffffffffffffffffffffffffffffffffffff168273ffffffffffffffffffffffffffffffffffffffff1614156114c5576040517f08c379a00000000000000000000000000000000000000000000000000000000081526004016114bc90613871565b60405180910390fd5b80600560006114d2611876565b73ffffffffffffffffffffffffffffffffffffffff1673ffffffffffffffffffffffffffffffffffffffff16815260200190815260200160002060008473ffffffffffffffffffffffffffffffffffffffff1673ffffffffffffffffffffffffffffffffffffffff16815260200190815260200160002060006101000a81548160ff0219169083151502179055508173ffffffffffffffffffffffffffffffffffffffff1661157f611876565b73ffffffffffffffffffffffffffffffffffffffff167f17307eab39ab6107e8899845ad3d59bd9653f200f220920489ca2b5937696c31836040516115c491906137b4565b60405180910390a35050565b6115e16115db611876565b83611c5f565b611620576040517f08c379a000000000000000000000000000000000000000000000000000000000815260040161161790613a31565b60405180910390fd5b61162c8484848461223f565b50505050565b606061163d8261229b565b9050919050565b600b5481565b600f6020528060005260406000206000915054906101000a900460ff1681565b6000600560008473ffffffffffffffffffffffffffffffffffffffff1673ffffffffffffffffffffffffffffffffffffffff16815260200190815260200160002060008373ffffffffffffffffffffffffffffffffffffffff1673ffffffffffffffffffffffffffffffffffffffff16815260200190815260200160002060009054906101000a900460ff16905092915050565b611706611876565b73ffffffffffffffffffffffffffffffffffffffff16611724611393565b73ffffffffffffffffffffffffffffffffffffffff161461177a576040517f08c379a0000000000000000000000000000000000000000000000000000000008152600401611771906139b1565b60405180910390fd5b600073ffffffffffffffffffffffffffffffffffffffff168173ffffffffffffffffffffffffffffffffffffffff1614156117ea576040517f08c379a00000000000000000000000000000000000000000000000000000000081526004016117e190613811565b60405180910390fd5b6117f381612179565b50565b6001816000016000828254019250508190555050565b60007f01ffc9a7000000000000000000000000000000000000000000000000000000007bffffffffffffffffffffffffffffffffffffffffffffffffffffffff1916827bffffffffffffffffffffffffffffffffffffffffffffffffffffffff1916149050919050565b600033905090565b60008073ffffffffffffffffffffffffffffffffffffffff166002600084815260200190815260200160002060009054906101000a900473ffffffffffffffffffffffffffffffffffffffff1673ffffffffffffffffffffffffffffffffffffffff1614159050919050565b816004600083815260200190815260200160002060006101000a81548173ffffffffffffffffffffffffffffffffffffffff021916908373ffffffffffffffffffffffffffffffffffffffff160217905550808273ffffffffffffffffffffffffffffffffffffffff1661195d83611190565b73ffffffffffffffffffffffffffffffffffffffff167f8c5be1e5ebec7d5bd14f71427d1e84f3dd0314c0f7b2291e5b200ac8c7c3b92560405160405180910390a45050565b6000806004600c5460026119b79190613bac565b6119c19190613b25565b90507fe183cd66cc3f86acd872e22ef3247fbaf8d7d2c80ad391b70ec38de34cd9b042816040516119f29190613a51565b60405180910390a18091505090565b600081600001549050919050565b60606000825190506000811415611a385760405180602001604052806000815250915050611bc8565b60006003600283611a499190613b25565b611a539190613b7b565b6004611a5f9190613bac565b90506000602082611a709190613b25565b67ffffffffffffffff811115611aaf577f4e487b7100000000000000000000000000000000000000000000000000000000600052604160045260246000fd5b6040519080825280601f01601f191660200182016040528015611ae15781602001600182028036833780820191505090505b5090506000604051806060016040528060408152602001613ec6604091399050600181016020830160005b86811015611b855760038101905062ffffff818a015116603f8160121c168401518060081b905060ff603f83600c1c1686015116810190508060081b905060ff603f8360061c1686015116810190508060081b905060ff603f831686015116810190508060e01b90508084526004840193505050611b0c565b506003860660018114611b9f5760028114611baf57611bba565b613d3d60f01b6002830352611bba565b603d60f81b60018303525b508484525050819450505050505b919050565b611be78282604051806020016040528060008152506123ed565b5050565b611bf48261187e565b611c33576040517f08c379a0000000000000000000000000000000000000000000000000000000008152600401611c2a90613911565b60405180910390fd5b80600660008481526020019081526020016000209080519060200190611c5a929190612883565b505050565b6000611c6a8261187e565b611ca9576040517f08c379a0000000000000000000000000000000000000000000000000000000008152600401611ca090613891565b60405180910390fd5b6000611cb483611190565b90508073ffffffffffffffffffffffffffffffffffffffff168473ffffffffffffffffffffffffffffffffffffffff161480611d2357508373ffffffffffffffffffffffffffffffffffffffff16611d0b846108a3565b73ffffffffffffffffffffffffffffffffffffffff16145b80611d345750611d33818561166a565b5b91505092915050565b8273ffffffffffffffffffffffffffffffffffffffff16611d5d82611190565b73ffffffffffffffffffffffffffffffffffffffff1614611db3576040517f08c379a0000000000000000000000000000000000000000000000000000000008152600401611daa906139d1565b60405180910390fd5b600073ffffffffffffffffffffffffffffffffffffffff168273ffffffffffffffffffffffffffffffffffffffff161415611e23576040517f08c379a0000000000000000000000000000000000000000000000000000000008152600401611e1a90613851565b60405180910390fd5b611e2e838383612448565b611e396000826118ea565b6001600360008573ffffffffffffffffffffffffffffffffffffffff1673ffffffffffffffffffffffffffffffffffffffff1681526020019081526020016000206000828254611e899190613c06565b925050819055506001600360008473ffffffffffffffffffffffffffffffffffffffff1673ffffffffffffffffffffffffffffffffffffffff1681526020019081526020016000206000828254611ee09190613b25565b92505081905550816002600083815260200190815260200160002060006101000a81548173ffffffffffffffffffffffffffffffffffffffff021916908373ffffffffffffffffffffffffffffffffffffffff160217905550808273ffffffffffffffffffffffffffffffffffffffff168473ffffffffffffffffffffffffffffffffffffffff167fddf252ad1be2c89b69c2b068fc378daa952ba7f163c4a11628f55a4df523b3ef60405160405180910390a4505050565b60606000821415611fe1576040518060400160405280600181526020017f30000000000000000000000000000000000000000000000000000000000000008152509050612141565b600082905060005b60008214612013578080611ffc90613d22565b915050600a8261200c9190613b7b565b9150611fe9565b60008167ffffffffffffffff811115612055577f4e487b7100000000000000000000000000000000000000000000000000000000600052604160045260246000fd5b6040519080825280601f01601f1916602001820160405280156120875781602001600182028036833780820191505090505b5090505b6000851461213a576001826120a09190613c06565b9150600a856120af9190613d6b565b60306120bb9190613b25565b60f81b8183815181106120f7577f4e487b7100000000000000000000000000000000000000000000000000000000600052603260045260246000fd5b60200101907effffffffffffffffffffffffffffffffffffffffffffffffffffffffffffff1916908160001a905350600a856121339190613b7b565b945061208b565b8093505050505b919050565b6000816040516020016121599190613631565b6040516020818303038152906040528051906020012060001c9050919050565b6000600760009054906101000a900473ffffffffffffffffffffffffffffffffffffffff16905081600760006101000a81548173ffffffffffffffffffffffffffffffffffffffff021916908373ffffffffffffffffffffffffffffffffffffffff1602179055508173ffffffffffffffffffffffffffffffffffffffff168173ffffffffffffffffffffffffffffffffffffffff167f8be0079c531659141344cd1fd0a4f28419497f9722a3daafe3b4186f6b6457e060405160405180910390a35050565b61224a848484611d3d565b6122568484848461244d565b612295576040517f08c379a000000000000000000000000000000000000000000000000000000000815260040161228c906137f1565b60405180910390fd5b50505050565b60606122a68261187e565b6122e5576040517f08c379a00000000000000000000000000000000000000000000000000000000081526004016122dc90613951565b60405180910390fd5b600060066000848152602001908152602001600020805461230590613cf0565b80601f016020809104026020016040519081016040528092919081815260200182805461233190613cf0565b801561237e5780601f106123535761010080835404028352916020019161237e565b820191906000526020600020905b81548152906001019060200180831161236157829003601f168201915b50505050509050600061238f6125e4565b90506000815114156123a55781925050506123e8565b6000825111156123da5780826040516020016123c2929190613648565b604051602081830303815290604052925050506123e8565b6123e3846125fb565b925050505b919050565b6123f783836126a2565b612404600084848461244d565b612443576040517f08c379a000000000000000000000000000000000000000000000000000000000815260040161243a906137f1565b60405180910390fd5b505050565b505050565b600061246e8473ffffffffffffffffffffffffffffffffffffffff16612870565b156125d7578373ffffffffffffffffffffffffffffffffffffffff1663150b7a02612497611876565b8786866040518563ffffffff1660e01b81526004016124b9949392919061373f565b602060405180830381600087803b1580156124d357600080fd5b505af192505050801561250457506040513d601f19601f820116820180604052508101906125019190612bf0565b60015b612587573d8060008114612534576040519150601f19603f3d011682016040523d82523d6000602084013e612539565b606091505b5060008151141561257f576040517f08c379a0000000000000000000000000000000000000000000000000000000008152600401612576906137f1565b60405180910390fd5b805181602001fd5b63150b7a0260e01b7bffffffffffffffffffffffffffffffffffffffffffffffffffffffff1916817bffffffffffffffffffffffffffffffffffffffffffffffffffffffff1916149150506125dc565b600190505b949350505050565b606060405180602001604052806000815250905090565b60606126068261187e565b612645576040517f08c379a000000000000000000000000000000000000000000000000000000000815260040161263c906139f1565b60405180910390fd5b600061264f6125e4565b9050600081511161266f576040518060200160405280600081525061269a565b8061267984611f99565b60405160200161268a929190613648565b6040516020818303038152906040525b915050919050565b600073ffffffffffffffffffffffffffffffffffffffff168273ffffffffffffffffffffffffffffffffffffffff161415612712576040517f08c379a000000000000000000000000000000000000000000000000000000000815260040161270990613931565b60405180910390fd5b61271b8161187e565b1561275b576040517f08c379a000000000000000000000000000000000000000000000000000000000815260040161275290613831565b60405180910390fd5b61276760008383612448565b6001600360008473ffffffffffffffffffffffffffffffffffffffff1673ffffffffffffffffffffffffffffffffffffffff16815260200190815260200160002060008282546127b79190613b25565b92505081905550816002600083815260200190815260200160002060006101000a81548173ffffffffffffffffffffffffffffffffffffffff021916908373ffffffffffffffffffffffffffffffffffffffff160217905550808273ffffffffffffffffffffffffffffffffffffffff16600073ffffffffffffffffffffffffffffffffffffffff167fddf252ad1be2c89b69c2b068fc378daa952ba7f163c4a11628f55a4df523b3ef60405160405180910390a45050565b600080823b905060008111915050919050565b82805461288f90613cf0565b90600052602060002090601f0160209004810192826128b157600085556128f8565b82601f106128ca57805160ff19168380011785556128f8565b828001600101855582156128f8579182015b828111156128f75782518255916020019190600101906128dc565b5b5090506129059190612909565b5090565b5b8082111561292257600081600090555060010161290a565b5090565b600061293961293484613a9d565b613a6c565b90508281526020810184848401111561295157600080fd5b61295c848285613cae565b509392505050565b60008135905061297381613e69565b92915050565b60008135905061298881613e80565b92915050565b60008135905061299d81613e97565b92915050565b6000815190506129b281613e97565b92915050565b600082601f8301126129c957600080fd5b81356129d9848260208601612926565b91505092915050565b6000813590506129f181613eae565b92915050565b600060208284031215612a0957600080fd5b6000612a1784828501612964565b91505092915050565b60008060408385031215612a3357600080fd5b6000612a4185828601612964565b9250506020612a5285828601612964565b9150509250929050565b600080600060608486031215612a7157600080fd5b6000612a7f86828701612964565b9350506020612a9086828701612964565b9250506040612aa1868287016129e2565b9150509250925092565b60008060008060808587031215612ac157600080fd5b6000612acf87828801612964565b9450506020612ae087828801612964565b9350506040612af1878288016129e2565b925050606085013567ffffffffffffffff811115612b0e57600080fd5b612b1a878288016129b8565b91505092959194509250565b60008060408385031215612b3957600080fd5b6000612b4785828601612964565b9250506020612b5885828601612979565b9150509250929050565b60008060408385031215612b7557600080fd5b6000612b8385828601612964565b9250506020612b94858286016129e2565b9150509250929050565b600060208284031215612bb057600080fd5b6000612bbe84828501612979565b91505092915050565b600060208284031215612bd957600080fd5b6000612be78482850161298e565b91505092915050565b600060208284031215612c0257600080fd5b6000612c10848285016129a3565b91505092915050565b600060208284031215612c2b57600080fd5b6000612c39848285016129e2565b91505092915050565b612c4b81613c3a565b82525050565b612c5a81613c4c565b82525050565b6000612c6b82613ae2565b612c758185613af8565b9350612c85818560208601613cbd565b612c8e81613e58565b840191505092915050565b6000612ca482613aed565b612cae8185613b09565b9350612cbe818560208601613cbd565b612cc781613e58565b840191505092915050565b6000612cdd82613aed565b612ce78185613b1a565b9350612cf7818560208601613cbd565b80840191505092915050565b60008154612d1081613cf0565b612d1a8186613b1a565b94506001821660008114612d355760018114612d4657612d79565b60ff19831686528186019350612d79565b612d4f85613acd565b60005b83811015612d7157815481890152600182019150602081019050612d52565b838801955050505b50505092915050565b6000612d8f603283613b09565b91507f4552433732313a207472616e7366657220746f206e6f6e20455243373231526560008301527f63656976657220696d706c656d656e74657200000000000000000000000000006020830152604082019050919050565b6000612df5602683613b09565b91507f4f776e61626c653a206e6577206f776e657220697320746865207a65726f206160008301527f64647265737300000000000000000000000000000000000000000000000000006020830152604082019050919050565b6000612e5b601c83613b09565b91507f4552433732313a20746f6b656e20616c7265616479206d696e746564000000006000830152602082019050919050565b6000612e9b602483613b09565b91507f4552433732313a207472616e7366657220746f20746865207a65726f2061646460008301527f72657373000000000000000000000000000000000000000000000000000000006020830152604082019050919050565b6000612f01601983613b09565b91507f4552433732313a20617070726f766520746f2063616c6c6572000000000000006000830152602082019050919050565b6000612f41602c83613b09565b91507f4552433732313a206f70657261746f7220717565727920666f72206e6f6e657860008301527f697374656e7420746f6b656e00000000000000000000000000000000000000006020830152604082019050919050565b6000612fa7600d83613b1a565b91507f3c2f746578743e3c2f7376673e000000000000000000000000000000000000006000830152600d82019050919050565b6000612fe7603883613b09565b91507f4552433732313a20617070726f76652063616c6c6572206973206e6f74206f7760008301527f6e6572206e6f7220617070726f76656420666f7220616c6c00000000000000006020830152604082019050919050565b600061304d602a83613b09565b91507f4552433732313a2062616c616e636520717565727920666f7220746865207a6560008301527f726f2061646472657373000000000000000000000000000000000000000000006020830152604082019050919050565b60006130b3602983613b09565b91507f4552433732313a206f776e657220717565727920666f72206e6f6e657869737460008301527f656e7420746f6b656e00000000000000000000000000000000000000000000006020830152604082019050919050565b6000613119602e83613b09565b91507f45524337323155524953746f726167653a2055524920736574206f66206e6f6e60008301527f6578697374656e7420746f6b656e0000000000000000000000000000000000006020830152604082019050919050565b600061317f600283613b1a565b91507f227d0000000000000000000000000000000000000000000000000000000000006000830152600282019050919050565b60006131bf602083613b09565b91507f4552433732313a206d696e7420746f20746865207a65726f20616464726573736000830152602082019050919050565b60006131ff603183613b09565b91507f45524337323155524953746f726167653a2055524920717565727920666f722060008301527f6e6f6e6578697374656e7420746f6b656e0000000000000000000000000000006020830152604082019050919050565b6000613265602c83613b09565b91507f4552433732313a20617070726f76656420717565727920666f72206e6f6e657860008301527f697374656e7420746f6b656e00000000000000000000000000000000000000006020830152604082019050919050565b60006132cb601d83613b09565b91507f5468657265206973206e6f206d6f7265204e46547320746f206d696e740000006000830152602082019050919050565b600061330b602083613b09565b91507f4f776e61626c653a2063616c6c6572206973206e6f7420746865206f776e65726000830152602082019050919050565b600061334b602983613b09565b91507f4552433732313a207472616e73666572206f6620746f6b656e2074686174206960008301527f73206e6f74206f776e00000000000000000000000000000000000000000000006020830152604082019050919050565b60006133b1602f83613b09565b91507f4552433732314d657461646174613a2055524920717565727920666f72206e6f60008301527f6e6578697374656e7420746f6b656e00000000000000000000000000000000006020830152604082019050919050565b6000613417600a83613b1a565b91507f7b226e616d65223a2022000000000000000000000000000000000000000000006000830152600a82019050919050565b6000613457602183613b09565b91507f4552433732313a20617070726f76616c20746f2063757272656e74206f776e6560008301527f72000000000000000000000000000000000000000000000000000000000000006020830152604082019050919050565b60006134bd600a83613b1a565b91507f46495253545f574f5244000000000000000000000000000000000000000000006000830152600a82019050919050565b60006134fd601d83613b1a565b91507f646174613a6170706c69636174696f6e2f6a736f6e3b6261736536342c0000006000830152601d82019050919050565b600061353d603183613b09565b91507f4552433732313a207472616e736665722063616c6c6572206973206e6f74206f60008301527f776e6572206e6f7220617070726f7665640000000000000000000000000000006020830152604082019050919050565b60006135a3605283613b1a565b91507f222c20226465736372697074696f6e223a2022412043727970746f20436f6d6d60008301527f756e6974696573204e4654222c2022696d616765223a2022646174613a696d6160208301527f67652f7376672b786d6c3b6261736536342c00000000000000000000000000006040830152605282019050919050565b61362b81613ca4565b82525050565b600061363d8284612cd2565b915081905092915050565b60006136548285612cd2565b91506136608284612cd2565b91508190509392505050565b60006136788285612d03565b91506136848284612cd2565b915061368f82612f9a565b91508190509392505050565b60006136a68261340a565b91506136b28285612cd2565b91506136bd82613596565b91506136c98284612cd2565b91506136d482613172565b91508190509392505050565b60006136eb826134b0565b91506136f78284612cd2565b915081905092915050565b600061370d826134f0565b91506137198284612cd2565b915081905092915050565b60006020820190506137396000830184612c42565b92915050565b60006080820190506137546000830187612c42565b6137616020830186612c42565b61376e6040830185613622565b81810360608301526137808184612c60565b905095945050505050565b60006040820190506137a06000830185612c42565b6137ad6020830184613622565b9392505050565b60006020820190506137c96000830184612c51565b92915050565b600060208201905081810360008301526137e98184612c99565b905092915050565b6000602082019050818103600083015261380a81612d82565b9050919050565b6000602082019050818103600083015261382a81612de8565b9050919050565b6000602082019050818103600083015261384a81612e4e565b9050919050565b6000602082019050818103600083015261386a81612e8e565b9050919050565b6000602082019050818103600083015261388a81612ef4565b9050919050565b600060208201905081810360008301526138aa81612f34565b9050919050565b600060208201905081810360008301526138ca81612fda565b9050919050565b600060208201905081810360008301526138ea81613040565b9050919050565b6000602082019050818103600083015261390a816130a6565b9050919050565b6000602082019050818103600083015261392a8161310c565b9050919050565b6000602082019050818103600083015261394a816131b2565b9050919050565b6000602082019050818103600083015261396a816131f2565b9050919050565b6000602082019050818103600083015261398a81613258565b9050919050565b600060208201905081810360008301526139aa816132be565b9050919050565b600060208201905081810360008301526139ca816132fe565b9050919050565b600060208201905081810360008301526139ea8161333e565b9050919050565b60006020820190508181036000830152613a0a816133a4565b9050919050565b60006020820190508181036000830152613a2a8161344a565b9050919050565b60006020820190508181036000830152613a4a81613530565b9050919050565b6000602082019050613a666000830184613622565b92915050565b6000604051905081810181811067ffffffffffffffff82111715613a9357613a92613e29565b5b8060405250919050565b600067ffffffffffffffff821115613ab857613ab7613e29565b5b601f19601f8301169050602081019050919050565b60008190508160005260206000209050919050565b600081519050919050565b600081519050919050565b600082825260208201905092915050565b600082825260208201905092915050565b600081905092915050565b6000613b3082613ca4565b9150613b3b83613ca4565b9250827fffffffffffffffffffffffffffffffffffffffffffffffffffffffffffffffff03821115613b7057613b6f613d9c565b5b828201905092915050565b6000613b8682613ca4565b9150613b9183613ca4565b925082613ba157613ba0613dcb565b5b828204905092915050565b6000613bb782613ca4565b9150613bc283613ca4565b9250817fffffffffffffffffffffffffffffffffffffffffffffffffffffffffffffffff0483118215151615613bfb57613bfa613d9c565b5b828202905092915050565b6000613c1182613ca4565b9150613c1c83613ca4565b925082821015613c2f57613c2e613d9c565b5b828203905092915050565b6000613c4582613c84565b9050919050565b60008115159050919050565b60007fffffffff0000000000000000000000000000000000000000000000000000000082169050919050565b600073ffffffffffffffffffffffffffffffffffffffff82169050919050565b6000819050919050565b82818337600083830152505050565b60005b83811015613cdb578082015181840152602081019050613cc0565b83811115613cea576000848401525b50505050565b60006002820490506001821680613d0857607f821691505b60208210811415613d1c57613d1b613dfa565b5b50919050565b6000613d2d82613ca4565b91507fffffffffffffffffffffffffffffffffffffffffffffffffffffffffffffffff821415613d6057613d5f613d9c565b5b600182019050919050565b6000613d7682613ca4565b9150613d8183613ca4565b925082613d9157613d90613dcb565b5b828206905092915050565b7f4e487b7100000000000000000000000000000000000000000000000000000000600052601160045260246000fd5b7f4e487b7100000000000000000000000000000000000000000000000000000000600052601260045260246000fd5b7f4e487b7100000000000000000000000000000000000000000000000000000000600052602260045260246000fd5b7f4e487b7100000000000000000000000000000000000000000000000000000000600052604160045260246000fd5b6000601f19601f8301169050919050565b613e7281613c3a565b8114613e7d57600080fd5b50565b613e8981613c4c565b8114613e9457600080fd5b50565b613ea081613c58565b8114613eab57600080fd5b50565b613eb781613ca4565b8114613ec257600080fd5b5056fe4142434445464748494a4b4c4d4e4f505152535455565758595a6162636465666768696a6b6c6d6e6f707172737475767778797a303132333435363738392b2fa264697066735822122033984436f6a8ce37e45779f07773130eb8ac15ec3ce34b44409d13593d4f144064736f6c634300080000333c73766720786d6c6e733d27687474703a2f2f7777772e77332e6f72672f323030302f73766727207072657365727665417370656374526174696f3d27784d696e594d696e206d656574272076696577426f783d273020302033353020333530273e3c7374796c653e2e62617365207b2066696c6c3a2077686974653b20666f6e742d66616d696c793a2073657269663b20666f6e742d73697a653a20323470783b207d3c2f7374796c653e3c726563742077696474683d273130302527206865696768743d2731303025272066696c6c3d27626c61636b27202f3e3c7465787420783d273530252720793d273530252720636c6173733d27626173652720646f6d696e616e742d626173656c696e653d276d6964646c652720746578742d616e63686f723d276d6964646c65273e",
  "immutableReferences": {},
  "source": "// SPDX-License-Identifier: MIT\r\npragma solidity 0.8.0;\r\n\r\n\r\nimport \"@openzeppelin/contracts/utils/Strings.sol\";\r\nimport \"@openzeppelin/contracts/token/ERC721/ERC721.sol\";\r\nimport \"@openzeppelin/contracts/token/ERC721/extensions/ERC721URIStorage.sol\";\r\nimport \"@openzeppelin/contracts/access/Ownable.sol\";\r\nimport \"@openzeppelin/contracts/utils/Counters.sol\";\r\n\r\n\r\n/// Import helper functions needed for Base64 encoding.\r\nimport { Base64 } from \"./libraries/Base64.sol\";\r\n\r\n\r\n/// @title A Community Aggregator\r\n/// @author Maximiliano Grub\r\n/// @notice Allows communities to mint NFTs based on a bonding curve\r\n/// @dev A better implementacion would be an ERC115 token, for gas optimization and \r\ncontract CommunitiesNFT is ERC721, ERC721URIStorage, Ownable {\r\n  \r\n  using Strings for uint256;\r\n\r\n  using Counters for Counters.Counter;\r\n  Counters.Counter private _tokenIds;\r\n\r\n  bool public paused = false;\r\n\r\n\r\n  /// @dev The cost in Eth per NFT\r\n  uint256 public cost = 0.001 ether;\r\n\r\n\r\n  /// @dev The max amount of tokens that can be minted\r\n  uint256 public maxSupply = 10000;\r\n  \r\n  \r\n  /// @dev Track the number of times the \"mint\" function has been called \r\n  uint256 private countMinting = 0;\r\n\r\n  string baseSvg = \"<svg xmlns='http://www.w3.org/2000/svg' preserveAspectRatio='xMinYMin meet' viewBox='0 0 350 350'><style>.base { fill: white; font-family: serif; font-size: 24px; }</style><rect width='100%' height='100%' fill='black' /><text x='50%' y='50%' class='base' dominant-baseline='middle' text-anchor='middle'>\";\r\n  string[] words = [\"Daft Punk\", \"Tom Petty\", \"Arcade Fire\", \"Real Estate\", \"My Morning Jacket\", \"Local Natives\", \"Fruits Bats\", \"Vampire Weekend\",  \"Pixies\", \"Portugal the Man\"];\r\n  \r\n\r\n  /// @notice Event to be emitted after minting all the NFTs\r\n  /// @param sender The address of the transaction sender\r\n  /// @param amountNftMinted The amount of NFTs minted\r\n  event finishTheMinting(address sender, uint256 amountNftMinted);\r\n\r\n\r\n  /// @notice Event to be emitted after a successful mint\r\n  /// @param sender The address of the transaction sender\r\n  /// @param tokenId The id of the token that has just been minted\r\n  event NewNFTMinted(address sender, uint256 tokenId);\r\n  \r\n\r\n  /// @notice Event to be emitted after the call of the bonding curve  \r\n  /// @param newAmountToMint The amount that the sender can mint\r\n  event LogAmountToMint(uint256 newAmountToMint);\r\n  \r\n\r\n  /// @notice Mapping address whitelisted\r\n  mapping(address => bool) public whitelisted;\r\n\r\n  \r\n  /// @notice contract constructor. Takes parameters and passes them to the inherited ERC721 contract constructor\r\n  /// @param _name the name of the contract\r\n  /// @param _symbol the symbol that contract tokens will be represented by\r\n  constructor(string memory _name, string memory _symbol) ERC721(_name, _symbol) {\r\n    // Increments the counter so that it starts with Id:1\r\n      _tokenIds.increment();\r\n  }\r\n\r\n  /// @notice Pick a random word to name the nft\r\n  /// @dev The randomness could be improved \r\n  function pickRandomWord(uint256 tokenId) public view returns (string memory) {\r\n    uint256 rand = random(string(abi.encodePacked(\"FIRST_WORD\", Strings.toString(tokenId))));\r\n    rand = rand % words.length;\r\n    return words[rand];\r\n  }\r\n\r\n  /// @param input string input which is hashed to generate the 'random' number.\r\n  /// @return A random integer\r\n  function random(string memory input) internal pure returns (uint256) {\r\n    return uint256(keccak256(abi.encodePacked(input)));\r\n  }\r\n\r\n  /// @notice Returns the amount of NFTs to minte  \r\n  /// @dev \r\n  function tokensMinted() public view returns (uint256) {\r\n    return _tokenIds.current();\r\n  }\r\n\r\n  /// @notice Returns the amount of NFTs to minte  \r\n  /// @dev \r\n  \r\n  function bondingCurve() internal returns (uint256) {\r\n    uint256 amountToMint = 2 * countMinting + 4;\r\n    emit LogAmountToMint(amountToMint);\r\n    return amountToMint;  \r\n  }\r\n    \r\n  \r\n  /// @notice Mint a quantity of ERC721 determined by the bonding curve.  All are randomly selected.  \r\n  /// @dev currently does not accept payment\r\n  /// @dev this function creates and stores the tokens URI. This is a JSON string constisting of name, description and image fields. The image is a BASE64 encoded SVG. Finally The whole JSON metadata string is BASE64 encoded and mapped to the tokenId.\r\n  function mint() public payable {\r\n    uint256 mintAmount = bondingCurve();\r\n    uint256 newItemId = _tokenIds.current(); \r\n\r\n    require(!paused);\r\n    require(_tokenIds.current() + mintAmount <= maxSupply, \"There is no more NFTs to mint\");\r\n    \r\n    \r\n    /// If not the owner, must pay the fee and must be whitelisted.\r\n    if (msg.sender != owner()) {\r\n        if(whitelisted[msg.sender] != true) {\r\n          require(msg.value >= cost * mintAmount);\r\n        }\r\n    }\r\n           \r\n    string memory first = pickRandomWord(newItemId);\r\n\r\n    string memory finalSvg = string(abi.encodePacked(baseSvg, first, \"</text></svg>\"));\r\n\r\n    // Get all the JSON metadata in place and base64 encode it.\r\n    string memory json = Base64.encode(\r\n       bytes(\r\n          string(\r\n              abi.encodePacked(\r\n                  '{\"name\": \"',first, \r\n                  '\", \"description\": \"A Crypto Communities NFT\", \"image\": \"data:image/svg+xml;base64,',\r\n                  // We add data:image/svg+xml;base64 and then append our base64 encode our svg.\r\n                  Base64.encode(bytes(finalSvg)),\r\n                  '\"}'\r\n              )\r\n          )\r\n        )\r\n    );\r\n\r\n    // Just like before, we prepend data:application/json;base64, to our data.\r\n    string memory finalTokenUri = string(\r\n      abi.encodePacked(\"data:application/json;base64,\", json)\r\n    );\r\n    \r\n    \r\n    /// For\r\n    for (uint256 i = 1; i <= mintAmount; i++) {\r\n      newItemId = _tokenIds.current();\r\n\r\n      \r\n      // Increment the counter for when the next NFT is minted\r\n      _tokenIds.increment();\r\n\r\n\r\n      // Mint the NFT\r\n      _safeMint(msg.sender, newItemId);\r\n\r\n\r\n      // Store the tokens metadata.\r\n      _setTokenURI(newItemId, finalTokenUri);\r\n\r\n      \r\n      emit NewNFTMinted(msg.sender, newItemId);\r\n    }\r\n\r\n    \r\n    emit finishTheMinting(msg.sender, mintAmount);\r\n    \r\n    countMinting += 1;  \r\n    \r\n  }\r\n\r\n\r\n  ///Only owner functions\r\n\r\n\r\n  /// @notice Change the cost of the minting\r\n  /// @dev Only the contract owner can call this\r\n  function setCost(uint256 _newCost) public onlyOwner {\r\n    cost = _newCost;\r\n  }\r\n\r\n    \r\n  /// @notice Pause the contract\r\n  /// @dev Only the contract owner can call this\r\n  function pause(bool _state) public onlyOwner {\r\n    paused = _state;\r\n  }\r\n\r\n\r\n  /// @notice Add a user to the whitelist\r\n  /// @dev Only the contract owner can call this\r\n  function whitelistUser(address _user) public onlyOwner {\r\n    whitelisted[_user] = true;\r\n  }\r\n\r\n\r\n  /// @notice Remove a user from the whitelist \r\n  /// @dev Only the contract owner can call this\r\n  function removeWhitelistUser(address _user) public onlyOwner {\r\n    whitelisted[_user] = false;\r\n  }\r\n\r\n\r\n  /// @notice Withdraw contract funds\r\n  /// @dev Only the contract owner can call this\r\n  function withdraw() public payable onlyOwner {\r\n    require(payable(msg.sender).send(address(this).balance));\r\n  }\r\n\r\n  \r\n  // The following functions are overrides required by Solidity.\r\n\r\n  function _burn(uint256 tokenId) internal override(ERC721, ERC721URIStorage) {\r\n      super._burn(tokenId);\r\n  }\r\n\r\n  function tokenURI(uint256 tokenId)\r\n      public\r\n      view\r\n      override(ERC721, ERC721URIStorage)\r\n      returns (string memory)\r\n  {\r\n      return super.tokenURI(tokenId);\r\n  }\r\n}",
  "sourcePath": "/mnt/c/Users/Max/GitHub/blockchain-developer-bootcamp-final-project/contracts/CommunitiesNFT.sol",
  "compiler": {
    "name": "solc",
    "version": "0.8.0+commit.c7dfd78e.Emscripten.clang"
  },
  "schemaVersion": "3.4.3",
  "updatedAt": "2021-11-28T21:07:18.362Z",
  "networkType": "ethereum",
  "devdoc": {
    "author": "Maximiliano Grub",
    "details": "A better implementacion would be an ERC115 token, for gas optimization and ",
    "events": {
      "LogAmountToMint(uint256)": {
        "params": {
          "newAmountToMint": "The amount that the sender can mint"
        }
      },
      "NewNFTMinted(address,uint256)": {
        "params": {
          "sender": "The address of the transaction sender",
          "tokenId": "The id of the token that has just been minted"
        }
      },
      "finishTheMinting(address,uint256)": {
        "params": {
          "amountNftMinted": "The amount of NFTs minted",
          "sender": "The address of the transaction sender"
        }
      }
    },
    "kind": "dev",
    "methods": {
      "approve(address,uint256)": {
        "details": "See {IERC721-approve}."
      },
      "balanceOf(address)": {
        "details": "See {IERC721-balanceOf}."
      },
      "constructor": {
        "params": {
          "_name": "the name of the contract",
          "_symbol": "the symbol that contract tokens will be represented by"
        }
      },
      "getApproved(uint256)": {
        "details": "See {IERC721-getApproved}."
      },
      "isApprovedForAll(address,address)": {
        "details": "See {IERC721-isApprovedForAll}."
      },
      "mint()": {
        "details": "currently does not accept paymentthis function creates and stores the tokens URI. This is a JSON string constisting of name, description and image fields. The image is a BASE64 encoded SVG. Finally The whole JSON metadata string is BASE64 encoded and mapped to the tokenId."
      },
      "name()": {
        "details": "See {IERC721Metadata-name}."
      },
      "owner()": {
        "details": "Returns the address of the current owner."
      },
      "ownerOf(uint256)": {
        "details": "See {IERC721-ownerOf}."
      },
      "pause(bool)": {
        "details": "Only the contract owner can call this"
      },
      "pickRandomWord(uint256)": {
        "details": "The randomness could be improved "
      },
      "removeWhitelistUser(address)": {
        "details": "Only the contract owner can call this"
      },
      "renounceOwnership()": {
        "details": "Leaves the contract without owner. It will not be possible to call `onlyOwner` functions anymore. Can only be called by the current owner. NOTE: Renouncing ownership will leave the contract without an owner, thereby removing any functionality that is only available to the owner."
      },
      "safeTransferFrom(address,address,uint256)": {
        "details": "See {IERC721-safeTransferFrom}."
      },
      "safeTransferFrom(address,address,uint256,bytes)": {
        "details": "See {IERC721-safeTransferFrom}."
      },
      "setApprovalForAll(address,bool)": {
        "details": "See {IERC721-setApprovalForAll}."
      },
      "setCost(uint256)": {
        "details": "Only the contract owner can call this"
      },
      "supportsInterface(bytes4)": {
        "details": "See {IERC165-supportsInterface}."
      },
      "symbol()": {
        "details": "See {IERC721Metadata-symbol}."
      },
      "transferFrom(address,address,uint256)": {
        "details": "See {IERC721-transferFrom}."
      },
      "transferOwnership(address)": {
        "details": "Transfers ownership of the contract to a new account (`newOwner`). Can only be called by the current owner."
      },
      "whitelistUser(address)": {
        "details": "Only the contract owner can call this"
      },
      "withdraw()": {
        "details": "Only the contract owner can call this"
      }
    },
    "stateVariables": {
      "cost": {
        "details": "The cost in Eth per NFT"
      },
      "countMinting": {
        "details": "Track the number of times the \"mint\" function has been called "
      },
      "maxSupply": {
        "details": "The max amount of tokens that can be minted"
      }
    },
    "title": "A Community Aggregator",
    "version": 1
  },
  "userdoc": {
    "events": {
      "LogAmountToMint(uint256)": {
        "notice": "Event to be emitted after the call of the bonding curve  "
      },
      "NewNFTMinted(address,uint256)": {
        "notice": "Event to be emitted after a successful mint"
      },
      "finishTheMinting(address,uint256)": {
        "notice": "Event to be emitted after minting all the NFTs"
      }
    },
    "kind": "user",
    "methods": {
      "constructor": {
        "notice": "contract constructor. Takes parameters and passes them to the inherited ERC721 contract constructor"
      },
      "mint()": {
        "notice": "Mint a quantity of ERC721 determined by the bonding curve.  All are randomly selected.  "
      },
      "pause(bool)": {
        "notice": "Pause the contract"
      },
      "pickRandomWord(uint256)": {
        "notice": "Pick a random word to name the nft"
      },
      "removeWhitelistUser(address)": {
        "notice": "Remove a user from the whitelist "
      },
      "setCost(uint256)": {
        "notice": "Change the cost of the minting"
      },
      "tokensMinted()": {
        "notice": "Returns the amount of NFTs to minte  "
      },
      "whitelistUser(address)": {
        "notice": "Add a user to the whitelist"
      },
      "whitelisted(address)": {
        "notice": "Mapping address whitelisted"
      },
      "withdraw()": {
        "notice": "Withdraw contract funds"
      }
    },
    "notice": "Allows communities to mint NFTs based on a bonding curve",
    "version": 1
  }
}